:1000000002000375816B1200F6E582600302006F47
:10001000780079007A007B007C007D00EC4D601C4C
:1000200088828983E493A3A882A9838A828B83F040
:10003000A3AA82AB831CBCFFE31D80E07582007520
:1000400083007C007D00EC4D600AE4F0A31CBCFF43
:10005000F51D80F27582007583007C007D00EC4DFB
:10006000600AE4F0A31CBCFFF51D80F21200F5123B
:10007000041F80FE000000001CABC84198F9A03DA1
:100080000A2980BEF64BAA3D7B3349BCE380803A07
:100090008C1839B877F78D35A8DC34B254656D709B
:1000A00065726174757265204D657465722E2020CD
:1000B00056657273696F6E20332E302E20202863B0
:1000C00029204A657375732043616C76696E6F2DC4
:1000D000467261676120323031332D323032320D59
:1000E0000A0025342E3166002C2025352E3166007D
:1000F0000D0A000D002275A7007597DE7597AD7586
:10010000FF8075EF0675A71075C12075A70075A94A
:100110000075A900E5A930E7FB75A90375A903E5FA
:10012000A930E7FB43A41043A57875E10175E2000F
:1001300075E340759810758DE6858D8B53890F4357
:100140008920D28ED29975820022AA82438E407570
:1001500092B87593FF8592948593957591047B0071
:10016000C3EB9A500BE59130E7FB53917F0B80F086
:1001700075910022AA82AB837C007D00C3EC9AEDCE
:100180009B502B7E00BE0400501D7582FAC002C039
:1001900003C004C005C00612014AD006D005D00431
:1001A000D003D0020E80DE0CBC00D10D80CE2275B3
:1001B000A70075B28075BCF875B91E75E80075DFCB
:1001C0003F75B300D2EF22AA82851CF005F07401BE
:1001D000800225E0D5F0FBFB75A720BA0002800A5B
:1001E000BA0102800FBA021E8014EBF4FA52F1EB4E
:1001F00042D48012EBF4FA52F2EB42D58008EBF4D1
:10020000FA52F3EB42CC75A700228582BBD2EC20D8
:10021000ECFDD2EC20ECFD85BD8285BE832212026E
:100220000A12097EAA82AB83ACF0FDC002C003C0F3
:1002300004C005906C8B75F053744012098AAA8231
:10024000AB83ACF0FDE58124FCF581E4C0E074FCF7
:10025000C0E0747FC0E07446C0E08A828B838CF07B
:10026000ED120AD2AA82AB83ACF0FDE58124FCF545
:10027000818A828B838CF0ED2210980280FB859915
:100280008222AA82AB83ACF0FD900074E493F52245
:10029000A3E493F523A3E493F524A3E493F525C005
:1002A00002C003C004C00590000075F07A744412C7
:1002B000098AAA82AB83ACF0FDE58124FCF5818A32
:1002C000268B278C288D29752A0174F6252A500340
:1002D000020381E52A252A25E0F5F090007493FFBA
:1002E000A3E5F093F8A3E5F093F9A3E5F093FEC03E
:1002F00002C003C004C005C026C027C028C0298F83
:1003000082888389F0EE12098AAE82AF83A8F0F961
:10031000E58124FCF581C006C007C000C00185222C
:10032000828523838524F0E525120A38858222857B
:10033000832385F024F525E58124FCF581D005D0C3
:1003400004D003D002C002C003C004C005C002C074
:1003500003C004C0058526828527838528F0E5290A
:1003600012098A85822685832785F028F529E5816B
:1003700024FCF581D005D004D003D002052A020266
:10038000CA8522828523838524F0E52522AA82D28C
:1003900094D293900002C002120174D002EA24F8B1
:1003A000406FEA2A2A9003A9730203C10203CB0219
:1003B00003D50203DF0203E90203F30203FD020493
:1003C00007C295C296C294D293804ED295C296C26D
:1003D00094D2938044C295D296C294D293803AD25A
:1003E00095D296C294D2938030C295C296D294C2CE
:1003F000938026D295C296D294C293801CC295D285
:1004000096D294C2938012D295D296D294C29380FF
:1004100008C295C296D294D29390000A02017475D4
:100420002B66752C66752D66752E3F752FCD753034
:10043000CC7531CC75323DC200751C01758202123B
:1004400001C7751C077582011201C71201AF900028
:100450000A12017475820E12021EAC82AD83AAF0DC
:10046000FBC004C005C002C00390000075F0C87452
:100470004212098AAA82AB83ACF0FDE58124FCF527
:1004800081E4C0E07480C0E07488C0E07443C0E0E0
:100490008A828B838CF0ED120AC785823385833480
:1004A00085F035F536E58124FCF5817E00BE080037
:1004B00050678E82C00612038DD006EE2E25E024F2
:1004C00037F875820DC006C00012021EAF82AA83E3
:1004D000ABF0FCC007C002C003C0049061E575F03A
:1004E000A1743B12098AAA82AB83ACF0FDE581249A
:1004F000FCF5818A828B838CF0ED120282AA82AB9A
:1005000083ACF0FDD000D006A60208A60308A6041E
:1005100008A6051818180E809420980302073512B3
:100520000279120BF1AA82BA30030206B5BA31037E
:100530000206CFBA32030206E9BA3303020703BA4E
:10054000340302071DBA4402802CBA4902800FBA54
:100550004B0302069BBA5403020607020735749C3C
:10056000C0E07400C0E07480C0E0120AA6158115D6
:10057000811581020735E4C0E0C0E074B0C0E074CA
:1005800041C0E074E2C0E07400C0E07480C0E012DA
:100590000AA6E58124F9F5817A00BA080050508A4C
:1005A00082C002120A2DAB82AC83ADF0FEC003C044
:1005B00004C005C00690000075F0A0744112098ABD
:1005C000AB82AC83ADF0FEE58124FCF581C003C0B5
:1005D00004C005C00674E8C0E07400C0E07480C0C8
:1005E000E0120AA6E58124F9F581D0020A80AB74F5
:1005F000F0C0E07400C0E07480C0E0120AA615816B
:1006000015811581020735C033C034C035C036743A
:10061000E2C0E07400C0E07480C0E0120AA6E58188
:1006200024F9F5817A00BA08005058EA2A25E02416
:1006300037F8860308860408860508860618181801
:10064000C002C033C034C035C0368B828C838DF07D
:10065000EE120A38AB82AC83ADF0FEE58124FCF5E6
:1006600081C003C004C005C00674E8C0E07400C0C7
:10067000E07480C0E0120AA6E58124F9F581D00279
:100680000A80A374F0C0E07400C0E07480C0E0127F
:100690000AA615811581158102073574F0C0E07432
:1006A00000C0E07480C0E0120AA615811581158192
:1006B000B200020735752B00752C00752D00752EC4
:1006C00000752F0075300075318075323F8066757A
:1006D0002B66752C66752D66752E3F752FCD753082
:1006E000CC7531CC75323D804C752BA4752C707552
:1006F0002D7D752E3F752F0A7530D77531237532D4
:100700003C8032752B77752CBE752D7F752E3F750D
:100710002F6F75301275318375323A8018752B72D0
:10072000752CF9752D7F752E3F752F177530B775A0
:1007300031D1753238C033C034C035C036852B82D4
:10074000852C83852DF0E52E12098A8582588583B4
:100750005985F05AF55BE58124FCF58175820E120E
:10076000021EAE82AF83AAF0FBC006C007C002C063
:100770000390000075F0C8744212098AAA82AB8304
:10078000ACF0FDE58124FCF581E4C0E07480C0E0BC
:100790007488C0E07443C0E08A828B838CF0ED12D1
:1007A0000AC7AA82AB83ACF0FDE58124FCF581C0C9
:1007B00002C003C004C005852F828530838531F0D7
:1007C000E53212098AAA82AB83ACF0FDE58124FCF4
:1007D000F581C002C003C004C005855882855983D5
:1007E000855AF0E55B120A3885823385833485F0BB
:1007F00035F536E58124FCF58175570074F82557E9
:1008000050030208E485578212038DE557255725CA
:10081000E02437F88603088604088605088606184B
:100820001818C000C003C004C005C006852B82850F
:100830002C83852DF0E52E12098A858258858359EF
:1008400085F05AF55BE58124FCF58175820D120275
:100850001EAF82AA83ABF0FCC007C002C003C00475
:100860009061E575F0A1743B12098AAA82AB83AC52
:10087000F0FDE58124FCF5818A828B838CF0ED12FA
:100880000282AA82AB83ACF0FDC002C003C004C0E8
:1008900005852F828530838531F0E53212098AAAD9
:1008A00082AB83ACF0FDE58124FCF581C002C0037E
:1008B000C004C005855882855983855AF0E55B12CE
:1008C0000A38AA82AB83ACF0FDE58124FCF581D027
:1008D00000A60208A60308A60408A605181818050D
:1008E000570207FC200003020519C033C034C0358D
:1008F000C03674E2C0E07400C0E07480C0E0120A48
:10090000A6E58124F9F5817A00BA08005058EA2A50
:1009100025E02437F886030886040886050886063D
:10092000181818C002C033C034C035C0368B828C52
:10093000838DF0EE120A38AB82AC83ADF0FEE58118
:1009400024FCF581C003C004C005C00674E8C0E003
:100950007400C0E07480C0E0120AA6E58124F9F5B5
:1009600081D0020A80A374F3C0E07400C0E07480F8
:10097000C0E0120AA6158115811581020519E4ACA3
:1009800083AB82FAF9748E020C12120C9EBC000327
:10099000020C3DEF60FA30D502B2D1E583B4FF031B
:1009A000020C53E582B4FF03020C53258340072455
:1009B00082400B020C3D2483145003020C53F58239
:1009C000EA8DF0A4A8F0EA8EF0A428F8E435F0F956
:1009D000EB8DF0A428E935F0F9E433CA8FF0A429AF
:1009E000F9EA35F0FAEBF88EF0A429F9EA35F0FAD5
:1009F000E433FBEC8DF0A429F9EA35F0FAE43BFB93
:100A0000E88FF0A42AFAEB35F0FBE433CCFD8EF04E
:100A1000A42AFAEB35F0FBE43CFCED8FF0A42BFBB1
:100A2000EC35F0FC20E703120C6B020C1CE4AC82EA
:100A3000FBFAF97486020C12120C9E7900E583B55C
:100A40008202800D5003120CCCE583C39582120CF8
:100A5000E6E5D0C465D020E117EA2DFAEB3EFBECC9
:100A60003FFC50097401120CE6EC4480FC020C1CA3
:100A7000C3EA9DFAEB9EFBEC9FFC500FC3E499F98F
:100A8000E49AFAE49BFBE49CFCB2D1120C6B020CDE
:100A90001C0216B585821885831985F01A85091BF5
:100AA000900A91021108C008858108E50824FBF529
:100AB0001BE50824FBF8861808861908861A900A90
:100AC00091121108D00822A8811818C6B2E7C602F0
:100AD0000A38120C9E30D502B2D1BF0009BC000307
:100AE000020C60020C53BC0003020C3DE583B4FF12
:100AF0000BE582B4FF03020C60020C3DE582B4FFFB
:100B000003020C53C395835007247F400B020C3D16
:100B10002480145003020C53C0E0E4CCCBCAF98DFE
:100B20001C8E1D8F1EEF54F0C4F51F758306851FA4
:100B3000F0EB84F582E9C4F9EAC4FAEBC4FBEC54A7
:100B40000FC47803D6FC18EBD6FB18EAD6FA8582D8
:100B5000F0EDA4A8F0FD8582F0EEA428FEE435F0C7
:100B6000F88582F0EFA428FFE435F0F8E99DF9EA72
:100B70009EFAEB9FFBEC98FCAD1CAE1DAF1E30E760
:100B8000101582E92DF9EA3EFAEB3FFBE43CFC80CC
:100B9000EDC082D58398C3E933F9EA33FAEB33FB2E
:100BA000EC33FCC3E99DEA9EEB9FEC9400B3E413A5
:100BB000F9D002D0E0C44AFAD003D0E0C44BFBD055
:100BC00004D0E0F5F0540FC44CFCD082158230F410
:100BD0000FD3EC13FCEB13FBEA13FAE913F90582CC
:100BE000E930E70A74012AFAE43BFBE43CFC020C1E
:100BF00034AA82C0021216CAE582D002600674E0EE
:100C00002AFB80028A038B8222FCABF0AA83A98292
:100C1000749EC2D1F582120C6B020C1CB98003EADF
:100C200013B34010EA2401FAE43BFBE43CFC50041B
:100C30007C800582BC000EBB000BBA0008E4F5F016
:100C4000F583F58222A2D1E582138CF092F78B8393
:100C50008A8222E4F583F58275F080F4A2D1132212
:100C6000E4F583F58275F0C0747F227804EC70118E
:100C7000E58224F8500AF582E4C9CACBFCD8EF22F9
:100C8000EC7820058220E713D5820122C3E933F9ED
:100C9000EA33FAEB33FBEC33FCD8EA158222AA8262
:100CA000AB83A2F73392D16002D2F7F582ACF0E5C4
:100CB0008124F9F8E6FD08E6FE0886F008E6A2F7CA
:100CC0003392D56002D2F7F583AFF022E582C58377
:100CD000F582A2D133A2D592D11392D5ECCFFCEB01
:100CE000CEFBEACDFA226040F82582500274FFF56F
:100CF00082E824F8501ECCCBCAF9E4CC24F8501476
:100D0000CBCAF9E4CB24F8500BCAF9E4CA24F85052
:100D10000379002224086010F8C3EC13FCEB13FBEA
:100D2000EA13FAE913F9D8F122AA82743AC0E074FE
:100D30000DC0E0C00AC00B8A82220511E4B5110281
:100D4000051222AA8274302AFA24C6500A74072A8D
:100D5000FA3001034302208A82020D29E582FAC497
:100D6000540FF582C002120D43D002740F5AF5825F
:100D7000020D43AA0CAB0DAC0EAD0FAE10751720D3
:100D8000EE2EFEED235401FF4206EA2AFAEB33FB76
:100D9000EC33FCED33FDC3EE95134008EEC3951321
:100DA000FE430201D517D98A0C8B0D8C0E8D0F8E48
:100DB00010227868E624D075F00AA4FA7869E6244F
:100DC000D02AFA78678603BB2D04C3E49AFA751318
:100DD00001C3E464808AF063F08095F050297517B0
:100DE000038A0374F62517401C0513E51714245CC9
:100DF000F8E517245CF98704A604772E1BEBFA604C
:100E000004051780DE8B02EA30E70D785D860378F3
:100E10005EA603785D762E0AE515600AE51504FBEB
:100E20002513F5138005300C020513785C8603E466
:100E3000BB2D0104FB7006200703300802051330A8
:100E40000503020EF9300657EB600C75822DC002C7
:100E5000120D29D002801C30070C75822BC00212A3
:100E60000D29D002800D30080A758220C002120DB3
:100E700029D002785D8604BC2E0C758230C0021227
:100E80000D29D0021514AC141514C3E5139C4003AE
:100E9000020F3D758230C002120D29D00280E7ACEE
:100EA000141514C3E5139C500C758220C002120D5A
:100EB00029D00280EA785C8604BC2D0C75822DC096
:100EC00002120D29D002801C30070C75822BC00243
:100ED000120D29D002800D30080A758220C002123E
:100EE0000D29D002785D8604BC2E52758230C00276
:100EF000120D29D00215148044EB600E75822DC0AE
:100F000002120D29D0021514802030070E75822B95
:100F1000C002120D29D0021514800F30080C758202
:100F200020C002120D29D0021514785D8603BB2E55
:100F30000C758230C002120D29D0021514751701EC
:100F4000C20EE517245CF88603BB4503020FFABB0B
:100F50002E348A03C3E464808BF063F08095F050F4
:100F60000F758230C003120D29D0031B8B0280E461
:100F70008B02D20EE5157038200C03020FFA758231
:100F80002E120D298074300E278A03EB30E71FC321
:100F9000E464808515F063F08095F0500C75823024
:100FA000C003120D29D00315150B8B0280DD8B02B7
:100FB000300E0EC3E464808515F063F08095F05028
:100FC00021E517245CF886038B82C002120D29D01C
:100FD00002300E0EE517245CF88603BB2E02800259
:100FE00015151514C3E464808515F063F08095F041
:100FF0004003200E050517020F42C3E464808515E7
:10100000F063F08095F0500A758230120D291515A5
:1010100080E830050FAA141514EA600875822012C2
:101020000D2980F122E5157003300C0D740725158C
:10103000FAE514C39AF5148006E51424FAF514753C
:101040001700785C8602BA2B0F20070C785C76209C
:101050002008057517010514200519AA14C3E464B6
:10106000808AF063F08095F0500A758220120D2975
:10107000151480E7C20EE517245CF88602BA000258
:101080008069BA451F3001027665C3E46480851526
:10109000F063F08095F0500A758230120D29151515
:1010A00080E8D20EC3E5179402E433FA7014EA70B4
:1010B0000EC3E464808515F063F08095F040033042
:1010C0000E16E517245CF886028A82120D29E517B0
:1010D00024FD50121515800E7402B51709300C0648
:1010E00075822E120D290517021076300519AA14E3
:1010F000C3E464808AF063F08095F0500A75822022
:10110000120D29151480E72285820A85830BE4F5E8
:1011100011F512AA18AB19AC1A8A828B838CF012C3
:1011200016DEFD74012AF518E43BF5198C1AEDFA68
:1011300070030216AEBA250280030216A6C205C2CB
:1011400006C207C208C209C20AC20BC20CC202C24E
:1011500003C2047513007514007515FFAB18AC19A4
:10116000AD1A8B828C838DF01216DEFAA3AB82ACA3
:10117000838B188C198D1ABA25078A82120D298043
:10118000928A06BE3000402E8A06EE24C64027749E
:10119000FFB51513E51475F00AA4FEEA24D02EF568
:1011A0001470BFD20680BBE51575F00AA4FEEA24D0
:1011B000D02EF51580ACBA2E0A74FFB515A475159E
:1011C00000809F8A06BE6100400E8A06EE2485409C
:1011D000075302DFD2018002C201BA20028075BA31
:1011E0002303021263BA2A03021268BA2B02805F39
:1011F000BA2D028055BA4202805FBA43030212AD93
:10120000BA44030213E8BA4503021402BA460302C1
:1012100013FEBA4703021406BA49030213E8BA4C94
:1012200002803BBA4E0302140ABA4F030213EFBA0C
:101230005003021381BA53030212D1BA55030213A9
:10124000F4BA58030213F9021434D205021162D21F
:1012500007021162D208021162D20A021162D20B95
:10126000021162D20C02116274FFB51520300A0B14
:10127000E51B14F8881B8614021162E51B24FEF896
:10128000881B8606088607188E14021162300A0B26
:10129000E51B14F8881B8615021162E51B24FEF875
:1012A000881B8606088607188E15021162300A0A06
:1012B000E51B14F8881B8602800FE51B24FEF888C6
:1012C0001B8603088604188B028A82120D290214D9
:1012D00039E51B24FDF8881B86030886040886056B
:1012E00018188B0C8C0D8D0E8B828C838DF0121840
:1012F00032AB82AC838B1674FFB5150385161520AF
:10130000051DC3E51695145016E514C39516F5147E
:10131000AB141514EB6008758220120D2980F1853D
:101320000C82850D83850EF01216DEFBFA6029AB68
:10133000151515C3E464808BF063F08095F05018A8
:101340008A82120D29AB0CAC0DAD0E0BBB00010C4B
:101350008B0C8C0D8D0E80C7200503021439C3E55C
:101360001695144003021439E514C39516F514AB11
:10137000141514EB7003021439758220120D2980A4
:10138000EEE51B24FDF8881B860308860408860505
:1013900018188B0C8C0D8D0EE50EFB30E7047A438C
:1013A0008013EB546060047A50800AEB30E6047AD4
:1013B0004980027A588A82C002120D2975823A1237
:1013C0000D29758230120D29758278120D29D002EF
:1013D000BA4902800BBA50028006850D82120D5C5C
:1013E000850C82120D5C8051D20975130A804A75F2
:1013F0001308804575130A8040751310803BD20294
:101400008037D2038033D204802FE51B24FDF88877
:101410001B860308860408860518188B0C8C0D8D16
:101420000E8B828C838DF0E511121819A3E5121230
:10143000181980058A82120D292002062003033024
:101440000470E51B24FCF8881B86030886040886C4
:10145000050886061818188B0C8C0D8D0E8E0FE55E
:101460000CE50DE50EE50F8B828C838DF0EE1216E8
:10147000FA74FFB51503751506300427747F550FF0
:10148000FB8B10E510EB2BFB8B10E50E30E70674A1
:10149000014510F510E510246840067499251040A8
:1014A00002D203300306121025021113120DB202EC
:1014B0001113E51370030211137B61300A2BE51B36
:1014C00014F8881BE6FC3395E0FDFEFF8C0C8D0DB7
:1014D0008E0E8F0F20095EAC0C7D007E007F008C8D
:1014E0000C8D0D8E0E8F0F804C300B1FE51B24FCD6
:1014F000F8881B86040886050886060886071818DB
:10150000188C0C8D0D8E0E8F0F802AE51B24FEF893
:10151000881B860408860518ED3395E0FEFF8C0CC9
:101520008D0D8E0E8F0F20090CAC0CAD0D7E007F43
:10153000008E0E8F0F300C43E50C450D450E450F08
:1015400060397408B5130C758230C003120D29D0B0
:101550000380287410B51323758230C003120D293F
:10156000D00330010C758278C003120D29D003809E
:101570000A758258C003120D29D003300925AC0C1E
:10158000AD0DAE0EE50FFF30E717C3E49CFCE49D04
:10159000FDE49EFEE49FFF8C0C8D0D8E0E8F0F8060
:1015A00002C209751600D20D8B00751000C0001222
:1015B0000D73D000200D0DE510C4FCE6FD4CF618AF
:1015C00088038002A6100516B20DE50C450D450EE8
:1015D000450F70D68803E514700375140120061AB0
:1015E000200517E51604FCC39514500E758220C023
:1015F00003120D29D003151480E930090E75822DD0
:10160000C003120D29D00315148024E51660203084
:10161000070E75822BC003120D29D0031514800FFD
:1016200030080C758220C003120D29D00315142038
:10163000051EAC141514C3E5169C50273006047C17
:101640003080027C208C82C003120D29D00380E2FE
:10165000C3E51695145009E514C39516F5148003D7
:101660007514008B00AB161516EB6022B20D200D21
:101670000A08E6C4540FFB8B1080078603740F5BC7
:10168000F510851082C000120D43D00080D72005D0
:1016900003021113AB141514EB70030211137582BE
:1016A00020120D2980EE8A82120D29021113851154
:1016B0008285128322AA82BA0A0810990280FB75D9
:1016C000990D10990280FB8A9922AA82BA61004082
:1016D00009EA24854004758201227582002220F7E0
:1016E0001430F6148883A88220F507E6A883758352
:1016F0000022E280F7E49322E022C0E0F845824530
:101700008345F07009F5F0FBFCFDFE0217C8E823E5
:10171000A2F792E0F8A982AA83D2F7ABF07C007E10
:1017200007C3749798404074FF2EFE740A89F0A492
:10173000F985F082740A8AF0A4FA85F083740A8B22
:10174000F0A4FB740529F9EA3582FAEB3583FB74C2
:101750000035F0FCC3EC13FCEB13FBEA13FAE913BE
:10176000F908EC70EF80BAE8C3947FF88B838EF0B1
:10177000E4FBFCFDFEFF08C3E933F9EA33FAE58335
:1017800033F583EB3BD4FBEC3CD4FCED3DD4FDEED8
:101790003ED4FEEF3FD4FF602D05F074052BD4FB43
:1017A000E43CD4FCE43DD4FDE43ED4FEE43FD4FF6D
:1017B000758204C3EF13FFEE13FEED13FDEC13FC73
:1017C000EB13FBD582EDD8AF785CD0E020E7047650
:1017D0002B8002762D087906E7C4540F4430F608B2
:1017E000B90603762E08E7540F4430F60819B902FB
:1017F000E7764508E5F020E704762B8004762DF4A3
:10180000040875F00A844430F608E5F04430F60820
:10181000E4F690005C75F0402220F71030F6118855
:1018200083A88220F507F6A88375830022F280F74B
:10183000F022AA82AB83ACF07D007E008A828B838B
:101840008CF01216DEFFA3AA82AB83EF60070DBDFA
:1018500000EA0E80E78D828E8322000000000000E7
:00000001FF
