:1000000002002E220000000000000000000000009E
:1000200000000000000000000000000202AB75812B
:100030009A12023FE582600302009A780079007A02
:10004000007B007C007D00EC4D601C88828983E48D
:1000500093A3A882A9838A828B83F0A3AA82AB830D
:100060001CBCFFE31D80E07582007583007C267D4B
:1000700000EC4D600AE4F0A31CBCFFF51D80F27596
:1000800082007583007C007D00EC4D600AE4F0A3E3
:100090001CBCFFF51D80F2120003120D7380FE439D
:1000A0006F6D6D616E643A20257300526573706FD9
:1000B0006E73653A2025730D0A001B5B324A004DB2
:1000C0006574616C20446574656374696E67205261
:1000D0006F626F7420436F6E74726F6C6C65720A1E
:1000E00046696C653A2025730A436F6D70696C65CB
:1000F000643A2025732C2025730A0A00433A5C5584
:10010000736572735C6B6579626F5C446F63756D68
:10011000656E74735C4769744875625C50726F6A8F
:1001200065637432454C45433239315C696E7465A0
:100130006772617465645F66696C65735C45464DA2
:1001400038696E746567726174696F6E2E63004101
:10015000707220203220323032340031303A323660
:100160003A33350041542B44564944413041300D17
:100170000A0041542B5645520D0A0041542B42416E
:1001800055440D0A0041542B524649440D0A004182
:10019000542B445649440D0A0041542B5246430DFA
:1001A0000A0041542B504F57450D0A0041542B4330
:1001B0004C53530D0A004C454420766F6C746167B4
:1001C00065207265663A20312E373835342C206D23
:1001D000696458766F6C74733A2025662C206D69BB
:1001E0006459766F6C74733A202566200D0A007886
:1001F0003D252E32662C204D6C65763A25640079BB
:100200003D252E32662C706F733D25630025630DEE
:100210000A002D2D454D455247454E43592D2D0D74
:100220000A00E282ACE282AC0D0A006D0D0A007495
:10023000696D656F7574200D0A0025730D0A0075D0
:10024000A7007597DE7597AD75FF8075EF0675A7EA
:100250001075C12075A70075A90075A900E5A93022
:10026000E7FB75A90375A903E5A930E7FB43A411D2
:1002700043A60175E10175E20075E34175981075BB
:100280008DE6858D8B53890F438920D28ED2997547
:10029000C800438E1075CAEE75CBF675CEFF75CFCC
:1002A000FFD2ADD2CAD2AF75820022C2CFB28232A3
:1002B00075A700C2EF75B28075BC2075B91E75E8D0
:1002C0000075DF3F75B300D2EF22AA82438E4075DE
:1002D00092B87593FF8592948593957591047B00F0
:1002E000C3EB9A500BE59130E7FB53917F0B80F005
:1002F00075910022AA82AB837C007D00C3EC9AED4D
:100300009B502B7E00BE0400501D7582FAC002C0B7
:1003100003C004C005C0061202CAD006D005D0042E
:10032000D003D0020E80DE0CBC00D10D80CE22AAFC
:10033000828511F005F07401800225E0D5F0FBFB09
:1003400075A720BA0002800ABA0102800FBA021E05
:100350008014EBF4FA52F1EB42D48012EBF4FA522F
:10036000F2EB42D58008EBF4FA52F3EB42CC75A7DE
:1003700000225389F0438901C28C228582BBC2EDE1
:10038000D2EC30EDFD85BD8285BE8322C2EDD2EC7C
:1003900030EDFD85BD8285BE832212037B1211D212
:1003A000AA82AB83ACF0FDC002C003C004C00590BC
:1003B0006C8B75F0537440121242AA82AB83ACF07E
:1003C000FDE58124FCF581E4C0E074FCC0E0747FAD
:1003D000C0E07446C0E08A828B838CF0ED12144238
:1003E000AA82AB83ACF0FDE58124FCF5818A828B87
:1003F000838CF0ED22D2967582281202CAC2962210
:10040000AA828AE0A2E79290A2E69291A2E5929255
:10041000A2E49293C0021203F57582281202CAD098
:10042000028AE0A2E39290A2E29291A2E19292A2C9
:10043000E092930203F5AA82D2978A821204009076
:1004400000020202F4AA82C2978A8212040090007B
:10045000050202F4C2969000141202F4758233125F
:100460000445758233120445758232120445758243
:100470002812044575820C12044575820112044548
:100480009000140202F4AA82AB83ACF07402B5238C
:10049000047DC080027D808D82C002C003C0041232
:1004A00004459000051202F4D004D003D0027D0070
:1004B0007E00ED2AFFEE3BF88C018F82888389F065
:1004C000121151FF60208F82C002C003C004C0051A
:1004D000C006120436D006D005D004D003D0020DD9
:1004E000BD00CF0E80CC3000248D028E03C3EA9471
:1004F00010EB648094805015758220C002C00312F6
:100500000436D003D0020ABA00E30B80E022AA82AC
:10051000AB83ACF0FDC024C025C026C0278A828BE7
:10052000838CF0ED121422AA82AB83ACF0FDE5813E
:1005300024FCF581C002C003C004C005C02CC02D3E
:10054000C02EC02F8530828531838532F0E533128D
:100550001422AE82AF83A8F0F9E58124FCF581D0A6
:1005600005D004D003D002C006C007C000C0018A75
:10057000828B838CF0ED121242AA82AB83ACF0FD29
:10058000E58124FCF581C002C003C004C005C0247D
:10059000C025C026C027852882852983852AF0E5C5
:1005A0002B121422AE82AF83A8F0F9E58124FCF56A
:1005B00081D005D004D003D002C006C007C000C05F
:1005C000018A828B838CF0ED121442AA82AB83AC39
:1005D000F0FDE58124FCF581C02CC02DC02EC02F7C
:1005E0008A828B838CF0ED1212E5AA82AB83ACF089
:1005F000FDE58124FCF5818A828B838CF0ED2285D8
:10060000823A85833B85F03CAD37AE38AF398D8279
:100610008E838FF0121151F53DA3121151F53EA3B7
:10062000121151F53FA3121151F54074042DFDE450
:100630003EFE8D828E838FF0121151F541A312116F
:1006400051F542A3121151F543A3121151F54485FE
:100650003A82853B83853CF0121151F545A3121176
:1006600051F546A3121151F547A3121151F54874E3
:1006700004253AFCE4353BFDAE3C8C828D838EF044
:10068000121151F549A3121151F54AA3121151F556
:100690004BA3121151F54CAC34AD35AE368C828D76
:1006A000838EF0121151FFA3121151FAA3121151AE
:1006B000FBA3121151F8C004C005C006C03DC03EE6
:1006C000C03FC0408F828A838BF0E8121212AA8248
:1006D000E58124FCF581D006D005D004EA606C7574
:1006E0002400752500752600752700853D28853E68
:1006F00029853F2A85402B752C00752D00752E48C5
:10070000752FC27530007531007532007533008564
:1007100045828546838547F0E548C004C005C0068C
:1007200012050EAA82AB83AFF0F8D006D005D00434
:100730008C828D838EF0EA121374A3EB121374A3D0
:10074000EF121374A3E8121374806A853D24853E6A
:1007500025853F26854027752833752933752A530B
:10076000752B40752C00752D00752E00752F0075AA
:1007700030007531007532487533428545828546B3
:10078000838547F0E548C004C005C00612050EAADF
:1007900082AB83AFF0F8D006D005D0048C828D8375
:1007A0008EF0EA121374A3EB121374A3EF121374F6
:1007B000A3E812137474042CFCE43DFB8E028C82BB
:1007C0008B838AF0121151FDA3121151FEA3121155
:1007D00051FFA3121151F8C002C003C004C041C0B0
:1007E00042C043C0448D828E838FF0E8121212AD56
:1007F00082E58124FCF581D004D003D002ED606A4B
:10080000752400752500752600752700854128850B
:10081000422985432A85442B752C00752D00752EA1
:1008200048752FC275300075310075320075330080
:10083000854982854A83854BF0E54CC002C003C0E0
:100840000412050EAD82AE83AFF0F8D004D003D011
:10085000028C828B838AF0ED121374A3EE12137450
:10086000A3EF121374A3E802137485412485422573
:10087000854326854427752833752933752A537592
:100880002B40752C00752D00752E00752F007530CE
:1008900000753100753248753342854982854A8337
:1008A000854BF0E54CC002C003C00412050EAD82BA
:1008B000AE83AFF0F8D004D003D0028C828B838A51
:1008C000F0ED121374A3EE121374A3EF121374A3BA
:1008D000E8021374AA82AB83ACF0FD75A720759370
:1008E0000C75C8107594008A118B128C138D14909E
:1008F000A20075F04A740412116DAA82AB83ACF0A9
:10090000FD751118E4F512F513F5148A828B838CAA
:10091000F0ED12116DAA82AB83ACF0FDE4C39AFA3C
:10092000E49BFB74019CE49D8A958B96D2C9439409
:100930004075A70022AA8275A72010C90280FB8AF1
:100940009275A70022AA82AB83ACF08A828B838C3B
:10095000F0121151FD60188D82C002C003C0041254
:100960000935D004D003D0020ABA00DF0B80DC22A4
:1009700075A72010C80280FB53C83F85928275A7D7
:10098000002275A7207A007B0020C82675A7007575
:100990008214C002C0031202CAD003D00275A7207D
:1009A0000ABA00010BBAA8E1BB61DE75A700758227
:1009B0000A22C2C853C83F85928275A70022AA8224
:1009C000AB83ACF0C002C003C004120982AD82D078
:1009D00004D003D002BD0A0A8A828B838CF0E40221
:1009E00013748A828B838CF0ED121374A3AA82ABEA
:1009F0008380D175A720A2C875A70022AA82AB83E5
:100A00007C007D00C3EC9AED9B50477E00BE040045
:100A10005039C002C003C004C005C0061209F3E487
:100A200033D006D005D004D003D0026001227582F5
:100A3000FAC002C003C004C005C0061202CAD00634
:100A4000D005D004D003D0020E80C20CBC00B50D7E
:100A500080B222AA82AB83ACF0C002C003C004C043
:100A600002C003C004749FC0E07400C0E07480C082
:100A7000E0121353E58124FAF581C2A0900005121B
:100A800002F4D004D003D0028A828B838CF0120946
:100A90004590007775F0401209BE90000A1202F4EA
:100AA000D2A07477C0E07400C0E07440C0E074ABC2
:100AB000C0E07400C0E07480C0E0121353E58124EC
:100AC000FAF58122AA82AB83ACF0FDEA2AF511EB9C
:100AD00033F512EC33F513ED33F51490A20075F0F5
:100AE0004A740412116DAA82AB83ACF0FDC2CAE451
:100AF000C39AFAE49BFB74019CE49D8ACA8BCBD217
:100B0000CA22AA82AB83C3EA94FBEB6480947F5031
:100B100003020BDEC374059AE464808BF063F080FB
:100B200095F05003020BDEC3E512942DE5136480AB
:100B3000948040057C41020D70C3E512941EE513BC
:100B4000648094804016742D9512E464808513F0BF
:100B500063F08095F040057C42020D70C3E512946D
:100B600005E513648094804016741E9512E4648039
:100B70008513F063F08095F040057C43020D70C34F
:100B800074D39512747F8513F063F08095F040055F
:100B90007C44020D70C3E51294D3E5136480947F06
:100BA000401574E29512747F8513F063F08095F020
:100BB00040057C45020D70C3E51294E2E5136480A4
:100BC000947F401574FB9512747F8513F063F08059
:100BD00095F040057C46020D707C5A020D70C3EA08
:100BE0009428EB64809480404FE5129405E51364EB
:100BF00080948040057C4B020D70C374FB95127489
:100C00007F8513F063F08095F040057C4D020D70F8
:100C1000C3E51294FBE5136480947F401674059538
:100C200012E464808513F063F08095F040057C4702
:100C3000020D707C5A020D70C374D89A747F8BF0C9
:100C400063F08095F0405A74FB9512747F8513F021
:100C500063F08095F0E433FD70057C4E020D70C3A7
:100C6000E5129405E5136480948040057C4C020DE8
:100C700070ED70057C4E020D70C3E51294FBE51318
:100C80006480947F401674059512E464808513F0A7
:100C900063F08095F040057C49020D707C5A020D8E
:100CA00070C3EA9405EB64809480405E74289AE4F3
:100CB00064808BF063F08095F0404FE51294FBE583
:100CC000136480947F401674059512E46480851344
:100CD000F063F08095F040057C48020D70C3E5128A
:100CE0009405E5136480948040057C4B020D70C32D
:100CF00074FB9512747F8513F063F08095F04005C6
:100D00007C4D020D707C5A020D70C3EA94D8EB64DE
:100D100080947F405974FB9A747F8BF063F08095C8
:100D2000F0404BE51294FBE5136480947F4015740A
:100D3000059512E464808513F063F08095F040041B
:100D40007C4A802CC3E5129405E5136480948040AE
:100D5000047C4C801BC374FB9512747F8513F06375
:100D6000F08095F040047C4E80067C5A80027C5ACC
:100D70008C82227A007B00C002C0031204549001CE
:100D8000F41202F474BAC0E07400C0E07480C0E0F1
:100D9000121353158115811581745BC0E07401C075
:100DA000E07480C0E0744FC0E07401C0E07480C0A3
:100DB000E074FCC0E07400C0E07480C0E074BFC0A8
:100DC000E07400C0E07480C0E0121353E58124F4A5
:100DD000F581902580E4F5F01208D4751104758230
:100DE0000112032F75110575820112032F1202B033
:100DF00090016475F080120A5390017275F08012B0
:100E00000A5390017B75F080120A5390018575F0AA
:100E100080120A5390018F75F080120A5390019945
:100E200075F080120A539001A275F080120A539057
:100E300001AC75F080120A5375820A12039AAC82D3
:100E4000AD83AEF0FF8C5D8D5E8E5F8F6075820B23
:100E500012039AAC82AD83AEF0FF8C618D628E631B
:100E60008F64C05DC05EC05FC060C004C005C006C6
:100E7000C00774B6C0E07401C0E07480C0E0121313
:100E800053E58124F5F581D003D002900032C002F1
:100E9000C0031202F475820A12039AAC82AD83AECB
:100EA000F0FF8C4D8D4E8E4F8F5075820B12039A32
:100EB000AC82AD83AEF0FF8C518D528E538F547542
:100EC000345575350075364075375D7538007539A0
:100ED0004090004D75F0401205FF85558285568380
:100EE0008557F0E5581211DEAC82AD8385598285B5
:100EF0005A83855BF0E55CC004C0051211DE858273
:100F000012858313D005D0048C828D83120B02AC22
:100F100082D003D002C002C003C004C002C003C01C
:100F200055C056C057C05874EFC0E07401C0E0749B
:100F300080C0E07400C0E07400C0E0E4C0E01213C0
:100F4000DCE58124F4F581752301D2009000007561
:100F5000F000120486D004EC3395E0FDC004C00517
:100F6000C004C005C059C05AC05BC05C74FFC0E07B
:100F70007401C0E07480C0E07411C0E07400C0E08F
:100F8000E4C0E01213DCE58124F4F581752302D27C
:100F90000090001175F000120486740DC0E0740218
:100FA000C0E07480C0E07422C0E07400C0E0E4C01F
:100FB000E01213DCE58124F8F58190002275F00041
:100FC000120945D003D00220A13A90000AC002C005
:100FD000031202F4D003D00220A12930A1FDC002E7
:100FE000C0037412C0E07402C0E07480C0E0121349
:100FF0005315811581158190022275F080120945E3
:10100000D003D00290000AC002C0031202F4900282
:101010002B75F08012094575822E12142DD003D045
:10102000027C007D00C002C003C004C0051209F3A9
:10103000E433D005D004D003D0027043900001C047
:1010400002C003C004C0051209FCD005D004D003BF
:10105000D0020CBC00010DC3EC94F4ED64809481CB
:1010600040C3C002C003742FC0E07402C0E07480AB
:10107000C0E0121353158115811581D003D002C031
:1010800002C0031209F3D003D0024003020E8B907A
:10109000007775F040C002C0031209BE7477C0E04B
:1010A0007400C0E07440C0E0743AC0E07402C0E074
:1010B0007480C0E0121353E58124FAF58190007723
:1010C00075F040121561AC82AD83D003D002BC0232
:1010D00005BD00028003020E8B78778604BC7A027D
:1010E0008064BC611090012CE4F5F0120AC47A010E
:1010F0007B00020E8BBC6210900190E4F5F0120AA6
:10110000C47A027B00020E8BBC63109001F4E4F5FC
:10111000F0120AC47A037B00020E8BBC64109002AA
:1011200058E4F5F0120AC47A047B00020E8BBC6509
:10113000028003020E8B9002BCE4F5F0120AC47A1E
:10114000057B00020E8BC2CAC2827A007B00020EAF
:101150008B20F71430F6148883A88220F507E6A8C0
:101160008375830022E280F7E49322E022FB7A2059
:10117000E4FCFDFEFFE5822582F582E58333F583FD
:10118000E5F033F5F0EB33FB4017DAE98042E58216
:101190002582F582E58333F583E5F033F5F0EB3313
:1011A000FBEC33FCED33FDEE33FEEF33FFEC95113A
:1011B000ED9512EE9513EF95144013EC9511FCED9F
:1011C0009512FDEE9513FEEF9514FF438201DABEF2
:1011D000EB22E4AC83AB82FAF9748E0215921215FD
:1011E0009C700AE582458345F0700122E430D112FB
:1011F000F4700BE5F0F47006E58330E7012290808F
:101200000022700AE5F07006E58320E70122907F56
:10121000FF22FFA8811818121615D2D133E6400715
:1012200030E70B7582002220E70675820122C2D1C9
:101230001215F7E97003F5822220D101B3E433F5EA
:1012400082221216C2BC0003021661EF60FA30D58A
:1012500002B2D1E583B4FF03021677E582B4FF033F
:10126000021677258340072482400B0216612483EF
:10127000145003021677F582EA8DF0A4A8F0EA8EE6
:10128000F0A428F8E435F0F9EB8DF0A428E935F066
:10129000F9E433CA8FF0A429F9EA35F0FAEBF88EB5
:1012A000F0A429F9EA35F0FAE433FBEC8DF0A42937
:1012B000F9EA35F0FAE43BFBE88FF0A42AFAEB35C3
:1012C000F0FBE433CCFD8EF0A42AFAEB35F0FBE41E
:1012D0003CFCED8FF0A42BFBEC35F0FC20E7031277
:1012E000168F0216401216C27900E583B58202807D
:1012F0000D50031216F0E583C3958212170AE5D04C
:10130000C465D020E117EA2DFAEB3EFBEC3FFC5020
:1013100009740112170AEC4480FC021640C3EA9DCE
:10132000FAEB9EFBEC9FFC500FC3E499F9E49AFAA8
:10133000E49BFBE49CFCB2D112168F02164002140F
:101340002D85827385837485F07585107690133EA4
:10135000021B2CC008858108E50824FBF576E5080A
:1013600024FBF8867308867408867590133E121B5A
:101370002CD0082220F71030F6118883A88220F59F
:1013800007F6A88375830022F280F7F022AA82ABC9
:1013900009AC0AAD0B8B828C838DF0EA12137405B5
:1013A00009E4B50902050A2285820985830A85F0C8
:1013B0000B850C73850D74850E75850F7690138DD6
:1013C000121B2CAA82AB83AC09AD0AAE0B8C828DAA
:1013D000838EF0E41213748A828B8322C008858185
:1013E00008E50824F8F576E50824FBF88609088660
:1013F0000A08860BE50824F8F886730886740886C0
:101400007590138D121B2CAA82AB83AC09AD0AAE6A
:101410000B8C828D838EF0E41213748A828B83D0BE
:101420000822A8811818C6B2E7C60212E5AA82BA35
:101430000A0810990280FB75990D10990280FB8AA9
:1014400099221216C230D502B2D1BF0009BC0003E6
:10145000021684021677BC0003021661E583B4FF0E
:101460000BE582B4FF03021684021661E582B4FF25
:1014700003021677C395835007247F400B02166141
:101480002480145003021677C0E0E4CCCBCAF98D57
:10149000118E128F13EF54F0C4F514758306851462
:1014A000F0EB84F582E9C4F9EAC4FAEBC4FBEC542E
:1014B0000FC47803D6FC18EBD6FB18EAD6FA85825F
:1014C000F0EDA4A8F0FD8582F0EEA428FEE435F04E
:1014D000F88582F0EFA428FFE435F0F8E99DF9EAF9
:1014E0009EFAEB9FFBEC98FCAD11AE12AF1330E708
:1014F000101582E92DF9EA3EFAEB3FFBE43CFC8053
:10150000EDC082D58398C3E933F9EA33FAEB33FBB4
:10151000EC33FCC3E99DEA9EEB9FEC9400B3E4132B
:10152000F9D002D0E0C44AFAD003D0E0C44BFBD0DB
:1015300004D0E0F5F0540FC44CFCD082158230F496
:101540000FD3EC13FCEB13FBEA13FAE913F9058252
:10155000E930E70A74012AFAE43BFBE43CFC02169A
:1015600058AA82AB83ACF07D007E008A828B838C8C
:10157000F0121151FFA3AA82AB83EF60070DBD00EB
:10158000EA0E80E78D828E8322FCABF0AA83A982CB
:10159000749EC2D1F58212168F0216401220D9C352
:1015A000749E95824039790012170A30D126E9F4E9
:1015B0002401F582EAF43400F583EBF43400F5F00D
:1015C000ECF43400700AE582458345F0700122E4B2
:1015D00030E70F22EC20E71489828A838BF02230D7
:1015E000D10AE4F582F583F5F074802274FFF58268
:1015F000F583F5F0747F227901AA82E68F82B582A5
:101600001318E6B5F00E18E6B5830918E68A82B518
:101610008202790022B4800FE5F0700AE58370063B
:10162000E58270027F00EFB6801518B6001018B67C
:10163000000B18B6000608080876002208080822E1
:10164000B98003EA13B34010EA2401FAE43BFBE457
:101650003CFC50047C800582BC000EBB000BBA0031
:1016600008E4F5F0F583F58222A2D1E582138CF02F
:1016700092F78B838A8222E4F583F58275F080F4F9
:10168000A2D11322E4F583F58275F0C0747F22782D
:1016900004EC7011E58224F8500AF582E4C9CACB43
:1016A000FCD8EF22EC7820058220E713D5820122B6
:1016B000C3E933F9EA33FAEB33FBEC33FCD8EA1530
:1016C0008222AA82AB83A2F73392D16002D2F7F5CD
:1016D00082ACF0E58124F9F8E6FD08E6FE0886F024
:1016E00008E6A2F73392D56002D2F7F583AFF02275
:1016F000E582C583F582A2D133A2D592D11392D5CA
:10170000ECCFFCEBCEFBEACDFA226040F82582500C
:101710000274FFF582E824F8501ECCCBCAF9E4CC61
:1017200024F85014CBCAF9E4CB24F8500BCAF9E4DE
:10173000CA24F8500379002224086010F8C3EC137F
:10174000FCEB13FBEA13FAE913F9D8F122AA82742D
:101750005EC0E07417C0E0C065C0668A8222056C76
:10176000E4B56C02056D22AA8274302AFA24C650B0
:101770000A74072AFA3001034302208A8202174DB5
:10178000E582FAC4540FF582C002121767D00274C2
:101790000F5AF582021767AA67AB68AC69AD6AAEEB
:1017A0006B757220EE2EFEED235401FF4206EA2AED
:1017B000FAEB33FBEC33FCED33FDC3EE956E4008E2
:1017C000EEC3956EFE430201D572D98A678B688C91
:1017D000698D6A8E6B227897E624D075F00AA4FA98
:1017E0007898E624D02AFA78968603BB2D04C3E4C1
:1017F0009AFA756E01C3E464808AF063F08095F014
:1018000050297572038A0374F62572401C056EE533
:101810007214248BF8E572248BF98704A604772EC2
:101820001BEBFA6004057280DE8B02EA30E70D786C
:101830008C8603788DA603788C762E0AE570600A74
:10184000E57004FB256EF56E8005300C02056E78A0
:101850008B8603E4BB2D0104FB70062007033008D0
:1018600002056E30050302191D300657EB600C753A
:10187000822DC00212174DD002801C30070C7582D9
:101880002BC00212174DD002800D30080A7582203D
:10189000C00212174DD002788C8604BC2E0C7582C3
:1018A00030C00212174DD002156FAC6F156FC3E533
:1018B0006E9C4003021961758230C00212174DD030
:1018C0000280E7AC6F156FC3E56E9C500C758220EB
:1018D000C00212174DD00280EA788B8604BC2D0C12
:1018E00075822DC00212174DD002801C30070C7576
:1018F000822BC00212174DD002800D30080A75826B
:1019000020C00212174DD002788C8604BC2E52756E
:101910008230C00212174DD002156F8044EB600E6A
:1019200075822DC00212174DD002156F802030072E
:101930000E75822BC00212174DD002156F800F302A
:10194000080C758220C00212174DD002156F788CDA
:101950008603BB2E0C758230C00212174DD00215C3
:101960006F757201C20EE572248BF88603BB4503C6
:10197000021A1EBB2E348A03C3E464808BF063F02A
:101980008095F0500F758230C00312174DD0031BA5
:101990008B0280E48B02D20EE5707038200C0302BB
:1019A0001A1E75822E12174D8074300E278A03EB93
:1019B00030E71FC3E464808570F063F08095F050D9
:1019C0000C758230C00312174DD00315700B8B02BB
:1019D00080DD8B02300E0EC3E464808570F063F00E
:1019E0008095F05021E572248BF886038B82C0022B
:1019F00012174DD002300E0EE572248BF88603BB11
:101A00002E0280021570156FC3E464808570F06348
:101A1000F08095F04003200E050572021966C3E4BC
:101A200064808570F063F08095F0500A7582301202
:101A3000174D157080E830050FAA6F156FEA600822
:101A400075822012174D80F122E5707003300C0D65
:101A500074072570FAE56FC39AF56F8006E56F2469
:101A6000FAF56F757200788B8602BA2B0F20070C7F
:101A7000788B7620200805757201056F200519AA5C
:101A80006FC3E464808AF063F08095F0500A758239
:101A90002012174D156F80E7C20EE572248BF88671
:101AA00002BA00028069BA451F3001027665C3E4BC
:101AB00064808570F063F08095F0500A7582301272
:101AC000174D157080E8D20EC3E5729402E433FA24
:101AD0007014EA700EC3E464808570F063F0809542
:101AE000F04003300E16E572248BF886028A8212CB
:101AF000174DE57224FD50121570800E7402B572F8
:101B000009300C0675822E12174D0572021A9A3092
:101B10000519AA6FC3E464808AF063F08095F050E1
:101B20000A75822012174D156F80E7228582658520
:101B30008366E4F56CF56DAA73AB74AC758A828B21
:101B4000838CF0121151FD74012AF573E43BF57496
:101B50008C75EDFA70030220D2BA250280030220B0
:101B6000CAC205C206C207C208C209C20AC20BC263
:101B70000CC202C203C204756E00756F007570FF5F
:101B8000AB73AC74AD758B828C838DF0121151FAEE
:101B9000A3AB82AC838B738C748D75BA25078A8254
:101BA00012174D80928A06BE3000402E8A06EE241F
:101BB000C6402774FFB57013E56F75F00AA4FEEAFE
:101BC00024D02EF56F70BFD20680BBE57075F00A89
:101BD000A4FEEA24D02EF57080ACBA2E0A74FFB5AC
:101BE00070A4757000809F8A06BE6100400E8A0650
:101BF000EE248540075302DFD2018002C201BA20E1
:101C0000028075BA2303021C87BA2A03021C8CBA0D
:101C10002B02805FBA2D028055BA4202805FBA4320
:101C200003021CD1BA4403021E0CBA4503021E264D
:101C3000BA4603021E22BA4703021E2ABA49030209
:101C40001E0CBA4C02803BBA4E03021E2EBA4F0342
:101C5000021E13BA5003021DA5BA5303021CF5BAA3
:101C60005503021E18BA5803021E1D021E58D20543
:101C7000021B86D207021B86D208021B86D20A02EA
:101C80001B86D20B021B86D20C021B8674FFB5701A
:101C900020300A0BE57614F88876866F021B86E5FD
:101CA0007624FEF888768606088607188E6F021B53
:101CB00086300A0BE57614F888768670021B86E576
:101CC0007624FEF888768606088607188E70021B32
:101CD00086300A0AE57614F888768602800FE57663
:101CE00024FEF888768603088604188B028A8212FE
:101CF000174D021E5DE57624FDF88876860308867A
:101D00000408860518188B678C688D698B828C8314
:101D10008DF0121561AB82AC838B7174FFB57003CB
:101D200085717020051DC3E571956F5016E56FC371
:101D30009571F56FAB6F156FEB6008758220121708
:101D40004D80F18567828568838569F0121151FBAA
:101D5000FA6029AB701570C3E464808BF063F08087
:101D600095F050188A8212174DAB67AC68AD690BBD
:101D7000BB00010C8B678C688D6980C7200503024E
:101D80001E5DC3E571956F4003021E5DE56FC3954F
:101D900071F56FAB6F156FEB7003021E5D758220DE
:101DA00012174D80EEE57624FDF8887686030886C6
:101DB0000408860518188B678C688D69E569FB3007
:101DC000E7047A438013EB546060047A50800AEB96
:101DD00030E6047A4980027A588A82C00212174D8E
:101DE00075823A12174D75823012174D758278122E
:101DF000174DD002BA4902800BBA5002800685689E
:101E0000821217808567821217808051D209756E01
:101E10000A804A756E088045756E0A8040756E109E
:101E2000803BD2028037D2038033D204802FE57604
:101E300024FDF88876860308860408860518188B22
:101E4000678C688D698B828C838DF0E56C121374BE
:101E5000A3E56D12137480058A8212174D200206C5
:101E6000200303300470E57624FCF88876860308A6
:101E700086040886050886061818188B678C688DF6
:101E8000698E6AE567E568E569E56A8B828C838D12
:101E9000F0EE1220EB74FFB5700375700630042766
:101EA000747F556AFB8B6BE56BEB2BFB8B6BE569EA
:101EB00030E7067401456BF56BE56B2468400674EA
:101EC00099256B4002D203300306121A49021B37D0
:101ED0001217D6021B37E56E7003021B377B90305A
:101EE0000A2BE57614F88876E6FC3395E0FDFEFFD4
:101EF0008C678D688E698F6A20095EAC677D007E75
:101F0000007F008C678D688E698F6A804C300B1F54
:101F1000E57624FCF8887686040886050886060897
:101F200086071818188C678D688E698F6A802AE575
:101F30007624FEF88876860408860518ED3395E049
:101F4000FEFF8C678D688E698F6A20090CAC67ADC7
:101F5000687E007F008E698F6A300C43E5674568B4
:101F60004569456A60397408B56E0C758230C003E6
:101F700012174DD00380287410B56E23758230C0BF
:101F80000312174DD00330010C758278C00312176D
:101F90004DD003800A758258C00312174DD003300C
:101FA0000925AC67AD68AE69E56AFF30E717C3E4A1
:101FB0009CFCE49DFDE49EFEE49FFF8C678D688E93
:101FC000698F6A8002C209757100D20D8B00756B32
:101FD00000C000121797D000200D0DE56BC4FCE681
:101FE000FD4CF61888038002A66B0571B20DE567FB
:101FF00045684569456A70D68803E56F7003756F5B
:102000000120061A200517E57104FCC3956F500ED8
:10201000758220C00312174DD003156F80E9300977
:102020000E75822DC00312174DD003156F8024E565
:1020300071602030070E75822BC00312174DD0033C
:10204000156F800F30080C758220C00312174DD019
:1020500003156F20051EAC6F156FC3E5719C5027EB
:102060003006047C3080027C208C82C00312174D25
:10207000D00380E2C3E571956F5009E56FC3957198
:10208000F56F8003756F008B00AB711571EB6022EB
:10209000B20D200D0A08E6C4540FFB8B6B80078637
:1020A00003740F5BF56B856B82C000121767D0005D
:1020B00080D7200503021B37AB6F156FEB7003024F
:1020C0001B3775822012174D80EE8A8212174D023F
:1020D0001B37856C82856D8322AA82AB83A2F7337E
:1020E00092D16002D2F7F582ACF022C0E0F84582CE
:1020F000458345F07009F5F0FBFCFDFE0221B9E8CF
:1021000023A2F792E0F8A982AA83D2F7ABF07C0071
:102110007E07C3749798404074FF2EFE740A89F0BE
:10212000A4F985F082740A8AF0A4FA85F083740A0F
:102130008BF0A4FB740529F9EA3582FAEB3583FBB1
:10214000740035F0FCC3EC13FCEB13FBEA13FAE963
:1021500013F908EC70EF80BAE8C3947FF88B838E94
:10216000F0E4FBFCFDFEFF08C3E933F9EA33FAE5CE
:102170008333F583EB3BD4FBEC3CD4FCED3DD4FD49
:10218000EE3ED4FEEF3FD4FF602D05F074052BD456
:10219000FBE43CD4FCE43DD4FDE43ED4FEE43FD477
:1021A000FF758204C3EF13FFEE13FEED13FDEC1376
:1021B000FCEB13FBD582EDD8AF788BD0E020E704A1
:1021C000762B8002762D087906E7C4540F4430F64A
:1021D00008B90603762E08E7540F4430F60819B9FB
:1021E00002E7764508E5F020E704762B8004762D9B
:1021F000F4040875F00A844430F608E5F04430F63B
:1022000008E4F690008B75F040220000000000000A
:00000001FF
