:1000000002002E220000000000000000000000009E
:10002000000000000000000000000002025E758178
:10003000941201F2E582600302009A780079007A56
:10004000007B007C007D00EC4D601C88828983E48D
:1000500093A3A882A9838A828B83F0A3AA82AB830D
:100060001CBCFFE31D80E07582007583007C047D6D
:1000700000EC4D600AE4F0A31CBCFFF51D80F27596
:1000800082007583007C007D00EC4D600AE4F0A3E3
:100090001CBCFFF51D80F2120003120EA880FE4367
:1000A0006F6D6D616E643A20257300526573706FD9
:1000B0006E73653A2025730D0A001B5B324A0041BE
:1000C000444320746573742070726F6772616D0AA7
:1000D00046696C653A2025730A436F6D70696C65DB
:1000E000643A2025732C2025730A0A00433A5C5594
:1000F000736572735C726F68616E5C446F63756D7B
:10010000656E74735C456C6563203239315C507286
:100110006F6A65637420325C50726F6A6563743213
:10012000454C45433239315C696E74656772617460
:1001300065645F66696C65735C45464D38696E74CD
:100140006567726174696F6E2E63004D6172203352
:100150003120323032340031373A35323A313500DD
:100160000D0A4A44592D343020746573740D0A0009
:1001700041542B44564944413041300D0A0041540A
:100180002B5645520D0A0041542B424155440D0A4D
:100190000041542B524649440D0A0041542B445609
:1001A00049440D0A0041542B5246430D0A00415464
:1001B0002B504F57450D0A0041542B434C53530DC0
:1001C0000A00783D252E346620793D252E346620A0
:1001D000706F733D25630D0A0025630D0A006D0DD8
:1001E0000A0074696D656F7574200D0A0025730D22
:1001F0000A0075A7007597DE7597AD75FF8075EFDE
:100200000675A71075C12075A70075A90075A9000E
:10021000E5A930E7FB75A90375A903E5A930E7FB5C
:1002200043A41143A60175E10175E20075E3417530
:100230009810758DE6858D8B53890F438920D28E5A
:10024000D29975C800438E1075CAEE75CBF675CE7F
:10025000FF75CFFFD2ADD2CAD2AF75820022C2CF16
:10026000B2823275A700C2EF75B28075BC2075B935
:100270001E75E80075DF3F75B300D2EF22AA8243F6
:100280008E407592B87593FF85929485939575917C
:10029000047B00C3EB9A500BE59130E7FB53917F51
:1002A0000B80F075910022AA82AB837C007D00C395
:1002B000EC9AED9B502B7E00BE0400501D7582FA17
:1002C000C002C003C004C005C00612027DD006D023
:1002D00005D004D003D0020E80DE0CBC00D10D800E
:1002E000CE22AA828511F005F07401800225E0D5A6
:1002F000F0FBFB75A720BA0002800ABA0102800F4A
:10030000BA021E8014EBF4FA52F1EB42D48012EBE5
:10031000F4FA52F2EB42D58008EBF4FA52F3EB42D6
:10032000CC75A700225389F0438901C28C228582B3
:10033000BBC2EDD2EC30EDFD85BD8285BE8322C20D
:10034000EDD2EC30EDFD85BD8285BE832212032EF9
:10035000121175AA82AB83ACF0FDC002C003C004C9
:10036000C005906C8B75F0537440121215AA82ABC5
:1003700083ACF0FDE58124FCF581E4C0E074FCC0B1
:10038000E0747FC0E07446C0E08A828B838CF0ED1D
:1003900012143CAA82AB83ACF0FDE58124FCF5810C
:1003A0008A828B838CF0ED22D29675822812027D90
:1003B000C29622AA828AE0A2E79290A2E69291A235
:1003C000E59292A2E49293C0021203A875822812C9
:1003D000027DD0028AE0A2E39290A2E29291A2E191
:1003E0009292A2E092930203A8AA82D2978A8212E2
:1003F00003B39000020202A7AA82C2978A82120364
:10040000B39000050202A7C2969000141202A775CD
:1004100082331203F87582331203F87582321203A5
:10042000F87582281203F875820C1203F8758201A0
:100430001203F89000140202A7AA82AB83ACF074F6
:1004400002B523047DC080027D808D82C002C0037E
:10045000C0041203F89000051202A7D004D003D004
:10046000027D007E00ED2AFFEE3BF88C018F828832
:100470008389F01210F4FF60208F82C002C003C095
:1004800004C005C0061203E9D006D005D004D0038D
:10049000D0020DBD00CF0E80CC3000248D028E0323
:1004A000C3EA9410EB648094805015758220C002DA
:1004B000C0031203E9D003D0020ABA00E30B80E0C4
:1004C00022AA82AB83ACF0FDC024C025C026C02781
:1004D0008A828B838CF0ED12141CAA82AB83ACF061
:1004E000FDE58124FCF581C002C003C004C005C045
:1004F0002CC02DC02EC02F8530828531838532F0EF
:10050000E53312141CAE82AF83A8F0F9E58124FC18
:10051000F581D005D004D003D002C006C007C000CA
:10052000C0018A828B838CF0ED121215AA82AB83F4
:10053000ACF0FDE58124FCF581C002C003C004C01D
:1005400005C024C025C026C027852882852983852B
:100550002AF0E52B12141CAE82AF83A8F0F9E581D6
:1005600024FCF581D005D004D003D002C006C0071A
:10057000C000C0018A828B838CF0ED12143CAA82E9
:10058000AB83ACF0FDE58124FCF581C02CC02DC00F
:100590002EC02F8A828B838CF0ED1212B8AA82AB08
:1005A00083ACF0FDE58124FCF5818A828B838CF09D
:1005B000ED22AA82AB83ACF01210F4FDA31210F46A
:1005C000FEA31210F4FFA31210F4F8C002C003C07F
:1005D0000474FDC0E07487C0E074E4C0E0743FC000
:1005E000E08D828E838FF0E812141CAD82AE83AF53
:1005F000F0F8E58124FCF581D004D003D0028A8292
:100600008B838CF0ED12136EA3EE12136EA3EF1218
:10061000136EA3E812136E74042AFAE43BFB8A8279
:100620008B838CF01210F4FDA31210F4FEA31210B1
:10063000F4FFA31210F4F8C002C003C00474FDC09C
:10064000E07487C0E074E4C0E0743FC0E08D828E47
:10065000838FF0E812141CAD82AE83AFF0F8E58111
:1006600024FCF581D004D003D0028A828B838CF0E5
:10067000ED12136EA3EE12136EA3EF12136EA3E826
:1006800002136EAA82AB83ACF01210F4F537A312FA
:1006900010F4F538A31210F4F539A31210F4F53A5A
:1006A00074042AFAE43BFB8A828B838CF01210F4E8
:1006B000F53BA31210F4F53CA31210F4F53DA31280
:1006C00010F4F53EAA34AB35AC368A828B838CF0BD
:1006D0001210F4F9A31210F4FDA31210F4FEA312E9
:1006E00010F4FFC002C003C0047433C0E0C0E07463
:1006F00013C0E07440C0E089828D838EF0EF121148
:10070000E5AD82E58124FCF581D004D003D002ED73
:10071000606C752400752500752600752700752806
:1007200033752933752A13752B40752C00752D00F0
:10073000752E48752FC27530007531007532007501
:1007400033008537828538838539F0E53AC002C0A9
:1007500003C0041204C1AD82AE83AFF0F8D004D060
:1007600003D0028A828B838CF0ED12136EA3EE12FB
:10077000136EA3EF12136EA3E812136E806A752432
:10078000337525337526137527407528337529333E
:10079000752A53752B40752C00752D00752E00752C
:1007A0002F0075300075310075324875334285373A
:1007B000828538838539F0E53AC002C003C004124F
:1007C00004C1AD82AE83AFF0F8D004D003D0028A6A
:1007D000828B838CF0ED12136EA3EE12136EA3EFD7
:1007E00012136EA3E812136E74042AFAE43BFB8A18
:1007F000828B838CF01210F4FDA31210F4FEA3126E
:1008000010F4FFA31210F4F8C002C003C004746611
:10081000C0E0C0E07416C0E07440C0E08D828E83FA
:100820008FF0E81211E5AD82E58124FCF581D0045A
:10083000D003D002ED606A7524007525007526008E
:10084000752700752866752966752A16752B4075FB
:100850002C00752D00752E48752FC275300075312E
:1008600000753200753300853B82853C83853DF001
:10087000E53EC002C003C0041204C1AD82AE83AF26
:10088000F0F8D004D003D0028A828B838CF0ED1272
:10089000136EA3EE12136EA3EF12136EA3E80213EE
:1008A0006E7524667525667526167527407528337E
:1008B000752933752A53752B40752C00752D0075DD
:1008C0002E00752F00753000753100753248753374
:1008D00042853B82853C83853DF0E53EC002C003F6
:1008E000C0041204C1AD82AE83AFF0F8D004D003CF
:1008F000D0028A828B838CF0ED12136EA3EE12135A
:100900006EA3EF12136EA3E802136EAA82AB83AC40
:10091000F0FD75A72075930C75C8107594008A11A9
:100920008B128C138D1490A20075F04A740412116E
:1009300010AA82AB83ACF0FD751118E4F512F51323
:10094000F5148A828B838CF0ED121110AA82AB838E
:10095000ACF0FDE4C39AFAE49BFB74019CE49D8A2D
:10096000958B96D2C943944075A70022AA8275A799
:100970002010C90280FB8A9275A70022AA82AB834D
:10098000ACF08A828B838CF01210F4FD60188D829B
:10099000C002C003C00412096CD004D003D0020A04
:1009A000BA00DF0B80DC2275A72010C80280FB5341
:1009B000C83F85928275A7002275A7207A007B0028
:1009C00020C82675A700758214C002C00312027DDC
:1009D000D003D00275A7200ABA00010BBAA8E1BB68
:1009E00061DE75A70075820A22C2C853C83F85928E
:1009F0008275A70022AA82AB83ACF0C002C003C0FC
:100A0000041209B9AD82D004D003D002BD0A0A8A0B
:100A1000828B838CF0E402136E8A828B838CF0EDE0
:100A200012136EA3AA82AB8380D175A720A2C875CA
:100A3000A70022AA82AB837C007D00C3EC9AED9BC9
:100A400050477E00BE04005039C002C003C004C03D
:100A500005C006120A2AE433D006D005D004D0031C
:100A6000D0026001227582FAC002C003C004C00532
:100A7000C00612027DD006D005D004D003D0020EED
:100A800080C20CBC00B50D80B222AA82AB83ACF050
:100A9000C002C003C004C002C003C004749FC0E011
:100AA0007400C0E07480C0E0121326E58124FAF5DA
:100AB00081C2A09000051202A7D004D003D0028A00
:100AC000828B838CF012097C90007175F0401209C2
:100AD000F590000A1202A7D2A07471C0E07400C0A1
:100AE000E07440C0E074ABC0E07400C0E07480C04B
:100AF000E0121326E58124FAF58122AA82AB83ACA9
:100B0000F0FDEA2AF511EB33F512EC33F513ED3372
:100B1000F51490A20075F04A7404121110AA82AB69
:100B200083ACF0FDC2CAE4C39AFAE49BFB74019C57
:100B3000E49D8ACA8BCBD2CA22AA82AB83ACF0FDD9
:100B4000C002C003C004C005C043C044C045C04685
:100B5000853F828540838541F0E5421212B8AE821E
:100B6000AF83A8F0F9E58124FCF581D005D004D04D
:100B700003D002C002C003C004C005C006C007C045
:100B800000C0018A828B838CF0ED121181AE82E568
:100B90008124FCF581D005D004D003D002EE70038F
:100BA000020C32C043C044C045C0468A828B838C4D
:100BB000F0ED12141CAA82AB83ACF0FDE58124FC9D
:100BC000F581C03FC040C041C0428A828B838CF017
:100BD000ED12141CAA82AB83ACF0FDE58124FCF578
:100BE00081C002C003C004C00590000075F080748D
:100BF0003E121215AA82AB83ACF0FDE58124FCF510
:100C000081E4C0E0C0E074FAC0E07443C0E08A82CE
:100C10008B838CF0ED1212B8AA82AB83ACF0FDE5A9
:100C20008124FCF5818A828B838CF0ED12134702BC
:100C30000AFBC2CAC28222AA82AB83C3EA94FBEB3C
:100C40006480947F5003020D13C374059AE464809A
:100C50008BF063F08095F05003020D13C3E51294FE
:100C60002DE5136480948040057C41020EA5C3E508
:100C700012941EE513648094804016742D9512E43E
:100C800064808513F063F08095F040057C42020E8D
:100C9000A5C3E5129405E513648094804016741E84
:100CA0009512E464808513F063F08095F040057C34
:100CB00043020EA5C374D39512747F8513F063F0BD
:100CC0008095F040057C44020EA5C3E51294D3E55F
:100CD000136480947F401574E29512747F8513F03D
:100CE00063F08095F040057C45020EA5C3E51294A3
:100CF000E2E5136480947F401574FB9512747F8540
:100D000013F063F08095F040057C46020EA57C5AF6
:100D1000020EA5C3EA9428EB64809480404FE5124C
:100D20009405E5136480948040057C4B020EA5C3B6
:100D300074FB9512747F8513F063F08095F0400585
:100D40007C4D020EA5C3E51294FBE5136480947FED
:100D5000401674059512E464808513F063F0809565
:100D6000F040057C47020EA57C5A020EA5C374D83C
:100D70009A747F8BF063F08095F0405A74FB951263
:100D8000747F8513F063F08095F0E433FD70057C8B
:100D90004E020EA5C3E5129405E5136480948040CD
:100DA000057C4C020EA5ED70057C4E020EA5C3E538
:100DB0001294FBE5136480947F401674059512E449
:100DC00064808513F063F08095F040057C49020E45
:100DD000A57C5A020EA5C3EA9405EB64809480407A
:100DE0005E74289AE464808BF063F08095F0404F45
:100DF000E51294FBE5136480947F40167405951208
:100E0000E464808513F063F08095F040057C48022F
:100E10000EA5C3E5129405E5136480948040057C1B
:100E20004B020EA5C374FB9512747F8513F063F01B
:100E30008095F040057C4D020EA57C5A020EA5C39C
:100E4000EA94D8EB6480947F405974FB9A747F8B4A
:100E5000F063F08095F0404BE51294FBE51364805D
:100E6000947F401574059512E464808513F063F057
:100E70008095F040047C4A802CC3E5129405E5136C
:100E80006480948040047C4C801BC374FB95127476
:100E90007F8513F063F08095F040047C4E80067CE3
:100EA0005A80027C5A8C82221204079001F41202AA
:100EB000A774BAC0E07400C0E07480C0E0121326CA
:100EC0001581158115817457C0E07401C0E07480EC
:100ED000C0E0744BC0E07401C0E07480C0E074EC0A
:100EE000C0E07400C0E07480C0E074BFC0E0740073
:100EF000C0E07480C0E0121326E58124F4F581740B
:100F000060C0E07401C0E07480C0E0121326158157
:100F100015811581902580E4F5F012090B751104F7
:100F20007582011202E27511057582011202E21248
:100F3000026390017075F080120A8A90017E75F04C
:100F400080120A8A90018775F080120A8A900191B6
:100F500075F080120A8A90019B75F080120A8A90BF
:100F600001A575F080120A8A9001AE75F080120A10
:100F70008A9001B875F080120A8A7557487558E151
:100F800075590A755A40755B33755C33755D137519
:100F90005E409000321202A775820A12034DAA82A7
:100FA000AB83ACF0FD8A478B488C498D4A75820B28
:100FB00012034DAA82AB83ACF0FD8A4B8B4C8C4D57
:100FC0008D4E75344F75350075364090004775F07D
:100FD00040120683854F828550838551F0E5521279
:100FE00011B1AA82AB838553828554838555F0E580
:100FF00056C002C0031211B1858212858313D0033B
:10100000D0028A828B83120C37E582FA3395E0FB9B
:10101000C002C003C002C003C053C054C055C05674
:10102000C04FC050C051C05274C2C0E07401C0E093
:101030007480C0E0121326E58124F3F58174D9C0D1
:10104000E07401C0E07480C0E07400C0E07400C0CF
:10105000E0E4C0E01213D6E58124F8F581900000A9
:1010600075F00012097C9000C81202A79001DE758D
:10107000F08012097C75822E1214277A007B00C042
:1010800002C003120A2AD003D0024033900001C0EC
:1010900002C003120A33D003D0020ABA00010BC304
:1010A000EA94F4EB6480948140D574E2C0E074016A
:1010B000C0E07480C0E012132615811581158112DD
:1010C0000A2A4003020F9290007175F0401209F550
:1010D0007471C0E07400C0E07440C0E074EDC0E022
:1010E0007401C0E07480C0E0121326E58124FAF593
:1010F00081020F9220F71430F6148883A88220F51D
:1011000007E6A88375830022E280F7E49322E022B9
:10111000FB7A20E4FCFDFEFFE5822582F582E58373
:1011200033F583E5F033F5F0EB33FB4017DAE98074
:1011300042E5822582F582E58333F583E5F033F5D8
:10114000F0EB33FBEC33FCED33FDEE33FEEF33FF1E
:10115000EC9511ED9512EE9513EF95144013EC9567
:1011600011FCED9512FDEE9513FEEF9514FF4382F1
:1011700001DABEEB22E4AC83AB82FAF9748E02157D
:1011800064FFA881181812158CD2D133E6400730BD
:10119000E70B7582012220E70675820022C2D11278
:1011A000156EE97003F5822230D101B3E433F58284
:1011B000221215B7700AE582458345F0700122E4DA
:1011C00030D112F4700BE5F0F47006E58330E701DE
:1011D0002290800022700AE5F07006E58320E70186
:1011E00022907FFF22FFA881181812158CD2D133CC
:1011F000E6400730E70B7582002220E70675820182
:1012000022C2D112156EE97003F5822220D101B3FA
:10121000E433F58222121694BC0003021633EF6009
:10122000FA30D502B2D1E583B4FF03021649E58254
:10123000B4FF03021649258340072482400B02169F
:10124000332483145003021649F582EA8DF0A4A8D2
:10125000F0EA8EF0A428F8E435F0F9EB8DF0A4283C
:10126000E935F0F9E433CA8FF0A429F9EA35F0FA48
:10127000EBF88EF0A429F9EA35F0FAE433FBEC8DB3
:10128000F0A429F9EA35F0FAE43BFBE88FF0A42A50
:10129000FAEB35F0FBE433CCFD8EF0A42AFAEB3503
:1012A000F0FBE43CFCED8FF0A42BFBEC35F0FC20D4
:1012B000E7031216610216121216947900E583B53F
:1012C0008202800D50031216C2E583C39582121666
:1012D000DCE5D0C465D020E117EA2DFAEB3EFBEC4B
:1012E0003FFC500974011216DCEC4480FC0216121B
:1012F000C3EA9DFAEB9EFBEC9FFC500FC3E499F907
:10130000E49AFAE49BFBE49CFCB2D112166102164B
:101310001202142785826D85836E85F06F851070AB
:10132000901311021AFEC008858108E50824FBF518
:1013300070E50824FBF8866D08866E08866F9013AA
:1013400011121AFED008227F9E1220AB30D1030268
:101350001633C3EF9582500974FFF5F0F583F582DB
:101360002279001216DC89828A838BF0EC2220F726
:101370001030F6118883A88220F507F6A8837583BC
:101380000022F280F7F022AA82AB09AC0AAD0B8BE7
:10139000828C838DF0EA12136E0509E4B50902050B
:1013A0000A2285820985830A85F00B850C6D850DDF
:1013B0006E850E6F850F70901387121AFEAA82AB8E
:1013C00083AC09AD0AAE0B8C828D838EF0E41213D0
:1013D0006E8A828B8322C008858108E50824F8F58F
:1013E00070E50824FBF8860908860A08860BE508DC
:1013F00024F8F8866D08866E08866F901387121A97
:10140000FEAA82AB83AC09AD0AAE0B8C828D838EB3
:10141000F0E412136E8A828B83D00822A8811818F8
:10142000C6B2E7C60212B8AA82BA0A0810990280A8
:10143000FB75990D10990280FB8A9922121694303F
:10144000D502B2D1BF0009BC0003021656021649EC
:10145000BC0003021633E583B4FF0BE582B4FF033F
:10146000021656021633E582B4FF03021649C395ED
:10147000835007247F400B0216332480145003024C
:101480001649C0E0E4CCCBCAF98D118E128F13EF50
:1014900054F0C4F5147583068514F0EB84F582E9E5
:1014A000C4F9EAC4FAEBC4FBEC540FC47803D6FCCD
:1014B00018EBD6FB18EAD6FA8582F0EDA4A8F0FD69
:1014C0008582F0EEA428FEE435F0F88582F0EFA4E2
:1014D00028FFE435F0F8E99DF9EA9EFAEB9FFBEC72
:1014E00098FCAD11AE12AF1330E7101582E92DF95B
:1014F000EA3EFAEB3FFBE43CFC80EDC082D58398EA
:10150000C3E933F9EA33FAEB33FBEC33FCC3E99D6F
:10151000EA9EEB9FEC9400B3E413F9D002D0E0C450
:101520004AFAD003D0E0C44BFBD004D0E0F5F0542D
:101530000FC44CFCD082158230F40FD3EC13FCEBBB
:1015400013FBEA13FAE913F90582E930E70A74019B
:101550002AFAE43BFBE43CFC02162AFCABF0AA832B
:10156000A982749EC2D1F582121661021612790107
:10157000AA82E68F82B5821318E6B5F00E18E6B59A
:10158000830918E68A82B58202790022B4800FE5C9
:10159000F0700AE5837006E58270027F00EFB68086
:1015A0001518B6001018B6000B18B6000608080883
:1015B000760022080808221220ABC3749E95824050
:1015C0003979001216DC30D126E9F42401F582EADB
:1015D000F43400F583EBF43400F5F0ECF4340070EF
:1015E0000AE582458345F0700122E430E70F22ECE2
:1015F00020E71489828A838BF02230D10AE4F582B5
:10160000F583F5F074802274FFF582F583F5F074AC
:101610007F22B98003EA13B34010EA2401FAE43BC5
:10162000FBE43CFC50047C800582BC000EBB000B3C
:10163000BA0008E4F5F0F583F58222A2D1E5821321
:101640008CF092F78B838A8222E4F583F58275F021
:1016500080F4A2D11322E4F583F58275F0C0747F83
:10166000227804EC7011E58224F8500AF582E4C96E
:10167000CACBFCD8EF22EC7820058220E713D58274
:101680000122C3E933F9EA33FAEB33FBEC33FCD83C
:10169000EA158222AA82AB83A2F73392D16002D2EA
:1016A000F7F582ACF0E58124F9F8E6FD08E6FE08DE
:1016B00086F008E6A2F73392D56002D2F7F583AF41
:1016C000F022E582C583F582A2D133A2D592D1134F
:1016D00092D5ECCFFCEBCEFBEACDFA226040F825A8
:1016E00082500274FFF582E824F8501ECCCBCAF970
:1016F000E4CC24F85014CBCAF9E4CB24F8500BCA3C
:10170000F9E4CA24F8500379002224086010F8C3D1
:10171000EC13FCEB13FBEA13FAE913F9D8F122AA54
:10172000827430C0E07417C0E0C05FC0608A82225B
:101730000566E4B56602056722AA8274302AFA2497
:10174000C6500A74072AFA3001034302208A820233
:10175000171FE582FAC4540FF582C002121739D060
:1017600002740F5AF582021739AA61AB62AC63ADFD
:1017700064AE65756C20EE2EFEED235401FF42062B
:10178000EA2AFAEB33FBEC33FCED33FDC3EE95684C
:101790004008EEC39568FE430201D56CD98A618B7F
:1017A000628C638D648E65227891E624D075F00A90
:1017B000A4FA7892E624D02AFA78908603BB2D0406
:1017C000C3E49AFA756801C3E464808AF063F08028
:1017D00095F05029756C038A0374F6256C401C053E
:1017E00068E56C142485F8E56C2485F98704A60463
:1017F000772E1BEBFA6004056C80DE8B02EA30E783
:101800000D788686037887A6037886762E0AE56AA1
:10181000600AE56A04FB2568F5688005300C02055E
:101820006878858603E4BB2D0104FB70062007035E
:1018300030080205683005030218EF300657EB60E8
:101840000C75822DC00212171FD002801C30070CAD
:1018500075822BC00212171FD002800D30080A7546
:101860008220C00212171FD00278868604BC2E0C7C
:10187000758230C00212171FD0021569AC69156954
:10188000C3E5689C4003021933758230C002121709
:101890001FD00280E7AC691569C3E5689C500C75E0
:1018A0008220C00212171FD00280EA78858604BC0D
:1018B0002D0C75822DC00212171FD002801C30071C
:1018C0000C75822BC00212171FD002800D30080A3F
:1018D000758220C00212171FD00278868604BC2EA3
:1018E00052758230C00212171FD00215698044EB76
:1018F000600E75822DC00212171FD002156980205C
:1019000030070E75822BC00212171FD00215698096
:101910000F30080C758220C00212171FD002156903
:1019200078868603BB2E0C758230C00212171FD03A
:10193000021569756C01C20EE56C2485F88603BB3F
:1019400045030219F0BB2E348A03C3E464808BF094
:1019500063F08095F0500F758230C00312171FD0CE
:10196000031B8B0280E48B02D20EE56A7038200CD8
:10197000030219F075822E12171F8074300E278A09
:1019800003EB30E71FC3E46480856AF063F0809561
:10199000F0500C758230C00312171FD003156A0B6C
:1019A0008B0280DD8B02300E0EC3E46480856AF00A
:1019B00063F08095F05021E56C2485F886038B82D6
:1019C000C00212171FD002300E0EE56C2485F88677
:1019D00003BB2E028002156A1569C3E46480856A20
:1019E000F063F08095F04003200E05056C02193875
:1019F000C3E46480856AF063F08095F0500A7582D4
:101A00003012171F156A80E830050FAA691569EAB8
:101A1000600875822012171F80F122E56A7003307A
:101A20000C0D7407256AFAE569C39AF5698006E525
:101A30006924FAF569756C0078858602BA2B0F2047
:101A4000070C78857620200805756C01056920054E
:101A500019AA69C3E464808AF063F08095F0500AA3
:101A600075822012171F156980E7C20EE56C248568
:101A7000F88602BA00028069BA451F300102766515
:101A8000C3E46480856AF063F08095F0500A758243
:101A90003012171F156A80E8D20EC3E56C9402E479
:101AA00033FA7014EA700EC3E46480856AF063F060
:101AB0008095F04003300E16E56C2485F886028A86
:101AC0008212171FE56C24FD5012156A800E7402F5
:101AD000B56C09300C0675822E12171F056C021AA0
:101AE0006C300519AA69C3E464808AF063F08095BC
:101AF000F0500A75822012171F156980E72285822F
:101B00005F858360E4F566F567AA6DAB6EAC6F8A9E
:101B1000828B838CF01210F4FD74012AF56DE43B86
:101B2000F56E8C6FEDFA70030220A4BA25028003D3
:101B300002209CC205C206C207C208C209C20AC26C
:101B40000BC20CC202C203C204756800756900753D
:101B50006AFFAB6DAC6EAD6F8B828C838DF0121013
:101B6000F4FAA3AB82AC838B6D8C6E8D6FBA2507B4
:101B70008A8212171F80928A06BE3000402E8A0683
:101B8000EE24C6402774FFB56A13E56975F00AA410
:101B9000FEEA24D02EF56970BFD20680BBE56A75D7
:101BA000F00AA4FEEA24D02EF56A80ACBA2E0A749C
:101BB000FFB56AA4756A00809F8A06BE6100400E68
:101BC0008A06EE248540075302DFD2018002C2015B
:101BD000BA20028075BA2303021C59BA2A03021CD8
:101BE0005EBA2B02805FBA2D028055BA4202805F36
:101BF000BA4303021CA3BA4403021DDEBA45030222
:101C00001DF8BA4603021DF4BA4703021DFCBA4987
:101C100003021DDEBA4C02803BBA4E03021E00BA1C
:101C20004F03021DE5BA5003021D77BA5303021C8D
:101C3000C7BA5503021DEABA5803021DEF021E2A55
:101C4000D205021B58D207021B58D208021B58D2D9
:101C50000A021B58D20B021B58D20C021B5874FFED
:101C6000B56A20300A0BE57014F888708669021B8B
:101C700058E57024FEF888708606088607188E6975
:101C8000021B58300A0BE57014F88870866A021B34
:101C900058E57024FEF888708606088607188E6A54
:101CA000021B58300A0AE57014F888708602800F0B
:101CB000E57024FEF888708603088604188B028A73
:101CC0008212171F021E2FE57024FDF8887086030C
:101CD00008860408860518188B618C628D638B82D8
:101CE0008C838DF01221DCAB82AC838B6B74FFB5DF
:101CF0006A03856B6A20051DC3E56B95695016E57F
:101D000069C3956BF569AB691569EB60087582204D
:101D100012171F80F18561828562838563F012103E
:101D2000F4FBFA6029AB6A156AC3E464808BF06344
:101D3000F08095F050188A8212171FAB61AC62AD2B
:101D4000630BBB00010C8B618C628D6380C7200527
:101D500003021E2FC3E56B95694003021E2FE56940
:101D6000C3956BF569AB691569EB7003021E2F759E
:101D7000822012171F80EEE57024FDF8887086031C
:101D800008860408860518188B618C628D63E563EC
:101D9000FB30E7047A438013EB546060047A508090
:101DA0000AEB30E6047A4980027A588A82C002122D
:101DB000171F75823A12171F75823012171F75820E
:101DC0007812171FD002BA4902800BBA500280065F
:101DD0008562821217528561821217528051D20990
:101DE00075680A804A756808804575680A8040757C
:101DF0006810803BD2028037D2038033D204802F18
:101E0000E57024FDF88870860308860408860518A6
:101E1000188B618C628D638B828C838DF0E56612EA
:101E2000136EA3E56712136E80058A8212171F20B6
:101E30000206200303300470E57024FCF8887086E5
:101E4000030886040886050886061818188B618C16
:101E5000628D638E64E561E562E563E5648B828C87
:101E6000838DF0EE1220BD74FFB56A03756A0630EB
:101E70000427747F5564FB8B65E565EB2BFB8B6555
:101E8000E56330E70674014565F565E5652468405E
:101E900006749925654002D203300306121A1B020C
:101EA0001B091217A8021B09E5687003021B097BB6
:101EB0008A300A2BE57014F88870E6FC3395E0FD53
:101EC000FEFF8C618D628E638F6420095EAC617D44
:101ED000007E007F008C618D628E638F64804C3049
:101EE0000B1FE57024FCF8887086040886050886B8
:101EF000060886071818188C618D628E638F6480BF
:101F00002AE57024FEF88870860408860518ED33EB
:101F100095E0FEFF8C618D628E638F6420090CACAE
:101F200061AD627E007F008E638F64300C43E5619B
:101F300045624563456460397408B5680C75823044
:101F4000C00312171FD00380287410B56823758250
:101F500030C00312171FD00330010C758278C00304
:101F600012171FD003800A758258C00312171FD0A2
:101F700003300925AC61AD62AE63E564FF30E7175D
:101F8000C3E49CFCE49DFDE49EFEE49FFF8C618D18
:101F9000628E638F648002C209756B00D20D8B0064
:101FA000756500C000121769D000200D0DE565C4ED
:101FB000FCE6FD4CF61888038002A665056BB20DA1
:101FC000E56145624563456470D68803E569700341
:101FD00075690120061A200517E56B04FCC3956995
:101FE000500E758220C00312171FD003156980E9B7
:101FF00030090E75822DC00312171FD0031569809A
:1020000024E56B602030070E75822BC00312171F6A
:10201000D0031569800F30080C758220C003121799
:102020001FD003156920051EAC691569C3E56B9CBB
:1020300050273006047C3080027C208C82C0031242
:10204000171FD00380E2C3E56B95695009E569C3AA
:10205000956BF56980037569008B00AB6B156BEBB5
:102060006022B20D200D0A08E6C4540FFB8B658078
:10207000078603740F5BF565856582C0001217390A
:10208000D00080D7200503021B09AB691569EB70EE
:1020900003021B0975822012171F80EE8A82121715
:1020A0001F021B0985668285678322AA82AB83A2F1
:1020B000F73392D16002D2F7F582ACF022C0E0F89B
:1020C0004582458345F07009F5F0FBFCFDFE0221D9
:1020D0008BE823A2F792E0F8A982AA83D2F7ABF0AB
:1020E0007C007E07C3749798404074FF2EFE740AEC
:1020F00089F0A4F985F082740A8AF0A4FA85F08345
:10210000740A8BF0A4FB740529F9EA3582FAEB35E1
:1021100083FB740035F0FCC3EC13FCEB13FBEA13F8
:10212000FAE913F908EC70EF80BAE8C3947FF88BF2
:10213000838EF0E4FBFCFDFEFF08C3E933F9EA33CC
:10214000FAE58333F583EB3BD4FBEC3CD4FCED3D6B
:10215000D4FDEE3ED4FEEF3FD4FF602D05F07405B4
:102160002BD4FBE43CD4FCE43DD4FDE43ED4FEE4BB
:102170003FD4FF758204C3EF13FFEE13FEED13FD92
:10218000EC13FCEB13FBD582EDD8AF7885D0E020C3
:10219000E704762B8002762D087906E7C4540F44B5
:1021A00030F608B90603762E08E7540F4430F608D7
:1021B00019B902E7764508E5F020E704762B80049C
:1021C000762DF4040875F00A844430F608E5F044EE
:1021D00030F608E4F690008575F04022AA82AB83C1
:1021E000ACF07D007E008A828B838CF01210F4FFAD
:1021F000A3AA82AB83EF60070DBD00EA0E80E78DD6
:10220000828E832200000000000000000000000019
:00000001FF
