:10000000020096E4F524F525F526F52722000000E8
:10002000000000000000000000000002035A000071
:1000900000000002036275818D1202D1E5826003C7
:1000A000020102780079007A007B007C007D00EC80
:1000B0004D601C88828983E493A3A882A9838A82E5
:1000C0008B83F0A3AA82AB831CBCFFE31D80E07589
:1000D00082007583007C727D00EC4D600AE4F0A321
:1000E0001CBCFFF51D80F27582007583007C007DCD
:1000F00000EC4D600AE4F0A31CBCFFF51D80F21279
:100100000003120BB680FE436F6D6D616E643A2082
:10011000257300526573706F6E73653A2025730DF9
:100120000A001B5B324A004144432074657374200B
:1001300070726F6772616D0A46696C653A2025734B
:100140000A436F6D70696C65643A2025732C202515
:10015000730A0A00433A5C55736572735C666C6996
:1001600070615C4F6E654472697665202D20554242
:10017000435C556E69766572736974795C436F751B
:10018000727365204D6174657269616C735C326E67
:10019000642079656172202D205465726D20325C77
:1001A000454C454320323931202D20456C65637420
:1001B000726963616C20456E67696E656572696E10
:1001C000672044657369676E2053747564696F5C5A
:1001D00050726F6A65637432454C45433239315C05
:1001E0004A445934302045464D382046696C657381
:1001F0005C65666D386A6F79737469636B6A64797C
:10020000696E742E63004D617220333120323032BA
:10021000340031323A34313A3539000D0A4A445902
:100220002D343020746573740D0A0041542B4456EC
:100230004944424545460D0A0041542B5645520D4E
:100240000A0041542B424155440D0A0041542B529F
:100250004649440D0A0041542B445649440D0A00B6
:1002600041542B5246430D0A0041542B504F5745E1
:100270000D0A0041542B434C53530D0A00783D2581
:100280002E346600793D252E3466002533642C25F6
:1002900033640D0A004D0D0A0074696D656F757445
:1002A000200D0A0052583A2025730D0A0065787413
:1002B0007261637465643A2025660D0A0062617399
:1002C000656C696E652066726571203A25660D0A57
:1002D0000075A7007597DE7597AD75FF8075EF0601
:1002E00075A71075C12075A70075A90075A900E54F
:1002F000A930E7FB75A90375A903E5A930E7FB431E
:10030000A41143A60175E10175E20075E3417598FA
:1003100010758DE6858D8B53890F438920D28ED23F
:100320009975A71075C800438E1075CAB075CBB902
:1003300075CEFF75CFFFD2ADD2CA75A71075C000BC
:1003400043A60475D26075D37375D4FF75D5FF438A
:10035000F308D2C2D2AF7582002275A710C2CFB205
:100360008332C0E0C0D075D00075A710C2C7B2827A
:1003700074012524F524E43525F525E43526F526F4
:10038000E43527F527C3E5249464E5259400E526A4
:100390009400E52764809480401220CA04D2CA8069
:1003A00002C2CAE4F524F525F526F527D0D0D0E021
:1003B0003275A700C2EF75B28075BC2075B91E7585
:1003C000E80075DF3F75B300D2EF22AA82438E406A
:1003D0007592B87593FF8592948593957591047B7A
:1003E00000C3EB9A500BE59130E7FB53917F0B80F4
:1003F000F075910022AA82AB837C007D00C3EC9A49
:10040000ED9B502B7E00BE0400501D7582FAC00289
:10041000C003C004C005C0061203CBD006D005D06F
:1004200004D003D0020E80DE0CBC00D10D80CE22A1
:10043000AA828517F005F07401800225E0D5F0FB53
:10044000FB75A720BA0002800ABA0102800FBA0227
:100450001E8014EBF4FA52F1EB42D48012EBF4FA62
:1004600052F2EB42D58008EBF4FA52F3EB42CC7532
:10047000A700225389F0438901C28C228582BBC226
:10048000EDD2EC30EDFD85BD8285BE8322C2EDD27A
:10049000EC30EDFD85BD8285BE832212047C1211F5
:1004A00029AA82AB83ACF0FDC002C003C004C00522
:1004B000906C8B75F05374401211C9AA82AB83AC57
:1004C000F0FDE58124FCF581E4C0E074FCC0E0743B
:1004D0007FC0E07446C0E08A828B838CF0ED1215F9
:1004E000FCAA82AB83ACF0FDE58124FCF5818A8215
:1004F0008B838CF0ED22D2967582281203CBC296A4
:1005000022AA828AE0A2E79290A2E69291A2E592C4
:1005100092A2E49293C0021204F67582281203CBD1
:10052000D0028AE0A2E39290A2E29291A2E192929A
:10053000A2E092930204F6AA82D2978A821205015F
:100540009000020203F5AA82C2978A8212050190E6
:1005500000050203F5C2969000141203F57582336C
:1005600012054675823312054675823212054675AC
:10057000822812054675820C120546758201120505
:10058000469000140203F5AA82AB83ACF07402B566
:1005900028047DC080027D808D82C002C003C0041B
:1005A0001205469000051203F5D004D003D0027D59
:1005B000007E00ED2AFFEE3BF88C018F8288838954
:1005C000F01210A8FF60208F82C002C003C004C0D8
:1005D00005C006120537D006D005D004D003D002DE
:1005E0000DBD00CF0E80CC3000248D028E03C3EAF7
:1005F0009410EB648094805015758220C002C00373
:10060000120537D003D0020ABA00E30B80E022AA19
:1006100082AB83ACF0FDC029C02AC02BC02C8A82DB
:100620008B838CF0ED1215DCAA82AB83ACF0FDE578
:100630008124FCF581C002C003C004C005C031C0E4
:1006400032C033C0348535828536838537F0E5384E
:100650001215DCAE82AF83A8F0F9E58124FCF581A8
:10066000D005D004D003D002C006C007C000C0012E
:100670008A828B838CF0ED1211C9AA82AB83ACF015
:10068000FDE58124FCF581C002C003C004C005C0A3
:1006900029C02AC02BC02C852D82852E83852FF062
:1006A000E5301215DCAE82AF83A8F0F9E58124FCB9
:1006B000F581D005D004D003D002C006C007C00029
:1006C000C0018A828B838CF0ED1215FCAA82AB8369
:1006D000ACF0FDE58124FCF581C031C032C033C0EF
:1006E000348A828B838CF0ED12149FAA82AB83AC88
:1006F000F0FDE58124FCF5818A828B838CF0ED226C
:10070000AA82AB83ACF01210A8F53CA31210A8F596
:100710003DA31210A8F53EA31210A8F53F74042AB9
:10072000FAE43BFB8A828B838CF01210A8F540A37D
:100730001210A8F541A31210A8F542A31210A8F5B3
:1007400043AA39AB3AAC3B8A828B838CF01210A857
:10075000F9A31210A8FDA31210A8FEA31210A8FF5F
:10076000C002C003C0047433C0E0C0E07413C0E032
:100770007440C0E089828D838EF0EF121199AD82B2
:10078000E58124FCF581D004D003D002ED606C75C6
:100790002900752A00752B00752C00752D33752ED8
:1007A00033752F137530407531007532007533483D
:1007B0007534C2753500753600753700753800859B
:1007C0003C82853D83853EF0E53FC002C003C00406
:1007D00012060FAD82AE83AFF0F8D004D003D00282
:1007E0008A828B838CF0ED12152EA3EE12152EA3A8
:1007F000EF12152EA3E812152E806A752933752A7B
:1008000033752B13752C40752D33752E33752F537F
:1008100075304075310075320075330075340075E0
:100820003500753600753748753842853C82853D00
:1008300083853EF0E53FC002C003C00412060FAD41
:1008400082AE83AFF0F8D004D003D0028A828B83CB
:100850008CF0ED12152EA3EE12152EA3EF12152E0D
:10086000A3E812152E74042AFAE43BFB8A828B83D8
:100870008CF01210A8FDA31210A8FEA31210A8FF5E
:10088000A31210A8F8C002C003C0047466C0E0C080
:10089000E07416C0E07440C0E08D828E838FF0E873
:1008A000121199AD82E58124FCF581D004D003D0EA
:1008B00002ED606A752900752A00752B00752C0001
:1008C000752D66752E66752F16753040753100755D
:1008D00032007533487534C275350075360075378A
:1008E000007538008540828541838542F0E543C02C
:1008F00002C003C00412060FAD82AE83AFF0F8D081
:1009000004D003D0028A828B838CF0ED12152EA3C3
:10091000EE12152EA3EF12152EA3E802152E75293F
:1009200066752A66752B16752C40752D33752E331A
:10093000752F537530407531007532007533007571
:100940003400753500753600753748753842854076
:10095000828541838542F0E543C002C003C0041292
:10096000060FAD82AE83AFF0F8D004D003D0028A78
:10097000828B838CF0ED12152EA3EE12152EA3EFB1
:1009800012152EA3E802152EAA82AB83ACF0FD75DA
:10099000A72075930C75C8107594008A178B188C56
:1009A000198D1A90A20075F04A74041210C4AA821C
:1009B000AB83ACF0FD751718E4F518F519F51A8A34
:1009C000828B838CF0ED1210C4AA82AB83ACF0FD55
:1009D000E4C39AFAE49BFB74019CE49D8A958B9690
:1009E000D2C943944075A70022AA8275A72010C9D6
:1009F0000280FB8A9275A70022AA82AB83ACF08AA0
:100A0000828B838CF01210A8FD60188D82C002C00A
:100A100003C0041209E9D004D003D0020ABA00DFEF
:100A20000B80DC2275A72010C80280FB53C83F85CD
:100A3000928275A7002275A7207A007B0020C82625
:100A400075A700758214C002C0031203CBD003D077
:100A50000275A7200ABA00010BBAA8E1BB61DE75D6
:100A6000A70075820A22C2C853C83F85928275A723
:100A70000022AA82AB83ACF0C002C003C004120AF9
:100A800036AD82D004D003D002BD0A0A8A828B839D
:100A90008CF0E402152E8A828B838CF0ED12152ED9
:100AA000A3AA82AB8380D175A720A2C875A7002214
:100AB000AA82AB837C007D00C3EC9AED9B50477EFD
:100AC00000BE04005039C002C003C004C005C00607
:100AD000120AA7E433D006D005D004D003D00260B8
:100AE00001227582FAC002C003C004C005C006120C
:100AF00003CBD006D005D004D003D0020E80C20CA8
:100B0000BC00B50D80B222AA82AB83ACF0C002C09B
:100B100003C004C002C003C0047407C0E07401C075
:100B2000E07480C0E012150DE58124FAF581C2A0C1
:100B30009000051203F5D004D003D0028A828B8383
:100B40008CF01209F990006A75F040120A72900058
:100B50000A1203F5D2A0746AC0E07400C0E07440C9
:100B6000C0E07413C0E07401C0E07480C0E01215EE
:100B70000DE58124FAF58122AA82AB83ACF0FDEA6F
:100B80002AF517EB33F518EC33F519ED33F51A9018
:100B9000A20075F04A74041210C4AA82AB83ACF0B0
:100BA000FDC2CAE4C39AFAE49BFB74019CE49D8AEB
:100BB000CA8BCBD2CA227A007B00754400754500EF
:100BC000754600754700C002C0031205559001F438
:100BD0001203F57422C0E07401C0E07480C0E0121A
:100BE000150D1581158115817412C0E07402C0E0E5
:100BF0007480C0E07406C0E07402C0E07480C0E09D
:100C00007454C0E07401C0E07480C0E07427C0E098
:100C10007401C0E07480C0E012150DE58124F4F584
:100C200081741BC0E07402C0E07480C0E012150D36
:100C3000158115811581902580E4F5F012098875DC
:100C400017047582011204307517057582011204AC
:100C5000301203B190022B75F080120B079002390D
:100C600075F080120B0790024275F080120B07900E
:100C7000024C75F080120B0790025675F080120B33
:100C80000790026075F080120B0790026975F08082
:100C9000120B0790027375F080120B07D003D0027D
:100CA000900032C002C0031203F575820A12049B41
:100CB000AC82AD83AEF0FF8C488D498E4A8F4B7568
:100CC000820B12049BAC82AD83AEF0FF8C4C8D4D39
:100CD0008E4E8F4F753950753A00753B40900048E5
:100CE00075F040120700C050C051C052C053747D0F
:100CF000C0E07402C0E07480C0E07400C0E0740022
:100D0000C0E0E4C0E0121596E58124F6F58175286F
:100D100001D20090000075F000120587C054C05544
:100D2000C056C0577484C0E07402C0E07480C0E054
:100D30007411C0E07400C0E0E4C0E0121596E581D3
:100D400024F6F581752802D20090001175F000128A
:100D500005878550828551838552F0E553121165D0
:100D600012126CAC82AD83D003D002C3EC9405EDBB
:100D700064809480500C7550007551007552007558
:100D800053008554828555838556F0E557C002C0CF
:100D90000312116512126CAC82AD83D003D002C372
:100DA000EC9405ED64809480500C755400755500EA
:100DB000755600755700C002C003E4C0E0C0E0747F
:100DC00048C0E07442C0E08550828551838552F06E
:100DD000E553121135AC82E58124FCF581D003D0B6
:100DE00002EC600C75500075510075524875534205
:100DF000C002C003E4C0E0C0E07448C0E07442C078
:100E0000E08554828555838556F0E557121135AC3F
:100E100082E58124FCF581D003D002EC600C75548E
:100E200000755500755648755742C002C003E4C0AE
:100E3000E0C0E07448C0E074C2C0E08550828551D3
:100E4000838552F0E553121199AC82E58124FCF5BB
:100E500081D003D002EC600C7550007551007552C2
:100E6000487553C2C002C003E4C0E0C0E07448C08B
:100E7000E074C2C0E08554828555838556F0E557FD
:100E8000121199AC82E58124FCF581D003D002ECEB
:100E9000600C7554007555007556487557C28554D9
:100EA000828555838556F0E557C002C0031211654F
:100EB000AC82AD838550828551838552F0E553C065
:100EC00004C005121165AE82AF83C006C007748BE3
:100ED000C0E07402C0E07480C0E07422C0E074001E
:100EE000C0E0E4C0E0121596E58124F6F58190009B
:100EF0002275F0001209F990000A1203F59002958C
:100F000075F0801209F975822E1215E7D003D00210
:100F10007C007D00C002C003C004C005120AA7E423
:100F200033D005D004D003D0027043900001C0023A
:100F3000C003C004C005120AB0D005D004D003D04D
:100F4000020CBC00010DC3EC94F4ED64809481406C
:100F5000C3C002C0037499C0E07402C0E07480C0D2
:100F6000E012150D158115811581D003D002C00244
:100F7000C003120AA7D003D0024003020CA09000C5
:100F80006A75F040C002C003120A7290006A75F0E0
:100F90004012171BAC82AD83D003D002BC0A05BD42
:100FA00000028003020CA0C002C003746AC0E07497
:100FB00000C0E07440C0E074A4C0E07402C0E074FB
:100FC00080C0E012150DE58124FAF58190006A7564
:100FD000F04012127BAC82AD83AEF0FFC004C005BE
:100FE000C006C007C004C005C006C00774ADC0E09D
:100FF0007402C0E07480C0E012150DE58124F9F59B
:1010000081D007D006D005D004D003D002C3EA9423
:101010000AEB648094805030C002C003C044C045D5
:10102000C046C0478C828D838EF0EF12149F85825C
:101030004485834585F046F547E58124FCF581D05C
:1010400003D0020ABA00010BBA0A05BB00028003F2
:10105000020CA0C002C003E4C0E0C0E07420C0E005
:101060007441C0E08544828545838546F0E547129A
:1010700015FCAC82AD83AEF0FFE58124FCF581C0A8
:1010800004C005C006C00774BDC0E07402C0E074AF
:1010900080C0E012150DE58124F9F581D003D0025E
:1010A0000ABA00010B020CA020F71430F614888352
:1010B000A88220F507E6A88375830022E280F7E482
:1010C0009322E022FB7A20E4FCFDFEFFE5822582EC
:1010D000F582E58333F583E5F033F5F0EB33FB4040
:1010E00017DAE98042E5822582F582E58333F583CC
:1010F000E5F033F5F0EB33FBEC33FCED33FDEE3391
:10110000FEEF33FFEC9517ED9518EE9519EF951A54
:101110004013EC9517FCED9518FDEE9519FEEF9533
:101120001AFF438201DABEEB22E4AC83AB82FAF908
:10113000748E02174CFFA8811818121774D2D1337D
:10114000E6400730E70B7582012220E70675820032
:1011500022C2D1121756E97003F5822230D101B3B1
:10116000E433F5822212179F700AE582458345F029
:10117000700122E430D112F4700BE5F0F47006E552
:101180008330E7012290800022700AE5F07006E5C6
:101190008320E70122907FFF22FFA88118181217F1
:1011A00074D2D133E6400730E70B7582002220E786
:1011B0000675820122C2D1121756E97003F5822208
:1011C00020D101B3E433F5822212187CBC00030263
:1011D000181BEF60FA30D502B2D1E583B4FF0302E9
:1011E0001831E582B4FF03021831258340072482B9
:1011F000400B02181B2483145003021831F582EAB5
:101200008DF0A4A8F0EA8EF0A428F8E435F0F9EB0C
:101210008DF0A428E935F0F9E433CA8FF0A429F958
:10122000EA35F0FAEBF88EF0A429F9EA35F0FAE4A1
:1012300033FBEC8DF0A429F9EA35F0FAE43BFBE846
:101240008FF0A42AFAEB35F0FBE433CCFD8EF0A44A
:101250002AFAEB35F0FBE43CFCED8FF0A42BFBEC21
:1012600035F0FC20E7031218490217FAE58330E74E
:1012700009F4F583E582F4F582A322AA82AB83AC5C
:10128000F0751500751600C2038A058B068C078D54
:10129000828E838FF01210A8F8B820028003B8095C
:1012A000070DBD00EA0E80E78D028E038F04B82D76
:1012B0000DD20174012DFAE43EFB8F04800EC201B1
:1012C000B82B0974012DFAE43EFB8F0475110075EB
:1012D00012007513007514008A058B068C078D8229
:1012E0008E838FF01210A8F8F9B930004005E82479
:1012F000C650128D828E838FF01210A8F8B82E027D
:1013000080030213B08D828E838FF01210A8F9B97A
:101310002E05D2030213A8C005C006C007C005C031
:1013200006C007C001C011C012C013C01490000055
:1013300075F02074411211C985821185831285F0E0
:1013400013F514E58124FCF581D001D007D006D037
:1013500005E93395E0FDE924D0F582ED34FFF5830E
:101360001218AAAD82AE83AFF0F9C005C006C0075F
:10137000C005C006C007C001851182851283851390
:10138000F0E51412149F85821185831285F013F500
:1013900014E58124FCF581D007D006D005D007D014
:1013A00006D00530030215150DBD00010E0212DE38
:1013B0005300DF8D828E838FF0E812152EB84562C0
:1013C00074012DFAE43EFB8F048A828B838CF01229
:1013D00010A8FDBD2D09D2020ABA000D0B800AC269
:1013E00002BD2B050ABA00010B7516008A828B8399
:1013F0008CF01210A8FDFEBE3000401D8D06EE24BC
:10140000C64016E51675F00AA4F516ED24D025168B
:10141000F5160ABA00D60B80D3300206C3E495163F
:10142000F516E5152516F516E5166055E51630E7AF
:1014300028C011C012C013C01490CCCD75F0CC746C
:101440003D1211C985821185831285F013F514E5CB
:101450008124FCF581051680CFC011C012C013C0D5
:101460001490000075F02074411211C98582118515
:10147000831285F013F514E58124FCF5811516809F
:10148000A730010F851111851212851313E514B2CF
:10149000E7F5148511828512838513F0E514221275
:1014A000187C7900E583B58202800D50031218B7CD
:1014B000E583C395821218D1E5D0C465D020E11729
:1014C000EA2DFAEB3EFBEC3FFC500974011218D1F7
:1014D000EC4480FC0217FAC3EA9DFAEB9EFBEC9FFA
:1014E000FC500FC3E499F9E49AFAE49BFBE49CFCFA
:1014F000B2D11218490217FA0215E7858266858370
:101500006785F0688510699014F8021CF3C008859F
:101510008108E50824FBF569E50824FBF8866608E0
:1015200086670886689014F8121CF3D0082220F70A
:101530001030F6118883A88220F507F6A8837583FA
:101540000022F280F7F022AA82AB09AC0AAD0B8B25
:10155000828C838DF0EA12152E0509E4B509020587
:101560000A2285820985830A85F00B850C66850D24
:1015700067850E68850F69901547121CF3AA82AB28
:1015800083AC09AD0AAE0B8C828D838EF0E412150C
:101590002E8A828B8322C008858108E50824F8F50D
:1015A00069E50824FBF8860908860A08860BE50821
:1015B00024F8F88666088667088668901547121C26
:1015C000F3AA82AB83AC09AD0AAE0B8C828D838EFD
:1015D000F0E412152E8A828B83D00822A881181875
:1015E000C6B2E7C602149FAA82BA0A0810990280FE
:1015F000FB75990D10990280FB8A992212187C3094
:10160000D502B2D1BF0009BC000302183E02183156
:10161000BC000302181BE583B4FF0BE582B4FF0393
:1016200002183E02181BE582B4FF03021831C3956D
:10163000835007247F400B02181B248014500302A0
:101640001831C0E0E4CCCBCAF98D178E188F19EF92
:1016500054F0C4F51A758306851AF0EB84F582E917
:10166000C4F9EAC4FAEBC4FBEC540FC47803D6FC0B
:1016700018EBD6FB18EAD6FA8582F0EDA4A8F0FDA7
:101680008582F0EEA428FEE435F0F88582F0EFA420
:1016900028FFE435F0F8E99DF9EA9EFAEB9FFBECB0
:1016A00098FCAD17AE18AF1930E7101582E92DF987
:1016B000EA3EFAEB3FFBE43CFC80EDC082D5839828
:1016C000C3E933F9EA33FAEB33FBEC33FCC3E99DAE
:1016D000EA9EEB9FEC9400B3E413F9D002D0E0C48F
:1016E0004AFAD003D0E0C44BFBD004D0E0F5F0546C
:1016F0000FC44CFCD082158230F40FD3EC13FCEBFA
:1017000013FBEA13FAE913F90582E930E70A7401D9
:101710002AFAE43BFBE43CFC021812AA82AB83AC3D
:10172000F07D007E008A828B838CF01210A8FFA3CC
:10173000AA82AB83EF60070DBD00EA0E80E78D82C1
:101740008E8322FCABF0AA83A982749EC2D1F5825B
:101750001218490217FA7901AA82E68F82B582131C
:1017600018E6B5F00E18E6B5830918E68A82B58248
:1017700002790022B4800FE5F0700AE5837006E577
:101780008270027F00EFB6801518B6001018B60000
:101790000B18B6000608080876002208080822126E
:1017A00022A0C3749E9582403979001218D130D19D
:1017B00026E9F42401F582EAF43400F583EBF434ED
:1017C00000F5F0ECF43400700AE582458345F070D2
:1017D0000122E430E70F22EC20E71489828A838B10
:1017E000F02230D10AE4F582F583F5F0748022749A
:1017F000FFF582F583F5F0747F22B98003EA13B315
:101800004010EA2401FAE43BFBE43CFC50047C80F9
:101810000582BC000EBB000BBA0008E4F5F0F583AE
:10182000F58222A2D1E582138CF092F78B838A8213
:1018300022E4F583F58275F080F4A2D11322E4F559
:1018400083F58275F0C0747F227804EC7011E58214
:1018500024F8500AF582E4C9CACBFCD8EF22EC7810
:1018600020058220E713D5820122C3E933F9EA3348
:10187000FAEB33FBEC33FCD8EA158222AA82AB8365
:10188000A2F73392D16002D2F7F582ACF0E5812461
:10189000F9F8E6FD08E6FE0886F008E6A2F73392BE
:1018A000D56002D2F7F583AFF022AC83AB827A0029
:1018B0007900748E0222BBE582C583F582A2D13302
:1018C000A2D592D11392D5ECCFFCEBCEFBEACDFAA8
:1018D000226040F82582500274FFF582E824F85017
:1018E0001ECCCBCAF9E4CC24F85014CBCAF9E4CB13
:1018F00024F8500BCAF9E4CA24F8500379002224D2
:10190000086010F8C3EC13FCEB13FBEA13FAE913BD
:10191000F9D8F122AA827425C0E07419C0E0C05839
:10192000C0598A8222055FE4B55F02056022AA825F
:1019300074302AFA24C6500A74072AFA3004034382
:1019400002208A82021914E582FAC4540FF582C07B
:101950000212192ED002740F5AF58202192EAA5AB9
:10196000AB5BAC5CAD5DAE5E756520EE2EFEED232F
:101970005401FF4206EA2AFAEB33FBEC33FCED3369
:10198000FDC3EE95614008EEC39561FE430201D5AB
:1019900065D98A5A8B5B8C5C8D5D8E5E22788AE677
:1019A00024D075F00AA4FA788BE624D02AFA788934
:1019B0008603BB2D04C3E49AFA756101C3E4648015
:1019C0008AF063F08095F050297565038A0374F6F8
:1019D0002565401C0561E56514247EF8E565247ED7
:1019E000F98704A604772E1BEBFA6004056580DEF8
:1019F0008B02EA30E70D787F86037880A603787F34
:101A0000762E0AE563600AE56304FB2561F56180D3
:101A100005300F020561787E8603E4BB2D0104FBCF
:101A20007006200A03300B020561300803021AE435
:101A3000300957EB600C75822DC002121914D002C8
:101A4000801C300A0C75822BC002121914D002803F
:101A50000D300B0A758220C002121914D002787F53
:101A60008604BC2E0C758230C002121914D00215E7
:101A700062AC621562C3E5619C4003021B2875825B
:101A800030C002121914D00280E7AC621562C3E5BF
:101A9000619C500C758220C002121914D00280EA99
:101AA000787E8604BC2D0C75822DC002121914D0CC
:101AB00002801C300A0C75822BC002121914D0024D
:101AC000800D300B0A758220C002121914D00278E2
:101AD0007F8604BC2E52758230C002121914D002C7
:101AE00015628044EB600E75822DC002121914D06D
:101AF0000215628020300A0E75822BC00212191462
:101B0000D0021562800F300B0C758220C0021219B2
:101B100014D0021562787F8603BB2E0C758230C00C
:101B200002121914D0021562756501C211E565240F
:101B30007EF88603BB4503021BE5BB2E348A03C334
:101B4000E464808BF063F08095F0500F758230C0B4
:101B500003121914D0031B8B0280E48B02D211E50F
:101B6000637038200F03021BE575822E1219148052
:101B7000743011278A03EB30E71FC3E46480856368
:101B8000F063F08095F0500C758230C00312191488
:101B9000D00315630B8B0280DD8B0230110EC3E482
:101BA00064808563F063F08095F05021E565247EC4
:101BB000F886038B82C002121914D00230110EE590
:101BC00065247EF88603BB2E02800215631562C36E
:101BD000E464808563F063F08095F0400320110594
:101BE0000565021B2DC3E464808563F063F0809576
:101BF000F0500A758230121914156380E830080F0E
:101C0000AA621562EA600875822012191480F12216
:101C1000E5637003300F0D74072563FAE562C39A1C
:101C2000F5628006E56224FAF562756500787E86C5
:101C300002BA2B0F200A0C787E7620200B057565E2
:101C4000010562200819AA62C3E464808AF063F087
:101C50008095F0500A758220121914156280E7C22F
:101C600011E565247EF88602BA00028069BA451F34
:101C70003004027665C3E464808563F063F0809588
:101C8000F0500A758230121914156380E8D211C31E
:101C9000E5659402E433FA7014EA700EC3E46480DC
:101CA0008563F063F08095F04003301116E56524FC
:101CB0007EF886028A82121914E56524FD501215F9
:101CC00063800E7402B56509300F0675822E1219F5
:101CD000140565021C61300819AA62C3E464808A95
:101CE000F063F08095F0500A758220121914156285
:101CF00080E722858258858359E4F55FF560AA66FE
:101D0000AB67AC688A828B838CF01210A8FD7401DB
:101D10002AF566E43BF5678C68EDFA7003022299B8
:101D2000BA25028003022291C208C209C20AC20B6C
:101D3000C20CC20DC20EC20FC205C206C207756137
:101D4000007562007563FFAB66AC67AD688B828C13
:101D5000838DF01210A8FAA3AB82AC838B668C67DC
:101D60008D68BA25078A8212191480928A06BE30BD
:101D700000402E8A06EE24C6402774FFB56313E5A3
:101D80006275F00AA4FEEA24D02EF56270BFD20973
:101D900080BBE56375F00AA4FEEA24D02EF56380CB
:101DA000ACBA2E0A74FFB563A4756300809F8A06DF
:101DB000BE6100400E8A06EE248540075302DFD242
:101DC000048002C204BA20028075BA2303021E4EA8
:101DD000BA2A03021E53BA2B02805FBA2D02805525
:101DE000BA4202805FBA4303021E98BA4403021F3C
:101DF000D3BA4503021FEDBA4603021FE9BA4703EF
:101E0000021FF1BA4903021FD3BA4C02803BBA4EFB
:101E100003021FF5BA4F03021FDABA5003021F6C08
:101E2000BA5303021EBCBA5503021FDFBA5803029D
:101E30001FE402201FD208021D4DD20A021D4DD2FE
:101E40000B021D4DD20D021D4DD20E021D4DD20FA3
:101E5000021D4D74FFB56320300D0BE56914F88841
:101E6000698662021D4DE56924FEF88869860608C8
:101E70008607188E62021D4D300D0BE56914F88837
:101E8000698663021D4DE56924FEF88869860608A7
:101E90008607188E63021D4D300D0AE56914F88817
:101EA000698602800FE56924FEF888698603088642
:101EB00004188B028A82121914022024E56924FD79
:101EC000F88869860308860408860518188B5A8CDA
:101ED0005B8D5C8B828C838DF012171BAB82AC8385
:101EE0008B6474FFB5630385646320081DC3E564D8
:101EF00095625016E562C39564F562AB621562EBBC
:101F0000600875822012191480F1855A82855B83DE
:101F1000855CF01210A8FBFA6029AB631563C3E47B
:101F200064808BF063F08095F050188A8212191447
:101F3000AB5AAC5BAD5C0BBB00010C8B5A8C5B8D60
:101F40005C80C7200803022024C3E5649562400337
:101F5000022024E562C39564F562AB621562EB7002
:101F60000302202475822012191480EEE56924FDF5
:101F7000F88869860308860408860518188B5A8C29
:101F80005B8D5CE55CFB30E7047A438013EB5460C7
:101F900060047A50800AEB30E6047A4980027A586D
:101FA0008A82C00212191475823A1219147582308D
:101FB000121914758278121914D002BA4902800BD2
:101FC000BA50028006855B82121947855A8212191F
:101FD000478051D20C75610A804A75610880457549
:101FE000610A8040756110803BD2058037D206803F
:101FF00033D207802FE56924FDF8886986030886B7
:102000000408860518188B5A8C5B8D5C8B828C8338
:102010008DF0E55F12152EA3E56012152E80058A5E
:1020200082121914200506200603300770E5692482
:10203000FCF8886986030886040886050886061861
:1020400018188B5A8C5B8D5C8E5DE55AE55BE55C00
:10205000E55D8B828C838DF0EE1222DF74FFB56319
:1020600003756306300727747F555DFB8B5EE55E65
:10207000EB2BFB8B5EE55C30E7067401455EF55E9D
:10208000E55E246840067499255E4002D20630065B
:1020900006121C10021CFE12199D021CFEE5617046
:1020A00003021CFE7B83300D2BE56914F88869E67A
:1020B000FC3395E0FDFEFF8C5A8D5B8E5C8F5D20BE
:1020C0000C5EAC5A7D007E007F008C5A8D5B8E5C6E
:1020D0008F5D804C300E1FE56924FCF8886986040A
:1020E0000886050886060886071818188C5A8D5B1E
:1020F0008E5C8F5D802AE56924FEF8886986040875
:10210000860518ED3395E0FEFF8C5A8D5B8E5C8F53
:102110005D200C0CAC5AAD5B7E007F008E5C8F5D49
:10212000300F43E55A455B455C455D60397408B541
:10213000610C758230C003121914D003802874100A
:10214000B56123758230C003121914D00330040C1A
:10215000758278C003121914D003800A758258C0A2
:1021600003121914D003300C25AC5AAD5BAE5CE5FC
:102170005DFF30E717C3E49CFCE49DFDE49EFEE4B4
:102180009FFF8C5A8D5B8E5C8F5D8002C20C7564E4
:1021900000D2108B00755E00C00012195ED00020C6
:1021A000100DE55EC4FCE6FD4CF61888038002A61F
:1021B0005E0564B210E55A455B455C455D70D688A6
:1021C00003E562700375620120091A200817E564AF
:1021D00004FCC39562500E758220C003121914D0FE
:1021E00003156280E9300C0E75822DC0031219149C
:1021F000D00315628024E5646020300A0E75822BBE
:10220000C003121914D0031562800F300B0C7582B5
:1022100020C003121914D003156220081EAC6215E9
:1022200062C3E5649C50273009047C3080027C2026
:102230008C82C003121914D00380E2C3E564956256
:102240005009E562C39564F56280037562008B00F6
:10225000AB641564EB6022B21020100A08E6C45487
:102260000FFB8B5E80078603740F5BF55E855E82D5
:10227000C00012192ED00080D7200803021CFEAB2C
:10228000621562EB7003021CFE7582201219148025
:10229000EE8A82121914021CFE855F8285608322F9
:1022A000AA82AB83A2F73392D16002D2F7F582AC57
:1022B000F022FCABF0AA83A982749EF582C2D1EC15
:1022C00030E716D2D1E9F42401F9EAF43400FAEB4C
:1022D000F43400FBECF43400FC1218490217FAC085
:1022E000E0F84582458345F07009F5F0FBFCFDFE02
:1022F0000223ADE823A2F792E0F8A982AA83D2F7DD
:10230000ABF07C007E07C3749798404074FF2EFEAC
:10231000740A89F0A4F985F082740A8AF0A4FA8517
:10232000F083740A8BF0A4FB740529F9EA3582FA6C
:10233000EB3583FB740035F0FCC3EC13FCEB13FBB3
:10234000EA13FAE913F908EC70EF80BAE8C3947F56
:10235000F88B838EF0E4FBFCFDFEFF08C3E933F944
:10236000EA33FAE58333F583EB3BD4FBEC3CD4FC56
:10237000ED3DD4FDEE3ED4FEEF3FD4FF602D05F0E1
:1023800074052BD4FBE43CD4FCE43DD4FDE43ED402
:10239000FEE43FD4FF758204C3EF13FFEE13FEED9E
:1023A00013FDEC13FCEB13FBD582EDD8AF787ED098
:1023B000E020E704762B8002762D087906E7C454E6
:1023C0000F4430F608B90603762E08E7540F443060
:1023D000F60819B902E7764508E5F020E704762B00
:1023E0008004762DF4040875F00A844430F608E57C
:1023F000F04430F608E4F690007E75F040220000CC
:00000001FF
