:020000040800F2
:1000000000200020B9000008110B0008250B000893
:1000100000000000000000000000000000000000E0
:10002000000000000000000000000000110B0008AC
:100030000000000000000000110B0008110B000878
:10004000110B0008110B0008110B0008110B000820
:10005000110B0008110B0008110B0008110B000810
:1000600000000000110B0008110B0008110B000824
:10007000110B0008110B0008000000003B010008F4
:1000800000000000110B000800000000000000004C
:10009000110B000800000000110B0008110B0008F4
:1000A000110B0008110B0008110B00084106000895
:1000B000110B0008110B000800F0A6FC00F068FC12
:1000C000E1235B02180000F013FA62B6C04600F0AC
:1000D00007F9024B180000F07BFBFEE79C280008A4
:1000E00080B500AF0A4B0B4A5A60094B00229A6058
:1000F000074B05221A60C046054B1A6880235B0235
:100100001340F9D0024B00221A60C046BD4680BDA4
:1001100010E000E0FF7C000080B582B000AF7860A6
:1001200001E0FFF7DDFF7B685A1E7A60002BF8D1F3
:10013000C046C046BD4602B080BD80B500AF80233A
:10014000DB051A698023DB0501218A431A61264BEE
:100150001B685A1C244B1A60244B1B78DBB21A0014
:10016000214B1B689A4209DDA023DB055A69A023B5
:10017000DB05802109010A435A6107E0A023DB0562
:100180005A69A023DB051A490A405A61194B1B78AA
:10019000DBB21A00144B1B689A4209DDA023DB0571
:1001A0005A69A023DB05802149010A435A6107E00F
:1001B000A023DB055A69A023DB050F490A405A61D9
:1001C000094B1B68642B0BDD074B00221A60A02330
:1001D000DB055A69A023DB05C02149010A435A61A6
:1001E000C046BD4680BDC0466C0000200000002017
:1001F000FFF7FFFF01000020FFEFFFFF80B500AF1A
:10020000314BDA6A304B01210A43DA62A023DB0565
:100210001B682E4A1A40A023DB058021C9030A432C
:100220001A60A023DB055A68A023DB0528490A4091
:100230005A60A023DB051B68264A1A40A023DB0571
:10024000802149040A431A60A023DB055A68A023D1
:10025000DB0521490A405A601B4B9A6B1A4B01215E
:100260000A439A638023DB054022FF32DA621B4B8C
:100270001A681A4B802109020A431A608023DB05A1
:100280001A688023DB0510210A431A608023DB05EE
:100290001A688023DB0580210A431A608023DB056E
:1002A000DA688023DB0501210A43DA608023DB055D
:1002B0001A688023DB0501210A431A6062B6C04632
:1002C000C046BD4680BDC04600100240FFFF3FFF54
:1002D000FFF7FFFFFFFFFFFCFFEFFFFF00E100E084
:1002E00080B58AB000AFFFF789FFFA235B001800E2
:1002F000FFF712FF304B180001F036FA2F4B1800B1
:1003000001F032FA2E4B180001F02EFA2D4B180096
:1003100001F09EF92C4B1B689B68180000F01EFF33
:100320003B1D1F21180000F0E6FA284B180001F0D1
:100330001BFA3B1D180000F039FE03007B627B6A4C
:10034000002B0DD07B6A642B01DD64237B627B6A0A
:10035000002B01DA00237B627B6ADAB21C4B1A7035
:100360001C4B180001F074F9174B1B689B681800B0
:1003700000F0F4FE3B1D1F21180000F0BCFA134BE7
:10038000180001F0F1F93B1D180000F00FFE03000A
:100390007B627B6A002BB9D07B6A642B01DD64230E
:1003A0007B627B6A002B01DA00237B627B6ADAB214
:1003B000094B1A70AAE7C046D8270008142800087D
:1003C000442800087028000808000020842800083D
:1003D00000000020882800080100002090B585B0AA
:1003E00000AF78603960184B1B68002B02D10123E5
:1003F0005B4224E00023FB600AE0FB685A1CFA60C1
:100400003A68D418114B180000F0ADF903002370BE
:100410007B68013B1A00FB68934205D20B4B180026
:1004200000F0CCF9031EE8D1FB68002B06D03A6837
:10043000FB68D31800221A70FB6800E00023180044
:10044000BD4605B090BDC0460801002070000020E8
:1004500080B584B000AF78603960224B1B68002BF8
:1004600002D101235B4238E07B683F2B0BDCC046A6
:100470001D4B180000F0A2F903004022D21A7B683D
:100480009A42F5D302E002235B4226E00023FB60A0
:100490000BE03A68FB68D3181A78134B1100180068
:1004A00000F030F9FB680133FB607B68FA689A4220
:1004B000EFD30E4B1B68082213400DD10B4B1A686B
:1004C0000A4B08210A431A60074B180000F04BF949
:1004D00003001A00054B9A6200231800BD4604B0C1
:1004E00080BDC04608010020BC000020003801404B
:1004F00080B584B000AF786072B6C046454B00222C
:100500009A64444B9A6C434B5A64424B5A6C414B2D
:100510001A64414B00229A643F4B9A6C3E4B5A64DA
:100520003D4B5A6C3C4B1A643C4B01221A603C4BCD
:1005300000221A603B4BDA6A3A4B01210A43DA6225
:10054000394BFB607968F86800F044FC0300FB60FD
:10055000A023DB059A68A023DB058021C9020A439A
:100560009A60A023DB055A68A023DB052F490A40C7
:100570005A60A023DB051B682D4A1A40A023DB0527
:10058000802109030A431A60A023DB055A6AA023CD
:10059000DB0540210A435A62A023DB051B68254A7C
:1005A0001A40A023DB05802189030A431A60A02397
:1005B000DB055A6AA023DB058021C9000A435A6281
:1005C000184B5A6B174B8021C9010A435A631A4BC7
:1005D0001A68194B6C210A431A60174B00225A60A3
:1005E000154B00229A60144BFA68DA60124B1A68B5
:1005F000114B01210A431A60104B1A680F4B8021DE
:1006000009050A431A6062B6C046C046BD4604B03A
:1006100080BDC04670000020BC0000200801002002
:100620000C010020001002400048E801FFFDFFFF20
:10063000FFFFF3FFFFFFCFFF0038014000E100E0C4
:1006400080B500AF084BDB698022134001D000F079
:1006500025F8054BDB692022134001D000F006F895
:10066000C046BD4680BDC0460038014080B500AFE1
:10067000074B5B6ADAB2074B1100180000F042F832
:10068000031E02D0044B01221A60C046BD4680BD45
:1006900000380140700000200C01002080B500AF40
:1006A000164B180000F08AF8031E08D0134B1800F0
:1006B00000F059F803001A00114B9A621BE0104B2E
:1006C0001A680F4B08218A431A600D4BDB694022E0
:1006D000134005D00A4B1A6A094B40210A431A629B
:1006E000074BDB698022134005D0054B9A69044B08
:1006F00010210A439A61C046BD4680BDBC0000205F
:100700000038014080B582B000AF78600A00FB1C61
:100710001A707B681A6C7B685B6C9A4205D17B68A7
:100720009B6C002B01D0012319E072B6C0467B6898
:100730001B6C591C7A6811647A68F91C0978D154C9
:100740007B689B6C5A1C7B689A647B681B6C402B93
:1007500002D17B6800221A6462B6C04600231800EA
:10076000BD4602B080BD80B584B000AF78607B68C4
:100770009B6C002B01D100231CE072B6C0467B6845
:100780005B6C591C7A6851640F22BA187968CB5C8B
:1007900013707B685B6C402B02D17B6800225A642B
:1007A0007B689B6C5A1E7B689A6462B6C0460F23B6
:1007B000FB181B781800BD4604B080BD80B582B020
:1007C00000AF78607B689B6C1800BD4602B080BDAE
:1007D00080B582B000AF78600B4B1B68002B09D14D
:1007E00001235B420BE07B685A1C7A6019000120F0
:1007F000FFF72EFE7B681B78002BF4D10023180036
:10080000BD4602B080BDC0460801002080B582B060
:1008100000AF0200FB1D1A70FB1D19000120FFF73D
:1008200017FEC046BD4602B080BD80B500AF044B88
:100830001800FFF798FF03001800BD4680BDC046B2
:1008400070000020B0B584B000AF786039601E4BF6
:100850001B68002B02D101235B4231E00023FB60C7
:100860000B23FB1800221A7017E0C046174B180024
:10087000FFF7A4FF031EF9D00B257C19134B1800BA
:10088000FFF771FF03002370FB685A1CFA601A001F
:100890007B689B187A1912781A703B68013BFA68DA
:1008A0009A4204DA0B23FB181B780D2BDDD1FB6871
:1008B000002B04DDFB687A68D31800221A70FB68ED
:1008C0001800BD4604B0B0BD080100207000002033
:1008D00090B583B000AFFC1DFFF7A7FF03002370A6
:1008E000FB1D1B781800FFF791FFFB1D1B781800FC
:1008F000BD4603B090BDB0B584B000AF786039603C
:10090000214B1B68002B02D101235B4237E00023FF
:10091000FB600B23FB1800221A701DE0C0461B4B26
:100920001800FFF74BFF031EF9D00B257C19174B5E
:100930001800FFF718FF030023702C003B191B78E9
:100940001800FFF763FFFB685A1CFA601A007B6807
:100950009B183A1912781A703B68013BFA689A4260
:1009600004DA0B23FB181B780D2BD7D1FB68002B67
:1009700004DDFB687A68D31800221A70FB6818003F
:10098000BD4604B0B0BDC046080100207000002084
:1009900080B582B000AF164B7B60164B3B6007E022
:1009A0007A68131D7B603B68191D396012681A60F4
:1009B0003A68114B9A42F3D304E03B681A1D3A603F
:1009C00000221A603A680D4B9A42F6D30C4B3B60FA
:1009D00004E03B681A1D3A601B6898473A68094B67
:1009E0009A42F6D3C046C046BD4602B080BDC0465E
:1009F000B02A0008000000206C0000203401002014
:100A0000B02A0008B02A000880B500AF3B4B1A6836
:100A10003A4B01210A431A60C046384B1B68042236
:100A20001340FAD0354B0122DA60C046334BDB6805
:100A30000C221340042BF9D1314B1A68304B0221A0
:100A40000A431A602E4B1A682D4B01210A431A6083
:100A50002A4B9A6B294B802149050A439A63294BFB
:100A6000802212011A60C046264B5B681022134098
:100A7000FAD1224BDA68214B23490A40DA601F4B36
:100A8000DA681E4B8821C9030A43DA601B4A1B4BF4
:100A9000D268DA60194A194BD268DA60174A174BE4
:100AA000D268DA60154B1A68144B18490A401A606C
:100AB000124B1A68114B802149040A431A60C04640
:100AC0000E4B1A6880239B041340F9D00B4BDA6855
:100AD0000A4B03218A43DA60084BDA68074B03218B
:100AE0000A43DA60C046054BDB680C2213400C2B2E
:100AF000F9D1C046C046BD4680BDC0460010024088
:100B00000020024000700040FFFF02FFFFFFFFFED9
:100B100080B500AF024B1800FFF75AFEFEE7C04653
:100B2000C428000880B500AF024B1800FFF750FE44
:100B3000FEE7C046F428000880B582B000AF7860B8
:100B4000FEE780B582B000AF786001235B421800F9
:100B5000BD4602B080BD80B584B000AFF860B9601A
:100B60007A60044B0C221A6001235B421800BD46D8
:100B700004B080BD1C01002080B500AF034B0B22E8
:100B80001A6001235B421800BD4680BD1C01002095
:100B900080B582B000AF786039603B6880229201F6
:100BA0005A6000231800BD4602B080BD80B500AF7A
:100BB00001231800BD4680BD80B582B000AF7860CB
:100BC0003960044B16221A6001235B421800BD46AF
:100BD00002B080BD1C01002080B582B000AF7860FB
:100BE0003960044B1F221A6001235B421800BD4686
:100BF00002B080BD1C01002080B584B000AFF86059
:100C0000B9607A6000231800BD4604B080BD80B58D
:100C100082B000AF786039603B68802292015A60F0
:100C200000231800BD4602B080BD80B582B000AF81
:100C3000786001235B421800BD4602B080BD80B5DC
:100C400082B000AF7860044B02221A6001235B423D
:100C50001800BD4602B080BD1C01002080B582B0E6
:100C600000AF7860044B0A221A6001235B4218002F
:100C7000BD4602B080BDC0461C01002080B582B0D8
:100C800000AF78607B68022B01D8012303E0044B9E
:100C900009221A6000231800BD4602B080BDC0467C
:100CA0001C01002080B586B000AF7860124B7B61DC
:100CB000124B3B61124B1B68002B02D1104B7A691F
:100CC0001A600F4B1B68FB600D4B1A687B68D318CA
:100CD0003A699A4205D20B4B0C221A6001235B42FF
:100CE00006E0074B1A687B68D218054B1A60FB6850
:100CF0001800BD4606B080BD340100200010002061
:100D0000180100201C01002080B588B000AFF860F9
:100D1000B9607A600023BB61FB68002B22D10023FD
:100D2000FB611AE0FFF781FD03001A0017217B1811
:100D30001A70BB685A1CBA607A181278D2B21A704C
:100D4000BB690133BB617B181B78DBB20A2B01D175
:100D5000BB690EE0FB690133FB61FA697B689A426B
:100D6000E0DB05E0054B09221A6001235B4200E04D
:100D7000BB691800BD4608B080BDC0461C010020FC
:100D800080B586B000AFF860B9607A60FB68013B5F
:100D9000012B11D800237B6109E0BB685A1CBA60A3
:100DA0001B781800FFF732FD7B6901337B617A699C
:100DB0007B689A42F1DB05E0054B09221A600123AA
:100DC0005B4200E07B681800BD4606B080BDC046AF
:100DD0001C01002003460B437FD4002243088B42B2
:100DE00074D303098B425FD3030A8B4244D3030BB2
:100DF0008B4228D3030C8B420DD3FF22090212BA77
:100E0000030C8B4202D31212090265D0030B8B42F2
:100E100019D300E0090AC30B8B4201D3CB03C01ADC
:100E20005241830B8B4201D38B03C01A5241430BB7
:100E30008B4201D34B03C01A5241030B8B4201D3A7
:100E40000B03C01A5241C30A8B4201D3CB02C01A12
:100E50005241830A8B4201D38B02C01A5241430A8A
:100E60008B4201D34B02C01A5241030A8B4201D379
:100E70000B02C01A5241CDD2C3098B4201D3CB0120
:100E8000C01A524183098B4201D38B01C01A5241CF
:100E900043098B4201D34B01C01A524103098B42D3
:100EA00001D30B01C01A5241C3088B4201D3CB00BE
:100EB000C01A524183088B4201D38B00C01A5241A1
:100EC00043088B4201D34B00C01A5241411A00D251
:100ED00001465241104670475DE0CA0F00D04942BA
:100EE000031000D34042534000229C4603098B422A
:100EF0002DD3030A8B4212D3FC22890112BA030AB2
:100F00008B420CD3890192118B4208D38901921133
:100F10008B4204D389013AD0921100E08909C309B8
:100F20008B4201D3CB01C01A524183098B4201D3BA
:100F30008B01C01A524143098B4201D34B01C01AA5
:100F4000524103098B4201D30B01C01A5241C3081D
:100F50008B4201D3CB00C01A524183088B4201D38C
:100F60008B00C01A5241D9D243088B4201D34B00A7
:100F7000C01A5241411A00D20146634652415B10E9
:100F8000104601D34042002B00D5494270476346CA
:100F90005B1000D3404201B5002000F005F802BD0F
:100FA0000029F8D016E770477047C04610B50A22EE
:100FB000002100F0E1FC10BD10B50A23002200F072
:100FC000CBFC10BDF7B58B8905000C001A075FD468
:100FD0004A68002A04DC0A6C002A01DC0020FEBDFD
:100FE000E76A002FFAD0002280212E682A601A00BA
:100FF00049010A400B4234D0606DA3895B0706D5D6
:101000006368C01A636B002B01D0236CC01A020006
:10101000216A00232800E76AB847A189431C06D14A
:101020002B681D2B31D82C4ADA40D3072DD500234D
:10103000636023692360CB0405D5431C02D12B6870
:10104000002B00D16065616B2E600029C6D02300A3
:101050004433994202D0280000F004FA0020606373
:10106000BDE701232800216AB847431CC5D12B687E
:10107000002BC2D01D2B01D0162B01D12E60ADE765
:101080004023A2891343A381A9E740230B43FAE736
:101090000F69002FA2D00A680F60D21B01920022B4
:1010A0009B0700D14A69A260019B002B00DC95E7F9
:1010B0003A002800019B216AA66AB047002806DC96
:1010C00040230120A28940421343A38187E7019B6B
:1010D0003F181B1A0193E7E7010040200B6970B528
:1010E00005000C00002B02D10025280070BD00284F
:1010F00004D08369002B01D100F0C8F8144B9C4246
:101100001BD16C680C22A35E002BEDD0626ED2075F
:1011100004D49B0502D4A06D00F094F928002100AE
:10112000FFF750FF636E0500DB07DED4A3899B0544
:10113000DBD4A06D00F08CF9D7E7064B9C4201D1BF
:10114000AC68DFE7044B9C42DCD1EC68DAE7C046D0
:10115000382900085829000818290008010010B58E
:10116000002805D1054B0649186800F046F910BD66
:10117000044B1868FFF7B2FFF9E7C046782900086A
:10118000DD10000808000020002310B504000360F3
:1011900043608360818143661900C28103614361BA
:1011A000836108225C3000F054F9054B24626362CD
:1011B000044BA362044BE362044B236310BDC0469F
:1011C000A1170008CD1700080518000831180008FD
:1011D00010B5024900F011F910BDC046DD1000083D
:1011E000436E10B5DB0705D483899B0502D4806D5F
:1011F00000F028F9002010BD436E10B5DB0705D4C0
:1012000083899B0502D4806D00F022F9002010BD77
:1012100070B568254A1E55430E002900743100F050
:101220008DF9041E08D000212A00016046600C30B0
:10123000A060683200F00DF9200070BD10B5024BBF
:101240001868FFF7C5FF10BD7829000810B50248DF
:1012500000F0F8F810BDC0462601002010B5024885
:1012600000F0F6F810BDC0462601002010B5024877
:1012700000F0E8F810BDC0462701002010B5024874
:1012800000F0E6F810BDC0462701002013B50400A9
:10129000FFF7ECFFA369002B02D0FFF7EFFF13BDB0
:1012A000A364E3642365134B134A1B68A262019392
:1012B000A34201D10123A361200000F01FF8606068
:1012C000200000F01BF8A060200000F017F80022BA
:1012D0000421E0606068FFF757FF01220921A06840
:1012E000FFF752FF02221221E068FFF74DFF0123B2
:1012F000A361D2E778290008D1110008F8B50700EA
:10130000FFF7A4FF1F4B1E68B369002B02D130000A
:10131000FFF7BCFF4836B4687368013B04D53368F7
:10132000002B22D03668F6E70C22A55E002D1AD1DC
:101330002000154B5830E360656600F07FF8FFF73A
:101340008DFF2000082229002560A56065602561C9
:101350006561A5615C3000F07CF86563A563A564F8
:10136000E5642000F8BD6834D7E704213800FFF7B2
:101370004FFF041E3060D5D1FFF770FF0C233B6098
:10138000EFE7C046782900080100FFFF10B5FFF71E
:101390005DFF034B0349186800F014F810BDC04608
:1013A00008000020E111000810B5044B044918683A
:1013B00000F008F8FFF752FF10BDC04608000020FB
:1013C000F9110008F7B54830040000260191A5681E
:1013D0006768013F04D52468002CF8D13000FEBDB9
:1013E000AB89012B07D90E22AB5E013303D0280055
:1013F000019B984706436835EBE7F7B50400060004
:101400000027019148346368A5680093009B013B65
:10141000009304D52468002CF5D13800FEBDAB89BB
:10142000012B08D90E22AB5E013304D02900300015
:10143000019B984707436835E8E770477047704756
:101440007047704770470120704701207047704710
:10145000704703008218934200D17047197001331E
:10146000F9E7000070B50500002910D00C1F2368B3
:10147000002B00DAE418280000F00EFC1D4A136867
:10148000002B05D163601460280000F00DFC70BDD6
:10149000A34208D9216860188342F3D118685B68B9
:1014A00041182160EEE71A005B68002B01D0A342CF
:1014B000F9D911685018A0420BD1206809185018AA
:1014C00011608342E0D118685B6841181160536075
:1014D000DAE7A04202D90C232B60D5E72168601817
:1014E000834203D118685B684118216063605460CF
:1014F000CAE7C0462C01002070B50F4E0D003168C0
:101500000400002902D100F039F9306029002000E0
:1015100000F034F9431C0AD00323C51C9D43A842A4
:1015200007D0291A200000F029F9431C01D1012518
:101530006D42280070BDC04630010020F7B503227F
:10154000CB1C9343083306001F000C2B32D20C2710
:10155000B94231D8300000F09FFB324D2B681C009F
:10156000002C2ED139003000FFF7C6FF0400431CC9
:101570001ED12C682500002D4AD123682900E318CC
:101580003000019300F0FAF8019B834243D12368B5
:101590000337FF1A03239F4308370C2F00D20C2771
:1015A00039003000FFF7A8FF431C34D02368DF194F
:1015B000276013E0002BCBDA0C23002533602800D2
:1015C000FEBD2268D11B20D40B2917D9E219276050
:1015D000A34211D12A606368116053603000250076
:1015E00000F062FB07220B35231D9543EA1A9D424A
:1015F000E5D05B1BA350E2E75A60ECE76268A342C8
:1016000001D12A60EAE75A60E8E723006468A7E7A7
:101610002C006D68AFE70C233000336000F044FB12
:10162000CDE7C0462C0100200EB417B5041E04D02F
:101630008369002B01D1FFF729FE06AB2000059A34
:10164000A168019300F06EFB1EBC08BC03B01847F4
:101650000FB40B4B13B51C68002C05D0A369002BED
:1016600002D12000FFF712FE05AB2000049AA1680A
:10167000019300F057FB16BC08BC04B01847C046E5
:101680000800002070B505000E00002804D0836912
:10169000002B01D1FFF7FAFDAB69AC68002B02D13A
:1016A0002800FFF7F3FD2D4B9C4222D16C68636E3E
:1016B000DB0705D4A3899B0502D4A06DFFF7C2FE0A
:1016C000A3891B0702D52369002B29D121002800FB
:1016D00000F0D2F9002823D001256D42636EDB07AC
:1016E00005D4A3899B0502D4A06DFFF7B1FE2800A5
:1016F00070BD1B4B9C4201D1AC68D8E7194B9C4292
:10170000D5D1EC68D3E70136A360002B04DAA269D7
:101710009A4216DC0A2914D023685A1C22601970D8
:10172000A3683178013B0029EDD1A360002B0FDACB
:10173000280022000A3100F02BF90A25431CCDD1E4
:10174000CAE72200280000F023F9431CE8D1C3E7D0
:101750000A2523685A1C22601D70BFE7382900083B
:10176000582900081829000810B5034B0100186813
:10177000FFF788FF10BDC04608000020002370B5A9
:10178000064D040008002B60FFF78CFA431C03D1C0
:101790002B68002B00D0236070BDC0461C010020C8
:1017A00070B50C000E25495F00F084FD002803DBB6
:1017B000636D1B18636570BDA389024A1340A38142
:1017C000F9E7C046FFEFFFFF00207047F8B51F00A4
:1017D0008B8905000C001600DB0505D50E23C95EBC
:1017E0000022022300F0D8F9A389054A28001340FB
:1017F000A38132000E23E15E3B0000F029F9F8BD21
:10180000FFEFFFFF70B50C000E25495F00F0C4F933
:10181000A389421C03D1054A1340A38170BD8022D5
:1018200052011343A3816065F8E7C046FFEFFFFF55
:1018300010B50E23C95E00F097F910BDF0B587B062
:101840001E00059001910292012B45D00B00242E21
:1018500042D83F4A082194461A0060461478013362
:10186000005D1D0007000F400842F5D12D2C3AD134
:1018700001271C78951C002E65D0102E09D1302C24
:1018800007D120222B789343582B57D110266C7800
:101890000235304B3100FB181800039300F098FF1D
:1018A000002301228446180004915242210030395D
:1018B00009291DD80C00A64228DD002B24DB1300CB
:1018C000844506D302D10499A14202DB012370436F
:1018D00020182C780135E9E700F058F91623036049
:1018E000002007B0F0BD2B2CC5D11C78951CC2E799
:1018F00021004139192901D8373CDCE72100613941
:10190000192903D8573CD6E71300E2E7002B09DA80
:101910002223059A03981360029B002BE1D06B1ED3
:10192000019307E0002F00D04042029A002AD8D04D
:10193000002BF4D1029B019A1A60D2E73024002ECA
:10194000A7D10836A5E7302C9BD00A26A1E7C046D0
:101950007D290008FFFFFF7F10B5FFF76FFF10BD67
:1019600010B513000A00010002480068FFF766FF87
:1019700010BDC0460800002010B513000A00010089
:1019800002480068FFF75AFF10BDC046080000205B
:10199000F8B505000E001400002804D08369002B60
:1019A00001D1FFF773FC224B9C422ED16C68A369D6
:1019B000A360A3891B0732D52369002B2FD023688E
:1019C0002269F7B2981A6369F6B2834205DC2100F6
:1019D0002800FFF783FB002827D1A3680130013BD3
:1019E000A36023685A1C22601F706369834204D07D
:1019F000A389DB0707D50A2E05D121002800FFF7B0
:101A00006DFB002811D13000F8BD0A4B9C4201D17A
:101A1000AC68CCE7084B9C42C9D1EC68C7E7210011
:101A2000280000F029F80028C9D001267642EAE70C
:101A300038290008582900081829000810B5034B58
:101A40000A0001001868FFF7A3FF10BD080000207E
:101A500070B50400080011001A000023054D2B602A
:101A6000FFF78EF9431C03D12B68002B00D02360B5
:101A700070BDC0461C010020374B70B51D680600C4
:101A80000C00002D05D0AB69002B02D12800FFF718
:101A9000FDFB324B9C420FD16C680C23E25E93B28B
:101AA00011072DD4D90611D409230120336037330F
:101AB0001343A381404270BD294B9C4201D1AC68C5
:101AC000EBE7284B9C42E8D1EC68E6E75B0713D5CF
:101AD000616B002908D023004433994202D03000C2
:101AE000FFF7C0FC002363632422A3899343A381EF
:101AF00000236360236923600823A2891343A38121
:101B00002369002B0BD1A0218022A3898900920098
:101B10000B40934203D02100300000F079F80C22F2
:101B2000A35E01201A0099B2024003420FD00022A6
:101B3000A26062695242A261002022698242BAD147
:101B40000A06B8D540221343A3810138B3E78807BA
:101B500000D46269A260EFE708000020382900087D
:101B60005829000818290008002370B5064D040004
:101B700008002B60FEF7E5FF431C03D12B68002B08
:101B800000D0236070BDC0461C010020014B1868C6
:101B90007047C0460800002070B50400080011001E
:101BA0001A000023054D2B60FFF726F8431C03D1D4
:101BB0002B68002B00D0236070BDC0461C010020A4
:101BC00070B50E001D000E23C95E140096B00029EA
:101BD00008DA0C22B35E00222A601B0611D480238F
:101BE000DB000FE06A4600F079FB0028F1DBF02310
:101BF00001991B021940054BC9184B4259412960F4
:101C0000EDE740230020236016B070BD00E0FFFF29
:101C1000F7B502268B8905000C00334206D023005D
:101C200047332360236101236361F7BD6A4601AB3B
:101C3000FFF7C6FF009907002800FFF77FFC002888
:101C400008D10C22A35E9A05EFD4032293431E43CE
:101C5000A681E4E70F4BAB628023A2892060134387
:101C6000A381009B20616361019B002B0DD02800A4
:101C70000E23E15E00F0ACFC002806D00322A3890D
:101C800093431A0001231343A381A0890743A7812B
:101C9000CBE7C046D111000810B50248FFF7D2FBD0
:101CA00010BDC0462501002010B50248FFF7D0FB4B
:101CB00010BDC04625010020936810B5013B93601C
:101CC000002B04DA9469A34207DB0A2905D01368C4
:101CD000581C10601970080010BDFFF759FE010074
:101CE000F9E7F8B506000F001400D518AC4201D191
:101CF000002007E021783A003000FFF7DDFF0134D3
:101D0000431CF3D1F8BD936810B51400002B02D129
:101D10001800536010BD00F0F3FA0023A360636065
:101D2000F8E70000F0B5A1B006000C001F00039218
:101D3000002804D08369002B01D1FFF7A7FA8E4B4E
:101D40009C421CD17468636EDB0705D4A3899B0594
:101D500002D4A06DFFF776FBA3891B0702D5236988
:101D6000002B1DD121003000FFF786FE002817D080
:101D7000636EDB070DD50120404221B0F0BD7F4BE3
:101D80009C4201D1B468DEE77D4B9C42DBD1F46814
:101D9000D9E7A3899B05EED4A06DFFF759FBEAE7CD
:101DA000002308AD6B6120336B761033AB76079759
:101DB000039F3B78002B01D0252B4ED1039BFB1AB0
:101DC0000593039B9F420DD0059B21003000039A91
:101DD000FFF787FF431C00D1B5E06A69059B944675
:101DE00063446B613B78002B00D1ACE001227B1C8B
:101DF0000393002352426A6004A9543252182B60A4
:101E0000EB60AB601370AB65039B052219785D48EE
:101E100000F0F0FB039B5F1C002820D12A68D3064A
:101E200004D5532304A95B1820211970130704D586
:101E3000532304A95B182B211970039B1B782A2BB1
:101E400016D00021EB68039F3A78781C303A84461C
:101E5000092A4FD9002911D117E00137A9E7494BC9
:101E60002A68C01A0123834013432B600397CBE7F2
:101E7000079B191D1B680791002B01DB0B9304E0E6
:101E80005B42EB60022313432B603B782E2B0AD17D
:101E90007B782A2B37D1079B02371A1D1B680792C4
:101EA000002B2DDB099303223978374800F0A2FB81
:101EB000002807D0344B2A68C01A402383401343BC
:101EC00001372B6039787B1C062230480393297632
:101ED00000F090FB002845D02D4B002B27D1072286
:101EE000079B07339343083307936B69049A9B1846
:101EF0006B615DE70A214B4367469B180939A3E7ED
:101F000001235B42CEE700231A0001376B6039786A
:101F1000781C30398446092903D9002BC3D0099293
:101F2000C1E70A235A4367465218093BEFE707AB5C
:101F30000093220029003000164B00E000BF0490FF
:101F4000049B0133D1D1636EDB0705D4A3899B05C4
:101F500002D4A06DFFF77CFAA3895B0600D50AE7DF
:101F60000D980AE707AB0093220029003000094BC7
:101F700000F08EF8E3E7C046382900085829000829
:101F8000182900087D2A0008832A0008872A0008EB
:101F900000000000E31C000810B513000A00010057
:101FA00002480068FFF7BEFE10BDC04608000020D2
:101FB000F7B5150001938A680B690C0000909342F5
:101FC00000DA130022002B6043321278002A01D07D
:101FD00001332B6023689B0602D52B6802332B60EC
:101FE0002268062317001F401A4227D023004333DC
:101FF0001B785A1E93412268920630D42200019920
:102000000098089E4332B047431C25D00623206821
:102010002A68E16800250340042B03D18D1AEB43A5
:10202000DB171D40A3682269934201DD9B1AED185E
:102030000027BD4220D1002010E00137E3682A6864
:102040009B1ABB42D2DD2200012301990098089E11
:102050001932B047431CF0D101204042FEBD302070
:10206000E1184331087021005A1C45310978A21843
:10207000433202331170C1E7220001230199009815
:10208000089E1A32B047431CE6D00137D1E7000062
:10209000F0B58BB006920A00433207930590049284
:1020A0000A7E0C00109B782A07D8622A09D8002AD9
:1020B00000D1C1E0582A00D18CE0260042363270AF
:1020C00022E0100063381528F7D800F0F1FA160066
:1020D0001F00F6FFF6FFF6FFF6FF1F00F6FFF6FF04
:1020E000F6FFF6FFA80036009A00F6FFF6FFB900EB
:1020F000F6FF3600F6FFF6FF9E0026001A6842360D
:10210000111D1960136833700123A7E0086819686E
:102110000A1D05060BD50D681A60002D03DA2D2364
:10212000049A6D421370614B0A2703931BE00D68FC
:102130001A604106F1D52DB2EFE70D681968081D48
:1021400018602E0601D50D6803E06D06FBD50D68FD
:10215000ADB2564B082703936F2A00D002372300F5
:10216000002243331A706368A360002B03DB042250
:10217000216891432160002D02D1049E002B0CD0D8
:10218000049E2800390000F023FB039B013E5B5CAA
:1021900033702B0005009F42F3D9082F09D1236823
:1021A000DB0706D563682269934202DC3023013ED7
:1021B0003370049B9B1B2361079B210000930598B0
:1021C000069B09AAFFF7F4FE431C4CD101204042B4
:1021D0000BB0F0BD45310A70344A03921A68216889
:1021E00020CA1A60080616D5CB0702D5202319434A
:1021F00021601027002DB2D1202322689A4322604B
:10220000ADE7202209680A43226022007821453286
:102210001170274AE1E74806E6D5ADB2E4E71A684F
:102220000D68101D4969186013682E0601D51960E4
:1022300002E06D06FBD519800023049E2361BBE7F5
:102240001A68111D1960166800213000626800F0DC
:10225000D1F9002801D0801B6060636823610023EE
:10226000049A1370A8E72369320006990598079D20
:10227000A847431CAAD023689B0715D4099BE06894
:102280009842A5DA1800A3E72200012306990598D1
:10229000079E1932B047431C98D00135E368099A6C
:1022A0009B1AAB42F0DCE9E70025F7E78E2A00082D
:1022B0009F2A000870B50400080011001A000023CE
:1022C000054D2B60FEF720FD431C03D12B68002B2E
:1022D00000D0236070BDC0461C010020002370B5F3
:1022E000064D0400080011002B60FEF751FC431C52
:1022F00003D12B68002B00D0236070BD1C0100208F
:10230000F0B5936887B00C0017000390002B02D142
:10231000002007B0F0BD8B891B0759D50B69002B36
:1023200056D03B6802220293A38918001040134242
:1023300075D1012201211A400B4200D1ADE0060007
:1023400001900490049B002B00D116E100280CD1D1
:102350001A000A21300000F04DF9049B013301936B
:10236000002802D00130831B0193019B049A05933E
:10237000934200D90592206822696369904200D88F
:1023800004E1A2689D18059AAA4200DCFEE0310033
:102390002A0000F043F9236821005B1903982360A9
:1023A000FEF79CFE002873D1019B01205B1B01936B
:1023B00005D121000398FEF791FE002868D1049B07
:1023C00076195B1B0493BB685D1BBD60BAD19FE7A8
:1023D00021000398FFF750FB0028A2D001204042C3
:1023E00097E7029B1B680193029B5D680833029389
:1023F000002DF6D0724A2B00954200D91300019AA5
:10240000216A0398A66AB047002841DD019B2D1A76
:102410001B180193BB68181AB860E9D178E700234C
:102420001D000193E4E7029B1B680493029B5B6819
:102430000193029B08330293019B002BF3D080236E
:10244000A2899B002068A5681A4264D0019B9D4226
:1024500038D89023DB001A4234D02169431A032074
:10246000059363695843059BC60F361801980133DD
:102470001B187610B34200D91E0053053CD531001D
:102480000398FFF75BF8051E0AD10C23039A13602B
:102490004023A2891343A381A0E704920192CBE7D2
:1024A000059A216900F0B1F8A389464A1A408023B1
:1024B0001343A381059B2561ED1825606661019D8D
:1024C000F61AA660019EB54200D935002A0004998B
:1024D000206800F0A3F8A3685B1BA36023685D1964
:1024E0002560049B9B190493019B9B1B0193BB6874
:1024F0009E1BBE60A0D10BE73200039800F0A1F84C
:10250000051ED7D121690398FEF7ACFF8022A3896D
:102510009343A381B9E72369834203D36669019B8F
:102520009E4217D9019B9D4200D91D002A000499A3
:1025300000F074F8A36822685B1B52192E00A36098
:102540002260002BCDD121000398FEF7C7FD0028A3
:10255000C7D09DE7019A1C4B10009A4200D91B4836
:102560003100FEF737FC3300049A4343216A039895
:10257000A56AA847061EB4DC8AE7029B00201E68F5
:102580005B680493029B08330293DBE6059A93424F
:1025900008DCA56A3200216A0398A847051E00DD01
:1025A00002E775E7059A310000F038F8059AA3684C
:1025B00015009B1AA36023689B182360F4E6C046AD
:1025C00000FCFF7F7FFBFFFFFEFFFF7FFFFFFF7F22
:1025D000002370B5064D040008002B60FEF74EFB8B
:1025E000431C03D12B68002B00D0236070BDC04674
:1025F0001C010020C9B28218904201D1002070470E
:1026000003788B42FBD00130F6E7002310B59A42E5
:1026100000D110BDCC5CC4540133F8E710B588423A
:1026200002D98B18984203D3002307E08B5C8354B4
:10263000013AFBD210BDCC5CC45401339A42FAD1AA
:10264000F8E7F7B507000E001400002905D11100C6
:10265000FEF774FF05002800FEBD002A03D1FEF737
:1026600001FF2500F7E700F01BF80190844203D832
:1026700035004308A342EED321003800FEF75EFF89
:10268000051EE8D0019B22009C4200D91A003100AF
:102690002800FFF7BAFF31003800FEF7E3FEDAE763
:1026A0000B1F1B68181F002B01DA0B58C01870474E
:1026B00003B47146490840004900095E49008E4450
:1026C00003BC7047002243088B4274D303098B423A
:1026D0005FD3030A8B4244D3030B8B4228D3030CF2
:1026E0008B420DD3FF22090212BA030C8B4202D394
:1026F0001212090265D0030B8B4219D300E0090ABC
:10270000C30B8B4201D3CB03C01A5241830B8B42C4
:1027100001D38B03C01A5241430B8B4201D34B03AD
:10272000C01A5241030B8B4201D30B03C01A524112
:10273000C30A8B4201D3CB02C01A5241830A8B4297
:1027400001D38B02C01A5241430A8B4201D34B0280
:10275000C01A5241030A8B4201D30B02C01A5241E4
:10276000CDD2C3098B4201D3CB01C01A5241830998
:102770008B4201D38B01C01A524143098B4201D3D2
:102780004B01C01A524103098B4201D30B01C01AFD
:102790005241C3088B4201D3CB00C01A5241830877
:1027A0008B4201D38B00C01A524143088B4201D3A4
:1027B0004B00C01A5241411A00D201465241104604
:1027C0007047FFE701B50020FEF7EEFB02BDC046F3
:1027D0000029F7D076E77047536572766F207369EA
:1027E000676E616C2067656E65726174696F696E92
:1027F000207573696E67207468652053544D3332B9
:102800004C303531207573696E672054494D320D57
:1028100000000000286F7574707574732061726514
:10282000205041313120616E6420504131322C20E2
:1028300070696E7320323120616E64203232292E2D
:102840000D0000004279204A657375732043616C66
:1028500076696E6F2D467261676120286329203288
:102860003031382D323032332E0D0A0D0000000089
:1028700050574D3120283020746F20313030293AA4
:10288000200000000D00000050574D32202830205D
:10289000746F20313030293A200000000D0A526553
:1028A0007475726E65642066726F6D206D61696EFD
:1028B00028292E202053797374656D2073746F70EE
:1028C0002E000000496E746572727570742077690D
:1028D00074686F75742068616E646C657220284935
:1028E0005352292E202053797374656D2073746FB1
:1028F000702E000048617264204661756C74206916
:102900006E746572727570742E20205379737465BD
:102910006D2073746F702E00000000000000000036
:1029200000000000000000000000000000000000A7
:102930000000000000000000000000000000000097
:102940000000000000000000000000000000000087
:102950000000000000000000000000000000000077
:102960000000000000000000000000000000000067
:1029700000000000000000000C00002000202020CB
:10298000202020202020282828282820202020201F
:1029900020202020202020202020202020881010EF
:1029A000101010101010101010101010100404044B
:1029B0000404040404040410101010101010414109
:1029C00041414141010101010101010101010101F7
:1029D000010101010101010110101010101042420B
:1029E00042424242020202020202020202020202C7
:1029F0000202020202020202101010102000000067
:102A000000000000000000000000000000000000C6
:102A100000000000000000000000000000000000B6
:102A200000000000000000000000000000000000A6
:102A30000000000000000000000000000000000096
:102A40000000000000000000000000000000000086
:102A50000000000000000000000000000000000076
:102A60000000000000000000000000000000000066
:102A700000000000000000000000000000232D30D6
:102A80002B2000686C4C0065666745464700303176
:102A900032333435363738394142434445460030C5
:102AA00031323334353637383961626364656600F4
:102AB00064640000140100200C00002000000000ED
:102AC00038290008582900081829000800000000CB
:102AD00000000000000000000000000000000000F6
:102AE00000000000000000000000000000000000E6
:102AF00000000000000000000000000000000000D6
:102B000000000000000000000000000000000000C5
:0C2B1000000000000000000000000000B9
:04000005080000B936
:00000001FF
