:020000040800F2
:1000000000200020B9000008B5220008C92200081D
:1000100000000000000000000000000000000000E0
:10002000000000000000000000000000B5220008F1
:100030000000000000000000B5220008B522000802
:10004000B5220008B5220008B5220008B522000834
:10005000B5220008B5220008B5220008B522000824
:1000600000000000B5220008B5220008B5220008F3
:10007000B5220008B522000800000000290700088A
:1000800000000000B5220008000000000000000091
:10009000B522000800000000B5220008B5220008C3
:1000A000B5220008B5220008B52200081D18000876
:1000B000CD1D0008B522000802F078F802F03AF8E9
:1000C000E1235B02180001F001FB62B6C04601F0BB
:1000D000E8F8024B180001F069FCFEE70C89000803
:1000E00080B582B000AF0200FB1D1A70FB1D1B78AB
:1000F0001900104802F040FA030019000E4802F0FF
:100100003BFA03005A1E0D4B5A600C4B00229A60BA
:100110000A4B05221A60C046084B1A6880235B020E
:100120001340F9D0054B00221A60C046BD4602B00C
:1001300080BDC04640420F000048E80110E000E0EA
:1001400080B584B000AF78600023FB6015E00B231E
:10015000FB1800221A7008E0FA20FFF7C1FF0B21FC
:100160007B181A787B1801321A700B23FB181B7846
:10017000032BF1D9FB680133FB60FA687B689A4274
:10018000E5D3C046C046BD4604B080BD80B582B050
:1001900000AF2D4B180004F02FFAFA239B00180033
:1001A000FFF7CEFF294B00221A60A023DB055A6916
:1001B000A023DB0580210A435A61254B00221A70D7
:1001C000244B00221A70A023DB055A69A023DB050B
:1001D00004218A435A61A023DB055A69A023DB0569
:1001E00010218A435A6101F039FF031E25DD3B00CF
:1001F0000421180001F0ECFE3B001B783F2B1CD1C2
:10020000A023DB055A69A023DB0580218A435A61BC
:10021000114B180004F0F0F9104B180001F09EFE8D
:100220000320FFF78DFF0D4B180001F097FEFA2316
:100230005B001800FFF784FF03E00520FFF780FF55
:10024000D1E7BD4602B080BD58860008DC01002021
:10025000D0010020D10100206486000870860008CB
:1002600080B500AF0C4B00221A700C4B00221A70A4
:10027000A023DB055A69A023DB0504218A435A61C8
:10028000A023DB055A69A023DB0510218A435A61AC
:10029000C046BD4680BDC046D0010020D10100202F
:1002A00080B582B000AF7860074B00221A6001E091
:1002B000FFF7D6FF044B1B687A689A42F8DCC04609
:1002C000C046BD4602B080BDD801002080B582B0D6
:1002D00000AF01F0C3FE031E0BDD3B1D0321180020
:1002E00001F076FE3B1D1B783F3B5A425341DBB287
:1002F000FFE71800BD4602B080BD80B584B000AFF6
:100300007860234B00221A60786803F047FB0022D4
:10031000204B02F039FD02000B00100019000022F2
:100320001D4B03F033F802000B001000190003F01E
:10033000F9FA0300FB601FE0FFF7C8FF031E05D0BA
:10034000164B01221A60FFF721FF1AE0144B04221A
:100350001A70144B00221A70A023DB055A69A023DF
:10036000DB0504210A435A61A023DB055A69A02357
:10037000DB0510210A435A61054B1B68FA689A4253
:10038000DADCFFF76DFFC046BD4604B080BDC04655
:10039000D801002000002E4000408F40E0010020E6
:1003A000D0010020D101002080B584B000AF78607A
:1003B000224B00221A60786803F0F0FA0022204BEA
:1003C00002F0E2FC02000B001000190000221D4B9D
:1003D00002F0DCFF02000B001000190003F0A2FA8B
:1003E0000300FB601FE0FFF771FF031E05D0164BF3
:1003F00001221A60FFF7CAFE1AE0144B14221A7089
:10040000A023DB055A69A023DB0510210A435A61AA
:100410000F4B50221A70A023DB055A69A023DB057D
:1004200004218A435A61054B1B68FA689A42DADC58
:10043000FFF716FFC046BD4604B080BDD8010020BE
:1004400000005B4000408F40E0010020D10100200F
:10045000D001002080B584B000AF7860224B00222C
:100460001A60786803F09AFA0022204B02F08CFCA4
:1004700002000B001000190000221D4B02F086FF45
:1004800002000B001000190003F04CFA0300FB609F
:100490001FE0FFF71BFF031E05D0164B01221A6059
:1004A000FFF774FE1AE0144B50221A70A023DB05EC
:1004B0005A69A023DB0510218A435A610F4B14228D
:1004C0001A70A023DB055A69A023DB0504210A4327
:1004D0005A61054B1B68FA689A42DADCFFF7C0FEE6
:1004E000C046BD4604B080BDD801002000805B40FE
:1004F00000408F40E0010020D1010020D001002009
:1005000080B584B000AF7860224B00221A60786812
:1005100003F044FA0022204B02F036FC02000B00EC
:100520001000190000221D4B02F030FF02000B00EA
:100530001000190003F0F6F90300FB601FE0FFF75D
:10054000C5FE031E05D0164B01221A60FFF71EFEE2
:100550001AE0144B28221A70A023DB055A69A02345
:10056000DB0510210A435A610F4B00221A70A023A9
:10057000DB055A69A023DB0504210A435A61054BB8
:100580001B68FA689A42DADCFFF76AFEC046BD468D
:1005900004B080BDD80100200080414000408F4061
:1005A000E0010020D1010020D001002080B584B0FE
:1005B00000AF7860224B00221A60786803F0EEF9F1
:1005C0000022204B02F0E0FB02000B00100019009B
:1005D00000221D4B02F0DAFE02000B001000190091
:1005E00003F0A0F90300FB601FE0FFF76FFE031E9E
:1005F00005D0164B01221A60FFF7C8FD1AE0144B14
:1006000000221A70A023DB055A69A023DB05102104
:100610000A435A610F4B28221A70A023DB055A693E
:10062000A023DB0504210A435A61054B1B68FA68C5
:100630009A42DADCFFF714FEC046BD4604B080BD26
:10064000D80100200000414000408F40E001002020
:10065000D1010020D001002080B500AFC3235B0092
:100660001800FFF74DFFC046BD4680BD80B582B083
:1006700000AF00237B601EE01420FFF73EFE0A203F
:10068000FFF70EFE104B1B68002B03D00E4B002211
:100690001A6014E05820FFF787FE0A20FFF700FEDB
:1006A000094B1B68002B03D0074B00221A6006E0A1
:1006B0007B6801337B607B68032BDDDDC046C04671
:1006C000BD4602B080BDC046E001002080B500AF4D
:1006D0001E23FF331800FFF713FF124B1B68002B7C
:1006E00003D0104B00221A601AE01420FFF705FE19
:1006F0000C4B1B68002B03D00A4B00221A600FE042
:100700001E23FF331800FFF751FF064B1B68002B19
:1007100003D0044B00221A6002E01420FFF7EDFD25
:10072000BD4680BDE001002080B500AF8023DB0521
:100730001A698023DB0501218A431A612C4B1B684F
:100740005A1C2B4B1A602B4B1B685A1C294B1A60E6
:10075000284B1B68092B07DD264B00221A60264B0D
:100760001B685A1C244B1A60244B1B78DBB21A00FE
:100770001F4B1B689A4208DDA023DB055A69A023A2
:10078000DB0508210A435A6107E0A023DB055A690B
:10079000A023DB0508218A435A61194B1B78DBB281
:1007A0001A00134B1B689A4208DDA023DB055A6927
:1007B000A023DB0520210A435A6107E0A023DB05C3
:1007C0005A69A023DB0520218A435A61084B1B6824
:1007D000642B0ADD064B00221A60A023DB055A6950
:1007E000A023DB0528210A435A61C046BD4680BDCF
:1007F000CC010020D4010020D8010020D00100202D
:10080000D101002090B58DB000AF78607A68184BA8
:100810001100180003F08AFEA023DB055A69A0230B
:10082000DB0514490A405A610A20FFF789FC7B68FE
:10083000180001F093FB08243B192721180001F050
:10084000C7FBA023DB055A69A023DB0580218901B2
:100850000A435A610A20FFF773FC3A19064B11004C
:10086000180003F063FEC046BD460DB090BDC04603
:1008700078860008FFDFFFFF8486000880B582B01D
:1008800000AF0200FB1D1A70FB1D1B78413B192BAA
:1008900000D95CE19A00B04BD3181B689F46AF4B60
:1008A00000221A70AE4B01221A70A023DB055A6990
:1008B000A023DB0504210A435A61A023DB055A6902
:1008C000A023DB0510210A435A6141E1A34B1E22FC
:1008D0001A70A34B1F221A70A023DB055A69A023AC
:1008E000DB0504210A435A61A023DB055A69A023D2
:1008F000DB0510210A435A612AE1984B3C221A7009
:10090000974B3D221A70A023DB055A69A023DB0513
:1009100004210A435A61A023DB055A69A023DB05A1
:1009200010210A435A6113E18C4B5A221A708C4BE6
:1009300057221A70A023DB055A69A023DB05042186
:100940008A435A61A023DB055A69A023DB051021E5
:100950008A435A61FCE0814B46221A70804B432245
:100960001A70A023DB055A69A023DB0504218A4302
:100970005A61A023DB055A69A023DB0510218A43B5
:100980005A61E5E0754B32221A70754B2F221A70AE
:10099000A023DB055A69A023DB0504218A435A61A1
:1009A000A023DB055A69A023DB0510218A435A6185
:1009B000CEE06B4B14221A70A023DB055A69A023EA
:1009C000DB0510210A435A61644B50221A70A023A0
:1009D000DB055A69A023DB0504218A435A61B7E08D
:1009E0005F4B28221A70A023DB055A69A023DB0580
:1009F00010210A435A61594B3C221A70A023DB058F
:100A00005A69A023DB0504218A435A61A0E0544BB4
:100A100050221A70A023DB055A69A023DB051021A0
:100A20008A435A614D4B14221A70A023DB055A6980
:100A3000A023DB0504210A435A6189E0484B3C228C
:100A40001A70A023DB055A69A023DB0510218A4315
:100A50005A61424B28221A70A023DB055A69A02351
:100A6000DB0504210A435A6172E03D4B00221A70F3
:100A7000A023DB055A69A023DB0510210A435A6134
:100A8000364B1E221A70A023DB055A69A023DB0512
:100A900004210A435A615BE0314B1E221A70A023E5
:100AA000DB055A69A023DB0510210A435A612B4B51
:100AB00000221A70A023DB055A69A023DB0504215C
:100AC0000A435A6144E0254B46221A70A023DB05F5
:100AD0005A69A023DB0504218A435A61204B642212
:100AE0001A70A023DB055A69A023DB0510218A4375
:100AF0005A612DE0194B64221A70A023DB055A6954
:100B0000A023DB0504218A435A61154B46221A7043
:100B1000A023DB055A69A023DB0510218A435A6113
:100B200016E00E4B00221A700D4B00221A70A02303
:100B3000DB055A69A023DB0504218A435A61A023FF
:100B4000DB055A69A023DB0510218A435A61C046A0
:100B5000C046BD4602B080BD94860008D00100208A
:100B6000D101002080B582B000AF78607B68213B66
:100B70005D2B00D9C7E19A00DE4BD3181B689F4656
:100B80000020FFF711FC0A20FFF7B7FBBCE117209C
:100B9000FFF70AFC0A20FFF7B0FBB5E12E20FFF7B4
:100BA00003FC0A20FFF7A9FBAEE14420FFF7FCFBA2
:100BB0000A20FFF7A2FBA7E15B20FFF7F5FB0A2065
:100BC000FFF79BFBA0E17120FFF7EEFB0A20FFF788
:100BD00094FB99E18820FFF7E7FB0A20FFF78DFBE4
:100BE00092E19E20FFF7E0FB0A20FFF786FB8BE1F6
:100BF000B320FFF72FFC0A20FFF77FFB84E19D2045
:100C0000FFF728FC0A20FFF778FB7DE18620FFF73D
:100C100021FC0A20FFF771FB76E17020FFF71AFC38
:100C20000A20FFF76AFB6FE15920FFF713FC0A2047
:100C3000FFF763FB68E14320FFF70CFC0A20FFF796
:100C40005CFB61E12C20FFF705FC0A20FFF755FB58
:100C50005AE11620FFF7FEFB0A20FFF74EFB53E197
:100C60000020FFF7A1FB1420FFF747FB4CE1172002
:100C7000FFF79AFB1420FFF740FB45E12E20FFF71A
:100C800093FB1420FFF739FB3EE14420FFF78CFB78
:100C90001420FFF732FB37E15B20FFF785FB1420C0
:100CA000FFF72BFB30E17120FFF77EFB1420FFF7ED
:100CB00024FB29E18820FFF777FB1420FFF71DFBB9
:100CC00022E19E20FFF770FB1420FFF716FB1BE1CB
:100CD000B320FFF7BFFB1420FFF70FFB14E19D20AB
:100CE000FFF7B8FB1420FFF708FB0DE18620FFF7A4
:100CF000B1FB1420FFF701FB06E17020FFF7AAFB10
:100D00001420FFF7FAFAFFE05920FFF7A3FB1420A5
:100D1000FFF7F3FAF8E04320FFF79CFB1420FFF7FE
:100D2000ECFAF1E02C20FFF795FB1420FFF7E5FA31
:100D3000EAE01620FFF78EFB1420FFF7DEFAE3E06F
:100D40000020FFF731FB1E20FFF7D7FADCE001207F
:100D5000FFF72AFB1E20FFF7D0FAD5E01720FFF798
:100D600023FB1E20FFF7C9FACEE02E20FFF71CFB65
:100D70001E20FFF7C2FAC7E04420FFF715FB1E2034
:100D8000FFF7BBFAC0E05B20FFF70EFB1E20FFF76A
:100D9000B4FAB9E07120FFF707FB1E20FFF7ADFAA8
:100DA000B2E08820FFF700FB1E20FFF7A6FAABE0B9
:100DB0009E20FFF7F9FA1E20FFF79FFAA4E0B32068
:100DC000FFF748FB1E20FFF798FA9DE09D20FFF7F4
:100DD00041FB1E20FFF791FA96E08620FFF73AFBD1
:100DE0001E20FFF78AFA8FE07020FFF733FB1E20EA
:100DF000FFF783FA88E05920FFF72CFB1E20FFF74E
:100E00007CFA81E04320FFF725FB1E20FFF775FAEF
:100E10007AE02C20FFF71EFB1E20FFF76EFA73E02E
:100E20000020FFF7C1FA2D20FFF767FA6CE01720CA
:100E3000FFF7BAFA2D20FFF760FA65E02E20FFF7E2
:100E4000B3FA2D20FFF759FA5EE04420FFF7ACFA21
:100E50002D20FFF752FA57E05B20FFF7A5FA2D206F
:100E6000FFF74BFA50E07120FFF79EFA2D20FFF7B5
:100E700044FA49E08820FFF797FA2D20FFF73DFA62
:100E800042E09E20FFF790FA2D20FFF736FA3BE074
:100E9000B320FFF7DFFA2D20FFF72FFA34E09D2073
:100EA000FFF7D8FA2D20FFF728FA2DE08620FFF76C
:100EB000D1FA2D20FFF721FA26E07020FFF7CAFAB9
:100EC0002D20FFF71AFA1FE05920FFF7C3FA2D2053
:100ED000FFF713FA18E04320FFF7BCFA2D20FFF7C5
:100EE0000CFA11E02C20FFF7B5FA2D20FFF705FAD8
:100EF0000AE0C046FC8600081620FFF7ABFA2D205A
:100F0000FFF7FBF900E0C046C046BD4602B080BD19
:100F100080B582B000AF0200FB1D1A70FB1D1B786C
:100F20003F2B08D013DC2F2B08D010DC222B0BD04A
:100F3000272B06D00BE0FFF729F909E0FFF796FB16
:100F400006E0FFF789FB03E0FFF7C0FB00E0C046C7
:100F5000C046BD4602B080BD80B500AF694BDA6ABD
:100F6000684B01210A43DA62A023DB051B683022AB
:100F700093431A00A023DB0510210A431A60A02323
:100F8000DB055A68A023DB0504218A435A60A023AD
:100F9000DB051B68C02293431A00A023DB05402118
:100FA0000A431A60A023DB055A68A023DB05082149
:100FB0008A435A60A023DB051B68534A1A40A023CA
:100FC000DB05802149000A431A60A023DB055A682B
:100FD000A023DB0510218A435A60A023DB051B6890
:100FE0004A4A1A40A023DB058021C9000A431A603F
:100FF000A023DB055A68A023DB0520218A435A6021
:10100000A023DB051B68424A1A40A023DB05802190
:10101000C9010A431A60A023DB055A68A023DB0537
:1010200080218A435A60374B9A6B364B01210A4321
:101030009A638023DB05374ADA62374B1A68364BEE
:10104000802109020A431A608023DB051A68802385
:10105000DB0510210A431A608023DB051A68802310
:10106000DB0580210A431A608023DB05DA688023D0
:10107000DB0501210A43DA608023DB051A6880233F
:10108000DB0501210A431A6062B6C046A023DB05D6
:10109000012252429A601B4BDA6A1A4B01210A4321
:1010A000DA62A023DB051B681C4A1A40A023DB057B
:1010B0008021C9040A431A60A023DB055A69A023D2
:1010C000DB05802189010A435A61A023DB051A68E8
:1010D000A023DB0512490A401A60A023DB05DA6869
:1010E000A023DB05802149010A43DA60A023DB0548
:1010F000DA68A023DB050B490A40DA60C046BD462A
:1011000080BDC04600100240FFFCFFFFFFF3FFFF61
:10111000FF3FFFFF7F0C000000E100E0FFFFFFF357
:10112000FFCFFFFFFFDFFFFF80B584B000AF786027
:1011300072B6C046394B3A4A5A60384B384A9A60C0
:10114000364B05221A6007E0344B1A6880235B0295
:10115000134001D000235CE0A023DB051B69402283
:101160001340F1D12D4B00221A602C4B2C4A5A60AF
:101170002A4B2B4A9A60294B05221A6007E0274B1D
:101180001A6880235B02134001D0002341E0A023B2
:10119000DB051B6940221340F1D0204B00221A606E
:1011A0001E4B1F4A5A601D4B1D4A9A601B4B05225D
:1011B0001A600023FB601FE0184B1A6880235B0253
:1011C000134001D0002324E0A023DB051B6940224B
:1011D0001340F1D107E0114B1A6880235B021340E2
:1011E00001D0002315E0A023DB051B69402213403A
:1011F000F1D0FB680133FB60FA687B689A42E3DB5D
:10120000064B00221A6062B6C046044B9B68044A33
:10121000D31A1800BD4604B080BDC04610E000E0FF
:10122000FFFFFF0080B584B000AF78607A68C82304
:101230009B009A4204DD0F23FB1865221A7029E0F7
:101240007A6896239B009A4204DD0F23FB186422E0
:101250001A701FE07A68E1235B009A4204DD0F23D5
:10126000FB1863221A7015E07A68AF235B009A427C
:1012700004DD0F23FB1862221A700BE07B68D22B6F
:1012800004DD0F23FB1861221A7003E00F23FB1803
:101290007A221A700F23FB181B781800BD4604B081
:1012A00080BD90B593B000AF0123FB6200233B6487
:1012B0000023FB6300237B630023BB6200233B63AB
:1012C000AB4BDA6AAA4B01210A43DA62A023DB05A1
:1012D0001A68A023DB05A7490A401A60A023DB0592
:1012E000DA68A023DB05802149010A43DA60A023E4
:1012F000DB05DA68A023DB059F490A40DA60FFF7C7
:101300002BFE96239B01180000F0BAFCFA235B0029
:101310001800FEF715FF994B180003F007F9984BDA
:10132000180003F069F9974B1800FFF76BFA964B1A
:101330001800FFF767FA954B1800FFF763FA944B14
:101340001800FFF75FFA934B1800FFF75BFA924B18
:101350001800FFF757FA914B1800FFF753FA904B1C
:101360001800FFF74FFA00F079FE031EFBDD14248E
:101370003B190321180000F02BFE3A19894B11008C
:10138000180003F0D3F83B191B786D2B00D0BCE09C
:101390006420FFF7C9FE03003B62386A02F0FEFAE0
:1013A0000022814B01F0F0FC02000B00100019003C
:1013B00002F022FB031CFB61F969FE20800501F0AD
:1013C00067FB031CBB610520FEF7BAFE3B6A002BDE
:1013D00004D1764B180000F0C1FDC4E73B6C092B2B
:1013E00030DCF86B01F086FC031CB969181C01F0B5
:1013F000AFF9031C181C01F05DFC0300FB633B6CA0
:1014000001333B644723FB187A221A703B6C052B8F
:1014100018DD786B01F06EFC031CB969181C01F033
:1014200097F9031C181C01F045FC03007B63B869A5
:1014300001F040FC01003B003A6B9200D1503B6B45
:1014400001333B633B6C0A2B0DD1FB6B0A21180067
:1014500001F092F80300BB633B6C01333B6447230C
:10146000FB187A221A703B6C0A2B3CDD3B6B052182
:10147000180001F067F90B001A003B009200D358E6
:101480007A6BD31A7B633B6B0521180001F05AF984
:101490000B001C00B86901F00DFC01003B00A2002C
:1014A000D150786B01F026FC031CB969181C01F0BF
:1014B0004FF9031C181C01F0FDFB03007B637B6BE1
:1014C0000521180001F058F80300BB623B6B0133A3
:1014D0003B63BA6ABB6BD31A4722BC181800FFF7EC
:1014E000A1FE030023704723FB181A783049142407
:1014F0003B19180003F0A6F83B19180003F016F882
:101500003B19180000F02AFD2DE727217B18142233
:10151000BA1812781A707B181B782E2B03D1254B22
:1015200001221A6007E02723FB181B782C2B02D11D
:10153000204B00221A601F4B1B68002B0BD1272465
:101540003B191B781800FFF799F93B191B78180015
:10155000FFF7DEFC07E7174B1B68012B00D002E703
:101560002723FB181B781800FFF7FCFAFBE6C046A0
:1015700000100240FFCFFFFFFFDFFFFF748800086D
:101580007C88000894880008A4880008B0880008B7
:10159000BC880008C8880008D4880008E0880008D3
:1015A000EC880008F888000884D7E7410089000823
:1015B00004890008DC01002090B585B000AF786098
:1015C0003960184B1B68002B02D101235B4224E0D9
:1015D0000023FB600AE0FB685A1CFA603A68D418E2
:1015E000114B180000F0ADF9030023707B68013B3C
:1015F0001A00FB68934205D20B4B180000F0CCF99F
:10160000031EE8D1FB68002B06D03A68FB68D318AC
:1016100000221A70FB6800E000231800BD4605B0E8
:1016200090BDC0467C020020E401002080B584B05B
:1016300000AF78603960224B1B68002B02D1012378
:101640005B4238E07B683F2B0BDCC0461D4B18002B
:1016500000F0A2F903004022D21A7B689A42F5D327
:1016600002E002235B4226E00023FB600BE03A68C5
:10167000FB68D3181A78134B1100180000F030F9EA
:10168000FB680133FB607B68FA689A42EFD30E4B2C
:101690001B68082213400DD10B4B1A680A4B082116
:1016A0000A431A60074B180000F04BF903001A00B8
:1016B000054B9A6200231800BD4604B080BDC046A9
:1016C0007C020020300200200038014080B584B048
:1016D00000AF786072B6C046454B00229A64444B16
:1016E0009A6C434B5A64424B5A6C414B1A64414BBF
:1016F00000229A643F4B9A6C3E4B5A643D4B5A6CA5
:101700003C4B1A643C4B01221A603C4B00221A608D
:101710003B4BDA6A3A4B01210A43DA62394BFB60F0
:101720007968F86800F028FF0300FB60A023DB0560
:101730009A68A023DB058021C9020A439A60A0238E
:10174000DB055A68A023DB052F490A405A60A02315
:10175000DB051B682D4A1A40A023DB058021090305
:101760000A431A60A023DB055A6AA023DB05402147
:101770000A435A62A023DB051B68254A1A40A023AE
:10178000DB05802189030A431A60A023DB055A6A1E
:10179000A023DB058021C9000A435A62184B5A6B0B
:1017A000174B8021C9010A435A631A4B1A68194B17
:1017B0006C210A431A60174B00225A60154B002215
:1017C0009A60144BFA68DA60124B1A68114B0121C7
:1017D0000A431A60104B1A680F4B802109050A430F
:1017E0001A6062B6C046C046BD4604B080BDC04661
:1017F000E4010020300200207C0200208002002052
:10180000001002400048E801FFFDFFFFFFFFF3FF6B
:10181000FFFFCFFF0038014000E100E080B500AFDE
:10182000084BDB698022134001D000F025F8054BFE
:10183000DB692022134001D000F006F8C046BD4607
:1018400080BDC0460038014080B500AF074B5B6AE1
:10185000DAB2074B1100180000F042F8031E02D064
:10186000044B01221A60C046BD4680BD00380140CD
:10187000E40100208002002080B500AF164B180064
:1018800000F08AF8031E08D0134B180000F059F836
:1018900003001A00114B9A621BE0104B1A680F4BA1
:1018A00008218A431A600D4BDB694022134005D0A2
:1018B0000A4B1A6A094B40210A431A62074BDB693B
:1018C0008022134005D0054B9A69044B10210A432E
:1018D0009A61C046BD4680BD3002002000380140FC
:1018E00080B582B000AF78600A00FB1C1A707B687C
:1018F0001A6C7B685B6C9A4205D17B689B6C002BF1
:1019000001D0012319E072B6C0467B681B6C591CDC
:101910007A6811647A68F91C0978D1547B689B6CE9
:101920005A1C7B689A647B681B6C402B02D17B68D5
:1019300000221A6462B6C04600231800BD4602B0F9
:1019400080BD80B584B000AF78607B689B6C002B55
:1019500001D100231CE072B6C0467B685B6C591C49
:101960007A6851640F22BA187968CB5C13707B686F
:101970005B6C402B02D17B6800225A647B689B6CB5
:101980005A1E7B689A6462B6C0460F23FB181B7808
:101990001800BD4604B080BD80B582B000AF78604D
:1019A0007B689B6C1800BD4602B080BD80B582B0DC
:1019B00000AF78600B4B1B68002B09D101235B4201
:1019C0000BE07B685A1C7A6019000120FFF72EFE9D
:1019D0007B681B78002BF4D100231800BD4602B0B1
:1019E00080BDC0467C02002080B582B000AF0200FE
:1019F000FB1D1A70FB1D19000120FFF717FEC046E2
:101A0000BD4602B080BD80B500AF044B1800FFF7A3
:101A100098FF03001800BD4680BDC046E4010020C9
:101A2000B0B584B000AF786039601E4B1B68002BE6
:101A300002D101235B4231E00023FB600B23FB1842
:101A400000221A7017E0C046174B1800FFF7A4FFDA
:101A5000031EF9D00B257C19134B1800FFF771FFFB
:101A600003002370FB685A1CFA601A007B689B18FD
:101A70007A1912781A703B68013BFA689A4204DAC4
:101A80000B23FB181B780D2BDDD1FB68002B04DD2D
:101A9000FB687A68D31800221A70FB681800BD46EC
:101AA00004B0B0BD7C020020E401002090B583B0FA
:101AB00000AFFC1DFFF7A7FF03002370FB1D1B7881
:101AC0001800FFF791FFFB1D1B781800BD4603B0FF
:101AD00090BDB0B584B000AF78603960214B1B6811
:101AE000002B02D101235B4237E00023FB600B2374
:101AF000FB1800221A701DE0C0461B4B1800FFF7B0
:101B00004BFF031EF9D00B257C19174B1800FFF76C
:101B100018FF030023702C003B191B781800FFF7F7
:101B200063FFFB685A1CFA601A007B689B183A191D
:101B300012781A703B68013BFA689A4204DA0B2368
:101B4000FB181B780D2BD7D1FB68002B04DDFB683D
:101B50007A68D31800221A70FB681800BD4604B0DA
:101B6000B0BDC0467C020020E401002090B585B0E5
:101B700000AF78603960184B1B68002B02D101233D
:101B80005B4224E00023FB600AE0FB685A1CFA6019
:101B90003A68D418114B180000F0ABF90300237019
:101BA0007B68013B1A00FB68934205D20B4B18007F
:101BB00000F0CAF9031EE8D1FB68002B06D03A6892
:101BC000FB68D31800221A70FB6800E0002318009D
:101BD000BD4605B090BDC04620030020880200200D
:101BE00080B584B000AF78603960224B1B68002B51
:101BF00002D101235B4238E07B683F2B0BDCC046FF
:101C00001D4B180000F0A0F903004022D21A7B6897
:101C10009A42F5D302E002235B4226E00023FB60F8
:101C20000BE03A68FB68D3181A78134B11001800C0
:101C300000F02EF9FB680133FB607B68FA689A427A
:101C4000EFD30E4B1B68082213400DD10B4B1A68C3
:101C50000A4B08210A431A60074B180000F049F9A3
:101C600003001A00054B9A6200231800BD4604B019
:101C700080BDC04620030020D40200200044004064
:101C800080B584B000AF786072B6C046454B002284
:101C90009A64444B9A6C434B5A64424B5A6C414B86
:101CA0001A64414B00229A643F4B9A6C3E4B5A6433
:101CB0003D4B5A6C3C4B1A643C4B01221A603C4B26
:101CC00000221A603B4BDA6A3A4B01210A43DA627E
:101CD000394BFB607968F86800F04EFC0300FB604C
:101CE000A023DB059A68A023DB05802149050A4370
:101CF0009A60A023DB055A68A023DB052F490A4020
:101D00005A60A023DB051B682D4A1A40A023DB057F
:101D1000802189050A431A60A023DB055A6AA023A3
:101D2000DB058021C9040A435A62A023DB051B6836
:101D30009B009A08A023DB05802109060A431A604C
:101D4000A023DB055A6AA023DB058021C9050A43CD
:101D50005A62184B9A6B174B802189020A439A6387
:101D6000184B1A68174B6C210A431A60154B002256
:101D70005A60144B00229A60124BFA68DA60114BD9
:101D80001A68104B01210A431A600F4B1A680E4B58
:101D9000802149050A431A6062B6C046C046BD4666
:101DA00004B080BD88020020D4020020200300205F
:101DB00024030020001002400048E801FFBFFFFF9D
:101DC000FFFFFFCF0044004000E100E080B500AF1E
:101DD000084BDB698022134001D000F025F8054B49
:101DE000DB692022134001D000F006F8C046BD4652
:101DF00080BDC0460044004080B500AF074B5B6A21
:101E0000DAB2074B1100180000F042F8031E02D0AE
:101E1000044B01221A60C046BD4680BD004400400C
:101E2000880200202403002080B500AF164B180064
:101E300000F08AF8031E08D0134B180000F059F880
:101E400003001A00114B9A621BE0104B1A680F4BEB
:101E500008218A431A600D4BDB694022134005D0EC
:101E60000A4B1A6A094B40210A431A62074BDB6985
:101E70008022134005D0054B9A69044B10210A4378
:101E80009A61C046BD4680BDD40200200044004097
:101E900080B582B000AF78600A00FB1C1A707B68C6
:101EA0001A6C7B685B6C9A4205D17B689B6C002B3B
:101EB00001D0012319E072B6C0467B681B6C591C27
:101EC0007A6811647A68F91C0978D1547B689B6C34
:101ED0005A1C7B689A647B681B6C402B02D17B6820
:101EE00000221A6462B6C04600231800BD4602B044
:101EF00080BD80B584B000AF78607B689B6C002BA0
:101F000001D100231CE072B6C0467B685B6C591C93
:101F10007A6851640F22BA187968CB5C13707B68B9
:101F20005B6C402B02D17B6800225A647B689B6CFF
:101F30005A1E7B689A6462B6C0460F23FB181B7852
:101F40001800BD4604B080BD80B582B000AF786097
:101F50007B689B6C1800BD4602B080BD80B582B026
:101F600000AF78600B4B1B68002B09D101235B424B
:101F70000BE07B685A1C7A6019000120FFF730FEE5
:101F80007B681B78002BF4D100231800BD4602B0FB
:101F900080BDC0462003002080B582B000AF0200A3
:101FA000FB1D1A70FB1D19000120FFF719FEC0462A
:101FB000BD4602B080BD80B500AF044B1800FFF7EE
:101FC00098FF03001800BD4680BDC046880200206F
:101FD000B0B584B000AF786039601E4B1B68002B31
:101FE00002D101235B4231E00023FB600B23FB188D
:101FF00000221A7017E0C046174B1800FFF7A4FF25
:10200000031EF9D00B257C19134B1800FFF771FF45
:1020100003002370FB685A1CFA601A007B689B1847
:102020007A1912781A703B68013BFA689A4204DA0E
:102030000B23FB181B780A2BDDD1FB68002B04DD7A
:10204000FB687A68D31800221A70FB681800BD4636
:1020500004B0B0BD200300208802002080B500AF8E
:10206000034B1800FFF770FF03001800BD4680BD4A
:102070008802002090B583B000AFFC1DFFF79BFFE6
:1020800003002370FB1D1B781800FFF785FFFB1D65
:102090001B781800BD4603B090BDB0B584B000AF4A
:1020A00078603960214B1B68002B02D101235B4211
:1020B00037E00023FB600B23FB1800221A701DE0A1
:1020C000C0461B4B1800FFF73FFF031EF9D00B253E
:1020D0007C19174B1800FFF70CFF030023702C002E
:1020E0003B191B781800FFF757FFFB685A1CFA6072
:1020F0001A007B689B183A1912781A703B68013BEA
:10210000FA689A4204DA0B23FB181B780D2BD7D1FF
:10211000FB68002B04DDFB687A68D31800221A7074
:10212000FB681800BD4604B0B0BDC04620030020C7
:102130008802002080B582B000AF164B7B60164B42
:102140003B6007E07A68131D7B603B68191D3960AE
:1021500012681A603A68114B9A42F3D304E03B6864
:102160001A1D3A6000221A603A680D4B9A42F6D363
:102170000C4B3B6004E03B681A1D3A601B689847B3
:102180003A68094B9A42F6D3C046C046BD4602B0F3
:1021900080BDC046E48D000800000020CC01002076
:1021A00088040020E48D0008E48D000880B500AFAD
:1021B0003B4B1A683A4B01210A431A60C046384B20
:1021C0001B6804221340FAD0354B0122DA60C04666
:1021D000334BDB680C221340042BF9D1314B1A68C6
:1021E000304B02210A431A602E4B1A682D4B0121F5
:1021F0000A431A602A4B9A6B294B802149050A43EE
:102200009A63294B802212011A60C046264B5B68F4
:1022100010221340FAD1224BDA68214B23490A409D
:10222000DA601F4BDA681E4B8821C9030A43DA6063
:102230001B4A1B4BD268DA60194A194BD268DA6024
:10224000174A174BD268DA60154B1A68144B1849B5
:102250000A401A60124B1A68114B802149040A4344
:102260001A60C0460E4B1A6880239B041340F9D0B5
:102270000B4BDA680A4B03218A43DA60084BDA68B1
:10228000074B03210A43DA60C046054BDB680C228A
:1022900013400C2BF9D1C046C046BD4680BDC04698
:1022A000001002400020024000700040FFFF02FFCB
:1022B000FFFFFFFE80B500AF024B1800FFF776FB73
:1022C000FEE7C0463489000880B500AF024B180015
:1022D000FFF76CFBFEE7C0466489000880B582B05A
:1022E00000AF7860FEE780B582B000AF7860012370
:1022F0005B421800BD4602B080BD80B584B000AF1F
:10230000F860B9607A60044B0C221A6001235B42CA
:102310001800BD4604B080BD3403002080B500AF76
:10232000034B0B221A6001235B421800BD4680BD9F
:102330003403002080B582B000AF786039603B681C
:10234000802292015A6000231800BD4602B080BD71
:1023500080B500AF01231800BD4680BD80B582B0B6
:1023600000AF78603960044B16221A6001235B428B
:102370001800BD4602B080BD3403002080B582B095
:1023800000AF78603960044B1F221A6001235B4262
:102390001800BD4602B080BD3403002080B584B073
:1023A00000AFF860B9607A6000231800BD4604B041
:1023B00080BD80B582B000AF786039603B68802214
:1023C00092015A6000231800BD4602B080BD80B55E
:1023D00082B000AF786001235B421800BD4602B0B6
:1023E00080BD80B582B000AF7860044B02221A60D5
:1023F00001235B421800BD4602B080BD34030020BB
:1024000080B582B000AF7860044B0A221A600123C5
:102410005B421800BD4602B080BDC04634030020B8
:1024200080B582B000AF78607B68022B01D80123B1
:1024300003E0044B09221A6000231800BD4602B0D5
:1024400080BDC0463403002080B586B000AF786000
:10245000124B7B61124B3B61124B1B68002B02D16C
:10246000104B7A691A600F4B1B68FB600D4B1A68A2
:102470007B68D3183A699A4205D20B4B0C221A603A
:1024800001235B4206E0074B1A687B68D218054BB4
:102490001A60FB681800BD4606B080BD88040020A5
:1024A00000100020300300203403002080B588B0E5
:1024B00000AFF860B9607A600023BB61FB68002B55
:1024C00022D10023FB611AE0FFF79DFA03001A00F6
:1024D00017217B181A70BB685A1CBA607A181278D8
:1024E000D2B21A70BB690133BB617B181B78DBB2B7
:1024F0000A2B01D1BB690EE0FB690133FB61FA696C
:102500007B689A42E0DB05E0054B09221A60012353
:102510005B4200E0BB691800BD4608B080BDC04604
:102520003403002080B586B000AFF860B9607A60EF
:10253000FB68013B012B11D800237B6109E0BB68DC
:102540005A1CBA601B781800FFF74EFA7B690133FA
:102550007B617A697B689A42F1DB05E0054B0922D1
:102560001A6001235B4200E07B681800BD4606B09C
:1025700080BDC0463403002003460B437FD40022B5
:1025800043088B4274D303098B425FD3030A8B4207
:1025900044D3030B8B4228D3030C8B420DD3FF2271
:1025A000090212BA030C8B4202D31212090265D03F
:1025B000030B8B4219D300E0090AC30B8B4201D3F2
:1025C000CB03C01A5241830B8B4201D38B03C01A39
:1025D0005241430B8B4201D34B03C01A5241030BB0
:1025E0008B4201D30B03C01A5241C30A8B4201D361
:1025F000CB02C01A5241830A8B4201D38B02C01A0C
:102600005241430A8B4201D34B02C01A5241030A82
:102610008B4201D30B02C01A5241CDD2C3098B4267
:1026200001D3CB01C01A524183098B4201D38B01E4
:10263000C01A524143098B4201D34B01C01A524187
:1026400003098B4201D30B01C01A5241C3088B42CC
:1026500001D3CB00C01A524183088B4201D38B00B7
:10266000C01A524143088B4201D34B00C01A524159
:10267000411A00D201465241104670475DE0CA0F30
:1026800000D04942031000D34042534000229C46F0
:1026900003098B422DD3030A8B4212D3FC228901FA
:1026A00012BA030A8B420CD3890192118B4208D3D0
:1026B000890192118B4204D389013AD0921100E032
:1026C0008909C3098B4201D3CB01C01A5241830946
:1026D0008B4201D38B01C01A524143098B4201D373
:1026E0004B01C01A524103098B4201D30B01C01A9E
:1026F0005241C3088B4201D3CB00C01A5241830818
:102700008B4201D38B00C01A5241D9D243088B426D
:1027100001D34B00C01A5241411A00D20146634610
:1027200052415B10104601D34042002B00D5494274
:10273000704763465B1000D3404201B5002000F0B3
:1027400005F802BD0029F8D016E770477047C0466B
:10275000F0B5C64643025B0A9C461F00DE004B02F2
:102760005A0A450090464A002D0E120EC40F00B5BD
:10277000C90F9B09A81A8C4221D000280DDD002A20
:102780002DD1002B00D195E0421E012800D131E16E
:10279000FF2800D194E0100027E0002862D0501BF1
:1027A000002D00D0E1E0002E00D181E0441E012880
:1027B00000D142E1FF2800D119E12000DAE0002831
:1027C00000DC9CE0002A69D0FF2D00D178E0802257
:1027D000D20413431B2800DC7DE001362AE0FF2DE4
:1027E00000D16DE08022D204134301221B2807DCB4
:1027F0002021091A1A008B40C240591E8B411A43EE
:10280000B61A730100D477E0B601B709380001F0B9
:1028100003FA05388740854200DD82E020223B0034
:10282000401B0130121A3E009340C6405A1E93418D
:1028300000251E43730704D00F233340042B00D020
:102840000436730137D5681CFE2D52D08E4BC0B2B2
:1028500033409B015F0AC0053843E407204380BC36
:10286000B846F0BDFE206A1C104274D1002D00D085
:10287000AAE0002E00D1DAE00020002BEBD080226D
:10288000F71AD204174200D1ECE09B1B134200D18F
:10289000F2E07D4A0C0013400130DAE7002B09D04A
:1028A000421E012800D196E0FF2809D0100091E7D0
:1028B0000C001E000500F3089C46FF2D00D091E09F
:1028C0006346002B15D080276346FF031F437F021A
:1028D000FF207F0ABFE72021091A1A008B40C2405F
:1028E000591E8B411343F618730105D50135FF2D91
:1028F00054D1FF200027AEE773079DD1DBE7002806
:1029000013D0501B002D50D1002ED2D0411E0128D3
:1029100040D0FF286CD008001B286EDD15005E1C1F
:1029200088E7594E2D1A3E4084E7FE216A1C114269
:1029300041D1002D6CD1002E00D190E00020002B61
:1029400000D188E7F318DF087F027F0A5B0100D41B
:1029500081E701207FE7F71A7A0132D4002F00D0F7
:1029600054E700240020002775E7FF2A3FD0802489
:10297000E404264301241B2808DC35001F34241AF4
:10298000A640C540741EA6412C0034431E1B1500F2
:102990000C0036E7F6180235730120D501233B4AB7
:1029A0003340760816401E4344E7FF2A20D080219A
:1029B000C9040E43B0E7FF2A9BD0F618150076082D
:1029C00038E70C009F1B21E7002E3AD1002B4ED098
:1029D000C4460C0077E7F61802257301DED4F3082D
:1029E0009C46012563465F027F0AE8B233E70C008C
:1029F000C44665E70125F61A03E731002025C140EA
:102A0000281A8640701E86410E431500F6186BE7A3
:102A1000002EEDD0002B00D155E78023DB039C4531
:102A200000D250E7984500D34DE7C4464BE7002B52
:102A300097D00C00474600200DE70C009E1B013587
:102A4000DFE6002B00D13EE78023DB039C4500D26C
:102A500039E7984500D336E70C00C44633E74746CC
:102A60000020F8E6002F0BD0BF017F0AF3E6802795
:102A70000024FF20FF03EEE69B010C005F0AEAE65C
:102A800000240027E7E6C046FFFFFFFBFFFFFF7DB6
:102A9000F0B546464F46D6464502C0B5C30F47007F
:102AA00098460E1C6D0A3F0E57D0FF2F21D0802371
:102AB000ED00DB041D43002399469A467F3F7402D4
:102AC0007300640A1B0EF60F002B20D0FF2B4CD096
:102AD00080220020E400D20414437F3B4246FF1AC8
:102AE0004B4672400F2B00D9ACE06F499B00CB588E
:102AF0009F46002D5BD108239946063B74029A46F7
:102B00007300FF27640A1B0EF60F002BDED1002C8A
:102B100030D1012342464946724019430E2904D858
:102B20006248890041588F464246FF200024C00574
:102B30002043D2071043E0BCBA46B146A846F0BDD8
:102B40005346022BF0D0032B00D1A3E042462C00C9
:102B5000012B35D100200024E9E7002D1BD10423EF
:102B60009946033B00279A46A9E7002C0CD1022383
:102B7000FF3FCFE7200001F04FF8431F9C40762332
:102B80005B421B1A0020A9E703234A461A439146D9
:102B90000320FC33A2E7280001F03EF87627431F0C
:102BA0009D4000237F4299469A463F1A87E70C23AF
:102BB0009946093BFF279A4681E703286CD03200EB
:102BC00038007F30002825DD630704D00F23234021
:102BD000042B00D00434230103D53800344B80305B
:102BE0001C40FE28A1DCA401640AC0B29FE7802437
:102BF0000022FF20E4039AE78023DB031D4201D07B
:102C00001C424BD08024E4032C4364024246FF2044
:102C1000640A8CE701231B1A1B2B9BDC21009E37C7
:102C2000D940BC400B00611E8C412343590704D09E
:102C30000F211940042900D00433590126D5012061
:102C4000002474E76D016001854213D21B23002428
:102C5000013F0126290064006D00002901DBA84224
:102C600001D82D1A3443013B002BF3D16B1E9D413B
:102C70002C43A5E71A2301242D1AEAE7981E4342A4
:102C80005841404232000024C0B250E79B0100206E
:102C90005C0A4CE746462C008023DB031C4364029D
:102CA0003200FF20640A42E788890008C8890008CA
:102CB000FFFFFFF741024200C30F490A0020120E36
:102CC0007E2A03DD9D2A02DD094A9818704780207C
:102CD00000040143952A07DC9620821AD14048421D
:102CE000002BF3D10800F1E7963A9140F7E7C04690
:102CF000FFFFFF7F70B5002813D0C317C5185D40D4
:102D0000C40F280000F088FF9E2301001B1A962B99
:102D10000FDC082831D008398D406D026D0AD8B219
:102D200002E0002400200025C0052843E4072043DA
:102D300070BD992B15DC421F95402A0015001148E3
:102D40000540560709D00F263240042A05D0043525
:102D50006A0102D59F2305405B1AAD016D0AD8B206
:102D6000E2E70522121A2800D0400A001B329540E3
:102D70002A00551EAA410243E0E76D0296206D0A23
:102D8000D2E7C046FFFFFFFBF0B5DE46454657469B
:102D90004E46E0B587B0009201930B031B0B9B4698
:102DA000CA0F4B00040080465B0D029200D189E0FF
:102DB0008A4A934238D05946420FC9000A438021BB
:102DC00009041143C2009046854A894692469A44B6
:102DD000002300240393009E019F3B031B0B9B4693
:102DE0007B0030005B0DFD0F002B00D19EE07B4A85
:102DF000934200D18CE05946720FC9000A438021EA
:102E0000090411438B467649F2008C4651466344CF
:102E1000CB1A9A460021029E6E400F2C00D9EFE09B
:102E2000704BA4001B599F465A460243914600D05E
:102E30009DE09A460223904608240393CBE72E0098
:102E4000002200249046654B1B052343F6073343BD
:102E50004046190007B0F0BCBB46B246A946A046A2
:102E6000F0BD0022002300249046EDE7CB46424609
:102E7000029D03990229E2D0032900D143E22E00EA
:102E80000129EED0584B5344002B00DC93E151074D
:102E900000D04AE25946C90106D55946534B19405C
:102EA00080238B46DB00534451498B42C8DC594692
:102EB000D208490711435A465B0554028846240B41
:102EC0005B0DC1E75B460343994661D05B46002B2F
:102ED00000D1C2E1584600F09FFE0B235B429C46A6
:102EE0000200844466461D239B1B260011005846A1
:102EF000DE400839884033000343994623008B4065
:102F000098463C4B00249B1A9A460023039362E7A1
:102F10005A46009B1A43384B9C46E244002A32D161
:102F200002231C43002302219B4674E75A46009B60
:102F30001A4322D05B46002B00D1A0E1584600F096
:102F40006BFE020003000B3A1D27009EBA1A1900FF
:102F50005846D64008398840320002439346009ACA
:102F60008A40264953448A4600219A4453E79A46A8
:102F70000323D9460C2403932DE701231C4300238C
:102F800001219B4647E70323320003211C4342E70C
:102F9000002398469A460133042403931BE7002339
:102FA0008024984600260D4B24034DE780244B4691
:102FB0002403234209D05B46234206D11C43240349
:102FC0002E009046054B240B3EE780244B462403FD
:102FD0001C432403029E014B240B35E7FF0700002E
:102FE00001FCFFFF048A0008FF030000FFFFFFFE53
:102FF000FE0700000DFCFFFF01F8FFFFF3030000D8
:10300000CB4500D220E100D11BE101235B429C466D
:10301000444648460027E2445B46150E1B021D430A
:10302000190C2B04120200951D0C91460291039578
:1030300000F0EEFD02006A430B04210C80461943A8
:103040008A420ED9009D0123AC465B4261449C46F6
:10305000E0448D4205D88A4203D9AC46831E984687
:103060006144881A029900F0D3FD039A2404424374
:103070000904240C03000C43A24206D90099013B29
:103080008C466444A14200D80DE1A01A42461204C5
:103090001A4393464B4659461B0C1D0004930B04E0
:1030A00049460904090C0C001B0C5C43120C6B43D1
:1030B000884651436A43250CAC465B1863449942E9
:1030C00003D9802149028C466244190C24041B0454
:1030D000240C8A181C19904200D29EE000D199E07D
:1030E0003C1BA742BF41009D801A7F42C01B854206
:1030F00000D10CE1029900F08BFD039A0B044243CE
:10310000210C070019438A4208D9AC466144013FAB
:103110008D4203D88A4201D9871E6144881A0299D8
:1031200000F076FD039A240442430904240C0300B2
:103130000C43A24209D90099013B8C466444A14248
:1031400003D8A24201D9831E64444146A41A3A041A
:103150001A43049D13041B0C594347466B439C467A
:10316000100C47430B0CBC44634468439F4203D993
:1031700080256D02AC4660441F0C09041B04090C39
:103180003F185B18BC4206D302D001231A4379E6EC
:10319000002B00D176E60098511E84466444844298
:1031A00000D2A8E0BC4200D2D6E000D1E0E00A00A4
:1031B000EBE7012252420121C91A382900DD50E60D
:1031C0001F2976DD1F204042C31A5846D84003000D
:1031D000202904D058466949514488400243511E71
:1031E0008A411A43072319000024114013420CD0CE
:1031F0000F231340042B00D1BEE0111D91429B41CF
:103200000A005B4259075B021C0BD2080A43904636
:10321000002319E6A74200D362E75B46009D013B0D
:103220004F4405934F459B41AC465B426344C018F5
:10323000854233D2824200D981E07DD0059B9B46F6
:103240004EE7424500D9E0E64B46DC0758084346C6
:103250005B081C434346DF07DEE600F0DDFC152378
:103260009C4684440200634620321C2B00DC39E675
:1032700023000838834099460023984641E600F031
:10328000CBFC02000300153220331C2A00DC5BE675
:1032900000990838814000228B4662E68542CDD1F4
:1032A000B945CBD8C6E7A24200D8EEE6831E6444F7
:1032B000EBE633481400504482405B4617008340DD
:1032C000CC407A1E974123433B431A005B46CB40D8
:1032D000510709D00F211140042905D0111D914239
:1032E000924152429B180A0019028BD500220123F9
:1032F00000249046A8E50A00BC4200D045E74B45B3
:1033000000D042E7BEE580245B46240356E61D4B11
:103310001D4A5344924500DA4BE7012149420A1DF8
:103320008A42894149428B44B4E50F211140042966
:1033300000D1AFE51100F2E7BC4200D87EE70223DE
:103340005B429C4600994F444F459B41E3448C4669
:103350005B426344C018C3E64946009D48004845A7
:103360008941AC46494261448146023A6418C3E748
:103370009945F1D30A00C2E7002343E73E04000069
:103380001E040000FF03000002FCFFFFF0B55746DB
:103390004E46DE464546E0B589B0009201930B03E8
:1033A0001B0B9A46CA0F4B00040091465B0D00D1DF
:1033B000BCE1D84A934200D14AE15146420FC900CC
:1033C0000A43802109041143C2009046D24A8A462A
:1033D0009C18002300250393009E019F3B031B0BB9
:1033E0009B46FA0F7B0030005B0D049200D16FE129
:1033F000C84A934200D153E15946720FC9000A43AB
:10340000802109041143C44A8B4694460021634439
:10341000F0001B195C1C0A2D00DD26E14E46049AC3
:103420005640F2B20092022D00DCA8E10122AA402F
:10343000A6271500FF003A403D4200D013E1902737
:10344000BF003D4200D016E288222A4200D0EFE1C0
:10345000414642460904090C0D00170C020C0004F9
:10346000000C4543AC46050016007D43A8460D0000
:103470007E43039204963200039E75436646360CE3
:10348000B14645444D44A84505D916008022520254
:103490009046464404962E0C059666463604360C35
:1034A000B4462D04654406955D462D0CA9465D463F
:1034B0000E002D042D0C6E43B4462E007E43B34601
:1034C0004E467143594488466146090C414477434E
:1034D0008B4503D980225202904647440E0CB046D9
:1034E0003E004644079666463704059E3F0CB446A8
:1034F0000904C9198C44664605965646360CB446EE
:10350000564637043F0C3E004643B04666464643A7
:10351000B24646466046360CB346039A50437A4359
:1035200052445A44924503D980267602B24650440A
:10353000160CB24682444046120490460004000C29
:103540003A004E46804460466A43774345437043A1
:1035500084467819170C3F18BD4203D980204002D9
:103560008146CC44059D0498A946079E484488425C
:103570008941B14612043D04120CAA184A4449423A
:1035800055184044A9464045AD41C8466D42AB463A
:10359000B242924189458941D044C3444942524292
:1035A0000A43AB45AD41D04589416D4249420D4387
:1035B00059463F0CD219521962445202C90D069D58
:1035C00011438A46410229434D1EA941C00D0843BB
:1035D0005946490208438046D20100D473E10122D2
:1035E0004308024013435246D207134398465346BA
:1035F0005B089A46009B9946484BE318002B00DC79
:10360000E5E0424652070AD00F2241460A40042A0A
:1036100005D0043141459241884652429244524677
:10362000D20106D552463E4B1A4080239246DB001B
:10363000E3183C4A934200DD9DE04246D1085246E1
:1036400052070A4351465B054C02240B5B0D19E0FF
:1036500052460243904600D0B3E01C00022392463B
:1036600008250393B8E6009B9946039B022B00D1E3
:1036700081E0032B00D1F5E0039B012BBCD100239B
:103680000024002210004A461B052343D20713439F
:10369000190009B0F0BCBB46B246A946A046F0BD31
:1036A0005B46009E1E431B4BE318002E00D181E0B9
:1036B00003224E461543049A5640F2B200928022ED
:1036C0001201944664440A2D00DDB7E00321ADE603
:1036D0005B46009A134365D05B46002B00D1E2E0C5
:1036E000584600F099FA020003000B3A1D27009E8D
:1036F000BA1A19005846D6400839884032000243A9
:10370000009893468840084AE31A9446002163448F
:1037100080E6C046FF07000001FCFFFFFF0300003A
:10372000FFFFFFFEFE0700000DFCFFFF53460343B3
:10373000984630D05346002B00D1A2E0504600F00E
:103740006BFA0B235B429C460200844466461D23B1
:103750009B1B260011005046DE400839884033008C
:1037600003439A4623008B4098460023694C00256A
:10377000A41A039330E600240022674B82E7013D40
:10378000012D00D964E6009B99460229F3D0DA4660
:103790008046039170E700239A46013304250024F4
:1037A000039319E6002201331D43934623000020B2
:1037B00001212FE602221543002200209346022118
:1037C00028E61C00032380460C25039304E6012110
:1037D000C91A382900DD52E71F2978DD1F2252421D
:1037E000D31A5246DA401300202907D04B4A4146EB
:1037F000944652466444A240114388464246511EB4
:103800008A411A43072319000024114013420BD0A8
:103810000F231340042B7BD0131D9342A4411A00A5
:10382000644261076402240BD20800230A4329E79B
:10383000049BDA4699468046039116E70F2D0DD179
:1038400080245346240323420CD05B46234209D1F3
:103850001C43049B020099462F4B13E7049BDA4656
:10386000994680468024534624031C432403424641
:10387000294B240B06E70023802499462403264B7A
:1038800000E700F0C9F915239C4684440200634612
:1038900020321C2B00DC59E700239846230008380F
:1038A00083409A4661E700F0B7F902000300153241
:1038B00020331C2A00DC19E702000099083A9140E5
:1038C00000208B461FE7009A1C00914694E6144B9B
:1038D00052469C4643466444A240CB401A4343466A
:1038E000A340581E834154461A43CC40530709D085
:1038F0000F231340042B05D0131D934292415242D3
:10390000A4181A0023028CD5012300240022B9E652
:10391000002486E70DFCFFFFFF0700003E040000C7
:103920001E0400000B00020070B5164D0C0382B09F
:103930004900002000920193240B490DDE0FA9429B
:1039400004DD1148814203DD104BF01802B070BD58
:103950008020400320430E4C641A1F2C08DD0D4BC1
:103960005B1AD84003005842002EEFD11800EDE753
:10397000094B009A9C46030061448B40E24013438C
:10398000F1E7C046FE0300001D040000FFFFFF7FBB
:103990003304000013040000EDFBFFFF70B50028A6
:1039A00016D0C317C5185D40C40F280000F034F9C5
:1039B000104B1B1A5B055B0D0A2814DC02002E005D
:1039C000153296400B22121AD5402D032D0B03E021
:1039D00000240023002500261B052B43E407234376
:1039E0003000190070BD0B3885402D0300262D0BCB
:1039F000F2E7C0461E040000F0B54B000F035B0D5C
:103A00003C4C450F83B07F0A5E1C2F430090019110
:103A1000CA0FC50026420BD037495C18FE2C13DDB7
:103A2000FF200023C0051843D207104303B0F0BDA8
:103A30003D43002B01D10020F4E7002DF0D080237E
:103A4000DB03FF203B43EDE7002C14DD009BFF0070
:103A50009B01581E8341690F3B430B43590746D0D6
:103A60000F21194004292AD00433590127D50134E4
:103A70000023E0B2D6E72100173124DB80211E208D
:103A800009043943001B1F2820DD02267642341B1F
:103A90000E00E6403400202804D0184884466344D1
:103AA00099400D432B00591E8B41234359071AD0CF
:103AB0000F2100241940042901D0002404339B0164
:103AC0005B0AE0B2AEE700200023ABE70C4C1C1908
:103AD0002B00A540C340A140681E854129430B43EC
:103AE00000245907BCD19B0100205B0A9AE7DB0840
:103AF000E0B297E7FE07000080FCFFFFA2FCFFFF9B
:103B000082FCFFFF002243088B4274D303098B42DF
:103B10005FD3030A8B4244D3030B8B4228D3030C9D
:103B20008B420DD3FF22090212BA030C8B4202D33F
:103B30001212090265D0030B8B4219D300E0090A67
:103B4000C30B8B4201D3CB03C01A5241830B8B4270
:103B500001D38B03C01A5241430B8B4201D34B0359
:103B6000C01A5241030B8B4201D30B03C01A5241BE
:103B7000C30A8B4201D3CB02C01A5241830A8B4243
:103B800001D38B02C01A5241430A8B4201D34B022C
:103B9000C01A5241030A8B4201D30B02C01A524190
:103BA000CDD2C3098B4201D3CB01C01A5241830944
:103BB0008B4201D38B01C01A524143098B4201D37E
:103BC0004B01C01A524103098B4201D30B01C01AA9
:103BD0005241C3088B4201D3CB00C01A5241830823
:103BE0008B4201D38B00C01A524143088B4201D350
:103BF0004B00C01A5241411A00D2014652411046B0
:103C00007047FFE701B50020FEF7A0FD02BDC046EA
:103C10000029F7D076E770471C2101231B04984246
:103C200001D3000C10391B0A984201D3000A08394D
:103C30001B09984201D30009043902A2105C401804
:103C40007047C046040302020101010100000000A8
:103C500000000000F0B51F00002316008BB09F424B
:103C600004DA802109067B181F002D23129A149D67
:103C70001370202303229D43462D07D02B00453B84
:103C800059424B411099013ACB18109309AB049358
:103C900008AB0393139B00920293109B3200019395
:103CA0003B0000F047FE0400472D1BD1119BDB07B2
:103CB00011D5109BC3180793002200233000390050
:103CC00003F014FC002801D0079B09933022099BC4
:103CD00007998B4220D32000099B159A1B1B136068
:103CE0000BB0F0BD109BC3180793462DE4D10378A9
:103CF000302B0CD1002200233000390003F0F6FBFA
:103D0000002804D10123109A9B1A139A1360139B65
:103D1000079A1B68D318CEE7591C09911A70D6E789
:103D2000F0B52B2305000C0085B00270002901DAE4
:103D30004C4202336B70092C2CDD02ABDE1D2000DF
:103D40000A21FEF7FFFC37003031013E20003170C0
:103D50000A210194FEF710FC019B0400632BEEDCAA
:103D6000BA1EA81C010013003034147002AC0734D2
:103D70009C420AD80023944203D3093302AA9B1819
:103D8000DB1BC018401B05B0F0BD1C7801330C7064
:103D90000131EBE73023E418AB70281DEC70F1E73C
:103DA000F0B597B00D000A921C9C0B93099000F09F
:103DB00015FD036818000D9300F02FFD00230F90F0
:103DC00014932B7E07220C932B680E930E99236875
:103DD000C90545D59B1893431A0008322260012279
:103DE0001E685F687B005B0811931096AE64EF64F9
:103DF00010981199A74B524204F0E8FB002831D1EA
:103E0000109811990122A34B524203F07FFB002826
:103E100028D1002200233000390003F06DFB002878
:103E200003D02B002D2243331A700C9B9A4F472B43
:103E300000D89A4F032300240E9A2B6101339A4332
:103E40002A600B9B2900009309980A9B15AA00F091
:103E5000E5F9013000D09EE00120404217B0F0BDEE
:103E60000733B8E732003B003000390004F0AEFB06
:103E700000280BD0002F03DA2B002D2243331A70B9
:103E80000C9B874F472BD5D8864FD3E720220C9C1D
:103E90006B6894435A1C46D107336B6080230E9A9B
:103EA000DB00134300222B60069214AA05920C9AA1
:103EB0000AA9049213AA0392232252180292019390
:103EC0006B683200009309983B00FFF7C3FE139A1A
:103ED0000700472C2DD1D31C02DB6B689A4247DDCB
:103EE0000C9B023BDBB20C93280013990C9A01390E
:103EF00050301391FFF714FF149A040013182B612C
:103F0000012A02DC2A68D20701D501332B61232361
:103F10000AAA9B181B78002B00D192E72B002D22B8
:103F200043331A708DE7472CB8D1002BB6D101333B
:103F3000B3E70C9B652BD7D90C9B662B1AD16B680A
:103F4000002A09DD2A61002B02D12968C9070BD597
:103F500001339B182B6107E0002B03D10122296854
:103F6000114200D09A1C2A61139B0024AB65CEE756
:103F700067230C931399149B994206DB2B682961E4
:103F8000DB07F1D501312961EEE701220029E0DCF0
:103F90009218521ADDE72A68530508D42B693A00B3
:103FA0000A9909980B9CA047013029D154E70C9B32
:103FB000652B00D8DBE0A86CE96C0022002303F03D
:103FC00095FA002833D00123374A0A9909980B9CA7
:103FD000A047013000D13FE7149E139BB34202DBA0
:103FE0002B68DB070CD50B9C0F9B0D9A0A9909983F
:103FF000A0470024013000D12EE7731EA3420ADC43
:104000002B689B0700D506E1159BE868984200DB0A
:1040100024E7180022E72A0001230A9909980B9F38
:104020001A32B847013000D116E70134E5E7139B97
:10403000002B3BDC01231C4A0A9909980B9CA047E2
:10404000013000D108E7149E139B334302D12B6843
:10405000DB07D5D50F9B0D9A0A9909980B9CA047B1
:104060000023013000D1F7E60C93139B0C9A5B42BE
:10407000934201DC330092E72A0001230A99099850
:104080000B9C1A32A047013000D1E5E60C9B0133AE
:10409000EAE7C046FFFFEF7F488A0008448A00082D
:1040A000508A00084C8A0008548A0008149BAE6DA0
:1040B0000C939E4200DD1E00002E31DCF3430024F1
:1040C000DB1733400E93AE6D0E9BF31AA34230DC28
:1040D000139B0C9A9A4238DC2B68DB0735D4139C6F
:1040E0000C9B0C9A9B1B141B9C4200DD1C00002C9B
:1040F00034DCE3430026DB171C40139B0C9AD31AD5
:104100001B1BB34200DC7BE72A0001230A990998B4
:104110000B9F1A32B847013000D19DE60136ECE71B
:1041200033003A000A9909980B9CA0470130C5D189
:1041300092E62A0001230A9909980B9E1A32B04789
:10414000013000D188E60134BDE70F9B0D9A0A9932
:1041500009980B9CA0470130C1D17DE6BA19230014
:104160000A9909980B9EB0470130C2D174E6149B9E
:104170000C93012B02DC01231A4239D001233A00AF
:104180000A9909980B9EB047013000D164E60F9B55
:104190000D9A0A9909980B9EB047013000D15BE651
:1041A000A86CE96C0C9B0022013B0C93002303F0EC
:1041B0009DF900281AD10C9B7A1C0A9909980B9E2C
:1041C000B04701300ED147E62A0001230A99099829
:1041D0000B9F1A32B847013000D13DE601360C9BE7
:1041E0009E42F1DB2A0023005032D9E60026F6E792
:1041F0003A00E2E72A0001230A9909980B9E193236
:10420000B047013000D127E60134EB68159A9B1ABC
:10421000A342EFDCF8E60024F7E7C046F7B5160046
:1042200001938A680B690C000090934200DA130036
:104230002200336043321278002A01D00133336008
:1042400023689B0602D53368023333602268062355
:1042500015001D401A4227D0230043331B785A1EF5
:1042600093412268920630D4220001990098089D5B
:104270004332A847013025D0062223680025134089
:10428000042B05D13368E568ED1AEB43DB171D40BD
:10429000A3682269934201DD9B1AED180026B542FE
:1042A00020D1002010E00135E36832689B1AAB4250
:1042B000D2DD2200012301990098089F1932B847E6
:1042C0000130F0D101204042FEBD3020E1184331E1
:1042D000087021005A1C45310978A2184332023374
:1042E0001170C1E72200012301990098089F1A323A
:1042F000B8470130E6D00136D1E70000F0B58BB009
:1043000006920A0043320793059003920A7E0C003E
:10431000109B782A09D8622A0BD8002A00D1BAE06B
:104320007A490491582A00D18EE0250042352A703E
:1043300022E0100063381528F7D803F0BDF8160006
:104340001F00F6FFF6FFF6FFF6FF1F00F6FFF6FF71
:10435000F6FFF6FF9F0036007E00F6FFF6FFB00086
:10436000F6FF3600F6FFF6FF820025001A68423598
:10437000111D196013682B7001239EE018680968ED
:10438000021D0D060BD506681A60002E03DA2D23D8
:10439000039A764213705D4B0A27049318E006686F
:1043A0001A604906F1D536B2EFE70868196840C9C6
:1043B000050602D4400600D5B6B21960534B0A2751
:1043C00004936F2A00D1023F2300002243331A7066
:1043D0006368A360002B06DB04212268039D8A43E7
:1043E000226033430CD0039D30003900FFF710FCEE
:1043F000049B013D5B5C2B70330006009F42F3D9A8
:10440000082F09D12368DB0706D5626823699A4221
:1044100002DC3023013D2B70039B5B1B2361079B58
:10442000210000930598069B09AAFFF7F7FE0130CB
:1044300048D1012040420BB0F0BD202209680A4358
:104440002260782232490491210045310A701968AE
:10445000226840C9100602D4500600D5B6B21960D1
:10446000D30702D5202313432360002E01D0102749
:10447000AAE72022236893432360F8E71A680D68AF
:10448000101D4969186013682E0601D5196002E0F5
:104490006D06FBD519800023039D2361BFE71A68D1
:1044A000111D1960156800212800626800F0AAF942
:1044B000002801D0401B6060636823610023039AD9
:1044C0001370ACE72A00236906990598079DA84751
:1044D0000130AED023689B0715D4099BE068984251
:1044E000A9DA1800A7E72200012306990598079E7C
:1044F0001932B04701309CD00135E368099A9B1A04
:10450000AB42F0DCE9E70025F7E7C046568A000831
:10451000678A00080EB403B503AB04CB816801932E
:1045200001F0F8FF02B008BC03B018470FB407B59C
:10453000054904AB086804CB8168019301F0EAFFE8
:1045400003B008BC04B0184704000020036A70B52B
:1045500005000E008468002B01D102F0C9FA636ED9
:10456000DB0705D4A3899B0502D4A06D00F043F9B5
:10457000A3891B0702D52369002B1FD12100280026
:1045800000F0CCF8002819D001256D42636EDB07DE
:1045900005D4A3899B0502D4A06D00F032F9280050
:1045A00070BD0136A360002B04DAA2699A4216DCC2
:1045B0000A2914D023685A1C22601970A368317824
:1045C000013B0029EDD1A360002B0FDA2200280067
:1045D0000A3100F057F80130D6D00A25D6E722007C
:1045E000280000F04FF80130E8D1CDE723685A1CCD
:1045F00022600A221A70F0E710B5034B0100186818
:10460000FFF7A4FF10BDC046040000200CB400B5A5
:104610009DB00291069109491EAB0791049108498A
:1046200004CB059102A9019301F03EFE0022029BFA
:104630001A701DB008BC02B01847C046FFFFFF7FCC
:104640000802FFFF0EB400B50B499CB01DAB0290F1
:104650000690079104910948094904CB0591006827
:1046600002A9019301F020FE0022029B1A701CB0E7
:1046700008BC03B01847C046FFFFFF7F04000020BE
:104680000802FFFFF8B506000D001400002804D052
:10469000036A002B01D102F02BFAA369A360A3895E
:1046A0001B0702D52369002B09D12100300000F03F
:1046B00035F8002803D001256D422800F8BD236994
:1046C0002068EFB2C01A6369EDB2834205DC2100B5
:1046D000300002F0CDF80028EDD1A3680130013B95
:1046E000A36023685A1C22601F706369834204D050
:1046F000A389DB07E1D50A2DDFD12100300002F0CC
:10470000B7F80028D9D0D6E710B5034B0A0001004E
:104710001868FFF7B7FF10BD040000202D4B70B5DF
:10472000050018680C00002804D0036A002B01D192
:1047300002F0DEF90C22A35E1A0723D4DA0607D4AE
:1047400009222A60402201201343A38140423AE01B
:104750005B0713D5616B002908D0230044339942CD
:1047600002D0280000F0D2FE002363632422A38934
:104770009343A38100236360236923600823A289F4
:104780001343A3812369002B0BD1A0218022A3898D
:10479000890092000B40934203D02100280002F0D0
:1047A0007BFB0C22A35E01211A000A400B420BD0B6
:1047B0000022A26062695242A26100202269824204
:1047C00001D11A06BED470BD990700D46269A260F7
:1047D000F3E7C04604000020F030704700487047FF
:1047E000500100200048704750010020704770477A
:1047F000704770477047704701207047012070472D
:1048000070477047C9B28218904201D100207047AA
:1048100003788B42FBD00130F6E70023C25C013302
:10482000002AFBD1581E7047F0B503690C6989B0A6
:10483000039006910020A34263DB0B00013C14337C
:10484000A50004935B190593039B143301935D1931
:10485000059B2F681E68380001363100FFF752F9BA
:104860000290B74227D3049B00279C46019E0797DE
:10487000624608CA30689446029A99B251431B0CAA
:104880005343C9190A0C9B1889B282B2521A07996C
:104890001F0C5218000C9BB21114C31A5B18191488
:1048A00092B21B041A43059B079104C66345DFD2ED
:1048B0002B68002B2BD00699039801F009FA0028E9
:1048C0001EDB0026019D049901C92B6887B29AB2AC
:1048D000D21B9219000C1B0C1B1A10141B181E144F
:1048E00092B21B041A43059B04C58B42ECD2019A79
:1048F000A300D3181A68002A14D0029B0133029334
:10490000029809B0F0BD2B68002B04D1013C019B3B
:10491000043DAB42F7D3039B1C61CCE71A68002A25
:1049200004D1013C019A043B9A42F7D3039B1C61DA
:10493000E3E70000F0B514001D00C6699DB00A94BD
:104940000B95259F0390002E0FD1102000F028FE1C
:10495000039B021ED86104D1EF21C74BC74802F068
:104960000FFC466086600660C660039BDB691968C1
:1049700000290BD05A68012393404A608B6003984A
:1049800000F018FF0022039BDB691A60002D1EDA7D
:1049900001233B606B005B080B930B9FB84BB84A3D
:1049A0003B40934216D1B74B249A13603B031B0B39
:1049B000234301D100F07CFDB34B269A0893002AD3
:1049C00002D0B24B269A136008981DB0F0BD0023A8
:1049D0003B60E2E70A9A0B9B129213931298139989
:1049E0000022002302F082FD061E0BD00123249A30
:1049F0001360269B002B02D0A54B269A1360A54B73
:104A00000893E1E71AAB01931BAB00930398129A4A
:104A1000139B01F07FFA7A000590520D00D17BE0E4
:104A2000139B189619039C4B090B0B439B49571872
:104A30001298139919000022994B03F03FFA994AF2
:104A4000994BFEF7A3FC994A994B02F07DFD0400B7
:104A500038000D00FEF7A2FF964A974BFEF796FC32
:104A600002000B002000290002F06EFD04000D0082
:104A7000FEF758FF0022049000232000290002F0D6
:104A80003BFD00280BD00498FEF788FF2B00220086
:104A900002F02CFD43425841049B1B1A049301234E
:104AA0001593049B162B10D812981399049A834BD4
:104AB000D2009B181A685B6802F01EFD002847D0E0
:104AC000049B013B04930023159300221A9B06923A
:104AD000DB1B5A1E3ED50122D31A069300230D93E9
:104AE000049B002B38DB049A0D9B944663440D9382
:104AF000002314920F93229B0124092B62D8052BCB
:104B000002DD0024043B2293229B981E032863D8D5
:104B100002F0C8FC5456382B1B9B1A9EF618684BA3
:104B2000F218202A0FDD40239B1A9F40654B380066
:104B3000F318DC40204303F06BFD0122624B771E2B
:104B4000CB18189276E7202320009B1A9840F2E7B2
:104B50001590BAE70D92C3E7069B049A9B1A069339
:104B600053420F9300231493C5E70123239A109314
:104B70009446049B63440E9301330993002B08DC95
:104B8000012306E001231093239B002B28DD0E93C5
:104B90000993039A0021D0690422150014359D421F
:104BA00023D94160039800F0C1FD089000281FD16F
:104BB000B021464B3148089AFF31D0E60023E2E7A6
:104BC0000023D3E7002310942293013B00220E938D
:104BD000099313332392DCE701231093023BF5E79B
:104BE00001231A000E930993F4E701315200D4E730
:104BF000039B089ADB691A60099B0E2B00D9D6E04B
:104C0000002C00D1D3E0049B002B63DD0F21049A1C
:104C10002A4B0A40D2009B181E685F68049B02243E
:104C20001D11DB050AD52A4B0D401A6A5B6A1298E2
:104C30001399FEF7A9F80A900B910134244B0C93B9
:104C4000002D08D10A980B9932003B00FEF79CF822
:104C50000A900B9159E001231D4209D0E4180C9BE6
:104C600030001A685B683900FEF790FB06000F0001
:104C70000C9B6D100833E2E7858A00089C8A0008C7
:104C80000000F07F0F270000818A0008848A000856
:104C9000558A0008548A00080000F03F01FCFFFF1D
:104CA0000000F83F61436F63A787D23FB3C8608BB2
:104CB000288AC63FFB799F501344D33F188C0008C5
:104CC0003204000012040000000010FEF58A000803
:104CD000F08B0008049B0224002B16D01298139925
:104CE0000F225D422A40D54BD2009B181A685B68A0
:104CF000FEF74CFB012700230A900B91D04E2D119B
:104D0000002D00D095E0002BA2D10A9E0B9F159B91
:104D1000002B00D198E0002230003900C94B02F08E
:104D2000EBFB002800D18FE0099B002B00D18BE02A
:104D30000E9B002B37DD049B0022013B0C933000BF
:104D4000C14B3900FEF722FB0A900B910E9B0134F8
:104D500020001193FEF722FE0A9A0B9BFEF716FB2A
:104D6000BA4B002202F0F0FBB94B0600CF18119BA2
:104D7000002B6DD10A980B990022B64B03F09EF8D8
:104D800032003B0004000D0002F0CAFB002800D0F6
:104D9000B3E2802109067B1832002000290002F0CE
:104DA000ABFB002828D1129B139C0A930B941B9BEE
:104DB000002B00DA74E1049A0E2A00DD70E19F4BAB
:104DC000D2009B185C681B6806930794239B002BFA
:104DD00000DBE7E0099B002B00DDE3E00CD1069847
:104DE000079900229B4BFEF7D1FA0A9A0B9B02F01F
:104DF000A1FB002800D183E200263700239B089CFA
:104E0000DB430C93049700273100039800F0D2FC99
:104E1000049B002B00D1BBE0002F05D09F4203D0A4
:104E20003900039800F0C6FC0499039800F0C2FC16
:104E3000AEE03D4205D032687368FEF7A7FA3B004A
:104E400001346D1008365BE7049B0C93099B7FE7E8
:104E5000119A7A4B013AD20010999B181A685B6834
:104E600000294CD000207C49FDF78EFF32003B002A
:104E700003F024F8089A060094460F00089B169346
:104E8000119B634411930A980B99FEF74BFD0500A3
:104E9000FEF784FD02000B000A980B9903F00EF850
:104EA000169B30355C1C1D7032003B000A900B9144
:104EB00002F022FB00286BD10A9A0B9B002061496B
:104EC00002F0FCFF32003B0002F016FB002800D08D
:104ED000C6E0119BA34200D165E7002230003900F3
:104EE000594BFEF753FA002206000F000A980B995F
:104EF000554BFEF74BFA16940A900B91C3E730001E
:104F00003900FEF743FA089D119A2B00944616903B
:104F10001791634419930A980B99FEF703FD040057
:104F2000FEF73CFD0B0002000A980B9902F0C6FF49
:104F30003034199B2C70013506000F00AB422AD18A
:104F400016981799089B119C9C460022424B64447A
:104F500002F0FAFA02000B003000390002F0E0FA29
:104F6000002800D07CE0169A179B00203A4902F0F6
:104F7000A5FF02000B003000390002F0BDFA002846
:104F800000D110E72300013C2278302AFAD01C001F
:104F90000C9B049342E000222B4BFEF7F7F90A909A
:104FA0000B91B8E7099B089D013B5B190A9E0B9F7B
:104FB0000A93069A079B30003900FDF7E5FEFEF7DD
:104FC000B1FC0990FEF7EAFC069A079BFEF7DEF9B2
:104FD00002000B003000390002F070FF2B00099A2C
:104FE000013530321A700A9A2C009A424BD10200D5
:104FF0000B0002F0A9FA069A079B06000F0002F0C8
:105000008FFA00282AD1069A079B3000390002F057
:105010006DFA002802D0099BDD071FD4059903987B
:1050200000F0C8FB00232370049B249A0133136013
:10503000269B002B00D1C7E41C60C5E4188C000837
:10504000F08B00080000F03F0000244000001C40EE
:105050000000C0FC000014400000E03F049B0C93E3
:1050600023001C00013B1A78392A08D1089A9A4279
:10507000F7D10C9A089901320C9230220A701A78F2
:1050800001321A7084E70022C44BFEF77FF9002238
:10509000002306000F0002F029FA002889D0BDE79E
:1050A000109F0F9D069C002F14D0229A012A00DD2C
:1050B000E2E0189A002A00D1D8E0B94A9B18069A73
:1050C0000121D21806920D9A0398D3180D9300F07F
:1050D00075FC0700002C0ED00D9B002B0BDD0D9AEC
:1050E0002300944200DD1300069AE41AD21A0692B5
:1050F0000D9AD31A0D930F9B002B1FD0109B002BE2
:1051000000D1D1E0002D10D039002A00039800F022
:1051100017FD059A01000700039800F067FC0600E0
:105120000599039800F046FB05960F9B5A1BAB426E
:1051300004D00599039800F003FD05900121039820
:1051400000F03CFC149B0600002B00D1BAE11A00D1
:105150000100039800F0F4FC229B06000025012BBF
:1051600016DC00250A9BAB420ED10B9B1B03AB4206
:105170000AD18C4B0B9A134206D0069B01350133A2
:1051800006930D9B01330D93149B0120002B08D037
:10519000336903339B00F318586800F0BFFB2023EA
:1051A000181A0D9B181802001F231A40184200D12C
:1051B00080E001339B1A042B78DD1C239B1A069A8E
:1051C000E418D21806920D9AD3180D93069B002B63
:1051D00005DD1A000599039800F00EFD05900D9B62
:1051E000002B05DD31001A00039800F005FD0600D4
:1051F000159B002B60D03100059800F069FD002858
:105200005ADA049B0A22013B0C9305990023039868
:1052100000F0F4FA109B0590002B00D159E1002317
:1052200039000A22039800F0E9FA0E9B0700002BD0
:105230004CDC229B022B45DD0E9B002B00D0DDE5D4
:1052400031000522039800F0D9FA06000100059804
:1052500000F03EFD002800DCD0E5089B089A5C1CAD
:10526000312313700C9B01330C93CBE536231A9A30
:105270000F9D9B1A069C22E7099B5D1E0F9BAB426C
:1052800008DB5D1B099B002BF4DA069B099A9C1A2C
:10529000002314E70F9B149AEB1AD31814930F955D
:1052A000069C0025099B0AE70F9A42E7042B8DD044
:1052B0001C3384E71300FBE7049B0C93099B0E93BC
:1052C000002BB6DD109B002B00D106E1002C05DD84
:1052D00039002200039800F08FFC07000497002D8E
:1052E00020D07968039800F021FA041E0CD1220026
:1052F0002D4B2E482E49FFF732FB119E3700ACE7AD
:10530000049B099E0C93F9E739003A690C3102328B
:1053100092000C3001F02AFF01222100039800F0D6
:105320006BFC0490089B0E9A0693013B9B1801228C
:105330000F930A9B13400E9331000598FFF774FA00
:10534000390005000A90059800F0C2FC049A0D90FF
:105350003100039800F0D8FC0122C3680400303506
:105360000992002B04D10100059800F0B1FC0990CE
:105370002100039800F01EFA069B229A5C1C099BF0
:1053800013430E9A134315D1392D2ED00D9B002BAC
:1053900001DD0A9D3135069B1D7035E50000244076
:1053A000330400000000F07FF58A00089C8A0008A2
:1053B000EF0200000D9B002B04DB229A13430E9A90
:1053C00013431ED1099B002BE5DD059901220398AB
:1053D00000F012FC3100059000F07AFC002802DC9D
:1053E000D9D1EB07D7D5392DD3D13923069A1370EC
:1053F00023001C00013B1A78392A50D001321A7060
:1054000002E5099B002B03DD392DEED00135C2E703
:10541000069B069A1D700F9B93422BD000230A22F5
:105420000599039800F0EAF9049B05909F4209D181
:10543000390000230A22039800F0E0F907000490E5
:10544000069479E7390000230A22039800F0D6F980
:10545000002307000A220499039800F0CFF9049072
:10546000EEE70E9B0124002B00DD1C0004970027B3
:10547000089B1C1905990122039800F0BDFB31001F
:10548000059000F025FC0028B2DC01D1ED07AFD477
:1054900023001C00013B1A78302AFAD0B4E4089AA1
:1054A0009A42A6D10C9B01330C9331231370ABE4C9
:1054B000144B269A0893144B002A01D0FFF782FA66
:1054C000FFF782FA229B012B00DC4AE60120149DA3
:1054D00067E60E9B002B00DCABE60024310005984C
:1054E000FFF7A2F9089B303018550E9B01340500D8
:1054F000A342B6DD00230A220599039800F07EF945
:105500000590EBE7788A0008808A000870B50500EE
:105510000C1E10D0043C2368002B00DAE41828008D
:1055200000F0F4F81D4A1368002B05D16360146085
:10553000280000F0F3F870BDA34208D920682118B4
:105540008B42F3D119685B6809182160EEE71A00F5
:105550005B68002B01D0A342F9D911685018A04212
:105560000BD120680918501811608342E0D11868E7
:105570005B68411811605360DAE7A04202D90C233E
:105580002B60D5E7206821188B4203D119685B682E
:105590000918216063605460CAE7C04644030020D4
:1055A00010B5034B0100186800F030F810BDC0467C
:1055B0000400002010B5034B01001868FFF7A6FF98
:1055C00010BDC0460400002070B50F4E0D003168BC
:1055D0000400002902D101F099FD3060290020006B
:1055E00001F094FD431C03D101256D42280070BDDC
:1055F0000323C51C9D43A842F8D0291A200001F0BE
:1056000085FD0130F2D1EFE740030020F7B503221A
:10561000CB1C9343083305001F000C2B34D20C27FE
:10562000B94233D8280000F071F8374E33681C00B7
:10563000002C2FD139002800FFF7C6FF0400431CBF
:105640005FD134680094009B002B4AD1002C52D0CB
:1056500023682800E3180099019301F057FD019B8E
:10566000834248D123682800FF1A3900FFF7ACFFB6
:10567000013040D02368DB19236033685A68002A60
:1056800033D1009B336019E0002BC9DA0C232B6067
:105690000020FEBD2168C91B20D40B290AD9E219BC
:1056A0002760A34204D1326063681160536005E053
:1056B0005A60F9E76268A3420ED13260280000F018
:1056C0002DF8200007220B30231D9043C21A984268
:1056D000DFD01B1AA350DCE75A60EFE723006468B1
:1056E000A6E7009C63680093ADE71A005B68A342DD
:1056F000FBD10023DAE70C2328002B6000F00EF822
:10570000C6E70760DAE7C0464403002010B5024848
:10571000FFF771F810BDC0463C03002010B50248E9
:10572000FFF76FF810BDC0463C03002070B5C56997
:1057300006000C00002D0ED11020FFF731FF021ED5
:10574000F06104D16B21194B194801F019FD456036
:1057500085600560C560F569EB68002B13D0F369BF
:10576000A200DB689B181868002818D101210D00E1
:10577000A5406A1D3000920001F025FD00280CD0E4
:10578000446085600DE021220421300001F01BFD02
:10579000F369E860DB68002BE1D1002070BD02688E
:1057A0001A6000230361C360F8E7C046858A0008D9
:1057B000068B000870B5C66905000C00002E0ED1DE
:1057C0001020FFF7EDFE021EE86104D18F21094B86
:1057D000094801F0D5FC466086600660C660002C72
:1057E00007D0EB696268DB6892009B181A68226038
:1057F0001C6070BD858A0008068B0008F7B50F0095
:1058000001900C001E0000200D6914373B68013028
:1058100099B251431B0C534389190E0C9B191E0C52
:1058200089B21B045B1808C78542EFDC002E22D02A
:10583000A368AB4219DC616801980131FFF776FF7C
:10584000071E05D13A00BA210C4B0D4801F098FC17
:10585000210022690C31023292000C3001F086FCEA
:1058600021000198FFF7A6FF3C002B1D9B00E318C9
:1058700001355E6025612000FEBDC046F58A000846
:10588000068B0008F7B5070018000C000830092146
:1058900001931500FCF770FE0123002183420ADB0F
:1058A0003800FFF743FF011E08D10A00194B1A48C0
:1058B000D33101F065FC5B000131EFE7089B4361E8
:1058C00001230361092D18DD230009331E00009315
:1058D000641933780A223800303BFFF78FFF013616
:1058E0000100A642F5D12C00009B083C1C192E009B
:1058F000019B9E4204DB0800FEBD09250A34F6E741
:10590000631B9B5D0A223800303BFFF777FF0136AF
:105910000100EDE7F58A0008068B000880220300ED
:1059200052020020934201D21B0410308022520404
:10593000934201D208301B0280225205934201D2C9
:1059400004301B018022D205934201D202309B0019
:10595000002B03DB0130134200D120207047036885
:10596000010007221800104013420DD0063A002013
:10597000134205D10230034203D0D34010000B6024
:1059800070479B080B60FBE79AB2002A01D11020F8
:105990001B0CDAB2002A01D108301B0A1A0701D108
:1059A00004301B099A0701D102309B08DA07E9D4B9
:1059B00001305B08E6D12020E2E7000010B50C00C2
:1059C0000121FFF7B3FE002807D14621054C020054
:1059D000054B2000FF3101F0D3FB0123446103613B
:1059E00010BDC046068B0008F58A0008F0B514000B
:1059F0000A6923690D0089B09A4202DB23000C007A
:105A00001D0027692E696168BB190093A368BA1944
:105A1000934200DA0131FFF789FE8446002806D15F
:105A2000B1216246444B4548490001F0A9FB020000
:105A3000BB1914329B00D318019300211300019865
:105A4000834228D32300BF00143304931435DB1999
:105A5000B6000293AB190793042305932300029920
:105A60001533994205D30C1B153CA4080134A3003F
:105A70000593079B9D4210D3009B002B05DD019BE6
:105A8000043B01931B68002B52D063466046009A8A
:105A90001A6109B0F0BD02C3D1E72C68A4B2002C92
:105AA0001FD000231700049E039308CE3968069385
:105AB0006B461B8B88B263431B180398090C1B1899
:105AC0000698000C60434018190C4118080C9BB252
:105AD00009041943029B039002C7B342E5D8059B12
