:100000000200962200000000000000020220000012
:10001000000000000000000000000002022C0000B0
:100020000000000000000000000000020238000094
:100050000000000000000000000000020259000043
:10007000000000020240000000000000000000003C
:100080000000000000000000000000020249000023
:10009000000000020251758107120107E58260032A
:1000A000020102780079007A007B007C007D00EC80
:1000B0004D601C88828983E493A3A882A9838A82E5
:1000C0008B83F0A3AA82AB831CBCFFE31D80E07589
:1000D00082007583007C007D00EC4D600AE4F0A393
:1000E0001CBCFFF51D80F27582007583007C007DCD
:1000F00000EC4D600AE4F0A31CBCFFF51D80F21279
:10010000000312038C80FE75A7007597DE7597AD0E
:1001100075FF8075EF0675A71075C12075A700756E
:10012000A90075A900E5A930E7FB75A90375A90326
:10013000E5A930E7FB43A4C2E5A575A5FF43A601E9
:1001400075E10075E20075E340C28CC28D438E04F8
:100150005389F0438901758A60758C73D2A9D28C5A
:10016000C28EC28F438E0853890F438910758BB09E
:10017000758DB9D2ABD28E75C800438E1075CA206A
:1001800075CBD175CEFF75CFFFD2ADD2CA759100B8
:10019000438E407592D87593DC7594FF7595FF4337
:1001A000E68043910475A71075980043A60175A2D7
:1001B000E075A3E375A4FF75A5FF43F304D29A7518
:1001C000A71075C00043A60475D26C75D3EE75D424
:1001D000FF75D5FF43F308D2C275A70075D9007526
:1001E000F90075FA0075D90875AF4975AE4975DC27
:1001F0004975DB4975DA4975FB1675FC1475E99488
:1002000075EA1175EBA075EC0F75F41075F50E75A8
:1002100084C875850CD2DE43E610D2AF7582002209
:1002200075A700758A60758C73B2A03275A70075CA
:100230008BB0758DB9B2973275A700C2CFB2963226
:1002400075A70053913FB2953275A710C29FB29423
:100250003275A710C2C7B28232C0E0C002C003C06C
:1002600004C005C006C007C0D075D00075A7003017
:10027000D82DABFC7A00ACFB7D00EC2AFAED3BFB01
:100280003395E0FCFD74162AFA74143BFBE43CE45D
:100290003D8A048CFB8B047D008CFCC2D8B292306A
:1002A000D933ADEA7C00AEE97F00EE2CFCEF3DFDDA
:1002B0003395E0FEFF74942CFC74113DFDE43EFE8A
:1002C000E43FFF8C028D038A048CE98B047D008C53
:1002D000EAC2D9B29130DA33ADEC7C00AEEB7F00EC
:1002E000EE2CFCEF3DFD3395E0FEFF74A02CFC747A
:1002F0000F3DFDE43EFEE43FFF8C028D038A048C3B
:10030000EB8B047D008CECC2DAB29030DB33ADF5C0
:100310007C00AEF47F00EE2CFCEF3DFD3395E0FE5B
:10032000FF74102CFC740E3DFDE43EFEE43FFF8C98
:10033000028D038A048CF48B047D008CF5C2DBB241
:100340008730DC35AD857C00AE847F00EE2CFCEF81
:100350003DFD3395E0FEFF74C82CFC740C3DFDE4BC
:100360003EFEE43FFF8C028D038A047D008C848B6B
:10037000027B008A85C2DCB286C2DFD0D0D007D033
:1003800006D005D004D003D002D0E032B2817AE8A2
:100390007B031ABAFF011BEA4B70F780EF000000E5
:00000001FF
