:020000040800F2
:1000000000200020B9000008490200084F02000843
:1000100000000000000000000000000000000000E0
:10002000000000000000000000000000490200087D
:10003000000000000000000049020008490200081A
:100040004902000849020008490200084902000864
:100050004902000849020008490200084902000854
:100060000000000049020008490200084902000897
:100070004902000849020008000000006F02000861
:10008000000000004902000800000000000000001D
:100090004902000800000000490200084902000867
:1000A0004902000849020008490200084902000804
:1000B000490200084902000800F042F800F004F884
:1000C00000F098F9FEE7000080B582B000AF164B53
:1000D0007B60164B3B6007E07A68131D7B603B68D2
:1000E000191D396012681A603A68114B9A42F3D3AD
:1000F00004E03B681A1D3A6000221A603A680D4B12
:100100009A42F6D30C4B3B6004E03B681A1D3A6000
:100110001B6898473A68094B9A42F6D3C046C046D6
:10012000BD4602B080BDC0460004000800000020AB
:100130000000002004000020000400080004000863
:1001400080B500AF3B4B1A683A4B01210A431A6055
:10015000C046384B1B6804221340FAD0354B0122AD
:10016000DA60C046334BDB680C221340042BF9D114
:10017000314B1A68304B02210A431A602E4B1A6821
:100180002D4B01210A431A602A4B9A6B294B80217F
:1001900049050A439A63294B802212011A60C0461E
:1001A000264B5B6810221340FAD1224BDA68214BB0
:1001B00023490A40DA601F4BDA681E4B8821C903C5
:1001C0000A43DA601B4A1B4BD268DA60194A194BA2
:1001D000D268DA60174A174BD268DA60154B1A6892
:1001E000144B18490A401A60124B1A68114B8021AF
:1001F00049040A431A60C0460E4B1A6880239B04C8
:100200001340F9D00B4BDA680A4B03218A43DA60BA
:10021000084BDA68074B03210A43DA60C046054BF6
:10022000DB680C2213400C2BF9D1C046C046BD46FA
:1002300080BDC04600100240002002400070004017
:10024000FFFF02FFFFFFFFFE80B500AFFEE780B5B6
:1002500000AFFEE780B500AFA023DB055A69A023FD
:10026000DB0501214A405A61C046BD4680BD80B5CC
:1002700000AF8023DB051A698023DB0501218A4357
:100280001A610E4B1B685A1C0C4B1A600B4B1B68F7
:100290000B4A93420EDD8023DB055B6B10331A00A3
:1002A0008023DB05FF210A405A63044B00221A60B9
:1002B000FFF7D0FFC046BD4680BDC046000000200D
:1002C00060EA000080B500AF474BDA6A464B012177
:1002D0000A43DA62A023DB051B68032293431A005A
:1002E000A023DB0501210A431A60A023DB059A68DD
:1002F000A023DB058021C9050A439A60A023DB0502
:100300005A68A023DB0539490A405A60A023DB055F
:100310001B689B009A08A023DB05802109060A437D
:100320001A60A023DB055A6AA023DB05A021C905BA
:100330000A435A622C4B9A6B2B4B01210A439A6356
:100340008023DB05FF22DA62294B1A68284B8021C3
:1003500009020A431A608023DB051A688023DB0543
:1003600010210A431A608023DB051A688023DB050D
:1003700080210A431A608023DB05DA688023DB05CD
:1003800001210A43DA608023DB051A688023DB053C
:1003900001210A431A608023DB059A698023DB056B
:1003A00060210A439A618023DB059A698023DB057B
:1003B00008210A439A618023DB051A6A8023DB0542
:1003C00001210A431A628023DB057D225A638023C0
:1003D000DB055A698023DB0501210A435A6162B6B5
:1003E000C046C046BD4680BD00100240FF7FFFFFF3
:1003F00000E100E080B500AFFFF764FFFEE7C04614
:04000005080000B936
:00000001FF
