:10000000020003758189120136E582600302006FE8
:10001000780079007A007B007C007D00EC4D601C4C
:1000200088828983E493A3A882A9838A828B83F040
:10003000A3AA82AB831CBCFFE31D80E07582007520
:1000400083007C007D00EC4D600AE4F0A31CBCFF43
:10005000F51D80F27582007583007C007D00EC4DFB
:10006000600AE4F0A31CBCFFF51D80F212013512FA
:10007000067B80FE252E34660078706F733A20254B
:10008000732079706F733A2025730D0A001B5B3261
:100090004A0041444320746573742070726F677224
:1000A000616D0A46696C653A2025730A436F6D706D
:1000B000696C65643A2025732C2025730A0A004375
:1000C0003A5C55736572735C6B6579626F5C446F03
:1000D00063756D656E74735C4769744875625C50D6
:1000E000726F6A65637432454C45433239315C4AFC
:1000F0006F79737469636B54657374436F64652EB1
:1001000063004D6172203139203230323400323197
:100110003A33393A31380078766F6C74733A202567
:10012000372E35662079766F6C74733A2025372E1A
:1001300035660D0A002275A7007597DE7597AD75B7
:10014000FF8075EF0675A71075C12075A70075A90A
:100150000075A900E5A930E7FB75A90375A903E5BA
:10016000A930E7FB43A41075E10175E20075E34097
:10017000759810758DE6858D8B53890F438920D234
:100180008ED2997582002275A700C2EF75B2807574
:10019000BC2075B91E75E80075DF3F75B300D2EF5E
:1001A00022AA82438E407592B87593FF85929485FA
:1001B00093957591047B00C3EB9A500BE59130E762
:1001C000FB53917F0B80F075910022AA82AB837C58
:1001D000007D00C3EC9AED9B502B7E00BE040050C6
:1001E0001D7582FAC002C003C004C005C00612011A
:1001F000A1D006D005D004D003D0020E80DE0CBC06
:1002000000D10D80CE22AA828511F005F074018004
:100210000225E0D5F0FBFB75A720BA0002800ABAE0
:100220000102800FBA021E8014EBF4FA52F1EB4285
:10023000D48012EBF4FA52F2EB42D58008EBF4FAD8
:1002400052F3EB42CC75A700225389F0438901C2D7
:100250008C228582BBC2EDD2EC30EDFD85BD82855E
:10026000BE8322C2EDD2EC30EDFD85BD8285BE831A
:10027000221202521207CEAA82AB83ACF0FDC0025A
:10028000C003C004C005906C8B75F0537440120815
:100290003AAA82AB83ACF0FDE58124FCF581E4C091
:1002A000E074FCC0E0747FC0E07446C0E08A828BDA
:1002B000838CF0ED1209CCAA82AB83ACF0FDE58112
:1002C00024FCF5818A828B838CF0ED22D296758294
:1002D000281201A1C29622AA828AE0A2E79290A2E5
:1002E000E69291A2E59292A2E49293C0021202CC0D
:1002F0007582281201A1D0028AE0A2E39290A2E2C4
:100300009291A2E19292A2E092930202CCAA82D2AE
:10031000978A821202D79000020201CBAA82C2976A
:100320008A821202D79000050201CBC29690001477
:100330001201CB75823312031C75823312031C75B4
:10034000823212031C75822812031C75820C120360
:100350001C75820112031C9000140201CBAA82AB0F
:1003600083ACF07402B523047DC080027D808D8251
:10037000C002C003C00412031C9000051201CBD0C0
:1003800004D003D0027D007E00ED2AFFEE3BF88C06
:10039000018F82888389F01207B2FF60208F82C0AC
:1003A00002C003C004C005C00612030DD006D0056C
:1003B000D004D003D0020DBD00CF0E80CC3000247D
:1003C0008D028E03C3EA9410EB64809480501575FF
:1003D0008220C002C00312030DD003D0020ABA006B
:1003E000E30B80E02285822785832885F029120788
:1003F000B2F550A31207B2F551A31207B2F552A3FA
:100400001207B2F553740AC0E07458C0E07409C012
:10041000E07440C0E08550828551838552F0E553F9
:100420001207DAA982E58124FCF581E96031740ABA
:10043000C0E07458C0E07409C0E07440C0E085506A
:10044000828551838552F0E5531209C185822A8540
:10045000832B85F02CF52DE58124FCF581806274D9
:100460000AC0E07458C0E07409C0E07440C0E08580
:1004700050828551838552F0E55312080AAD82E51A
:100480008124FCF581ED602DC050C051C052C05395
:1004900090580A75F00974401209C1AD82AE83AF5D
:1004A000F0F8E58124FCF5818D2A8E2B8F2CE8B2A3
:1004B000E7F52D800C752A00752B00752C00752D25
:1004C0000074042527FDE43528FEAF298D828E8334
:1004D0008FF01207B2F550A31207B2F551A312071D
:1004E000B2F552A31207B2F553740AC0E07458C0B3
:1004F000E07409C0E07440C0E08550828551838576
:1005000052F0E5531207DAAA82E58124FCF581EA6C
:10051000602D740AC0E07458C0E07409C0E07440F3
:10052000C0E08550828551838552F0E5531209C1A0
:10053000AA82AB83ACF0F9E58124FCF581805D747F
:100540000AC0E07458C0E07409C0E07440C0E0859F
:1005500050828551838552F0E55312080AAD82E539
:100560008124FCF581ED602CC050C051C052C053B5
:1005700090580A75F00974401209C1AD82AE83AF7C
:10058000F0F8E58124FCF5818D028E038F04E8B23A
:10059000E7F980087A007B007C007900AD24AE2565
:1005A000AF268D828E838FF0E52A120913A3E52BE7
:1005B000120913A3E52C120913A3E52D12091374D4
:1005C000042DFDE43EFE8D828E838FF0EA12091326
:1005D000A3EB120913A3EC120913A3E9120913C028
:1005E00002C003C004C001C02AC02BC02CC02D749F
:1005F00074C0E07400C0E07480C0E0742EC0E07489
:1006000000C0E07440C0E012097BE58124F6F5816A
:10061000752301D20090002E75F04012035D7474B2
:10062000C0E07400C0E07480C0E0743FC0E07400BB
:10063000C0E07440C0E012097BE58124F6F58175C5
:100640002302D20090003F75F04012035D743FC05A
:10065000E07400C0E07440C0E0742EC0E07400C0DC
:10066000E07440C0E07479C0E07400C0E07480C001
:10067000E01208F2E58124F7F58122120249120303
:100680002B9001F41201CB748DC0E07400C0E074B3
:1006900080C0E01208F2158115811581740EC0E04A
:1006A0007401C0E07480C0E07402C0E07401C0E076
:1006B0007480C0E074BFC0E07400C0E07480C0E02B
:1006C0007492C0E07400C0E07480C0E01208F2E5EB
:1006D0008124F4F5817511047582011202067511E9
:1006E0000575820112020612018775820A120271D3
:1006F000AA82AB83ACF0FDC002C003C004C0059069
:1007000004F375F0B5743F12083AAA82AB83ACF0DB
:10071000FDE58124FCF5818A548B558C568D5775E7
:10072000820B120271AA82AB83ACF0FDC002C0033F
:10073000C004C0059004F375F0B5743F12083AAADE
:1007400082AB83ACF0FDE58124FCF5818A588B599E
:100750008C5A8D5B75245C7525007526409000547D
:1007600075F0401203E575820B1202718582648573
:10077000836585F066F56775820A120271AE82AFF5
:1007800083AAF0FBC064C065C066C067C006C0072E
:10079000C002C0037417C0E07401C0E07480C0E000
:1007A0001208F2E58124F5F5819001F41201CB02E3
:1007B00006EA20F71430F6148883A88220F507E6AD
:1007C000A88375830022E280F7E49322E022E4AC60
:1007D00083AB82FAF9748E020AF4FFA8811818120A
:1007E0000B1CD2D133E6400730E70B758201222083
:1007F000E70675820022C2D1120AFEE97003F58273
:100800002230D101B3E433F58222FFA881181812F7
:100810000B1CD2D133E6400730E70B758200222053
:10082000E70675820122C2D1120AFEE97003F58241
:100830002220D101B3E433F58222120BC9BC00039C
:10084000020B68EF60FA30D502B2D1E583B4FF0342
:10085000020B7EE582B4FF03020B7E258340072452
:1008600082400B020B682483145003020B7EF58236
:10087000EA8DF0A4A8F0EA8EF0A428F8E435F0F9A7
:10088000EB8DF0A428E935F0F9E433CA8FF0A42900
:10089000F9EA35F0FAEBF88EF0A429F9EA35F0FA26
:1008A000E433FBEC8DF0A429F9EA35F0FAE43BFBE4
:1008B000E88FF0A42AFAEB35F0FBE433CCFD8EF0A0
:1008C000A42AFAEB35F0FBE43CFCED8FF0A42BFB03
:1008D000EC35F0FC20E703120B96020B4702158360
:1008E00085827685837785F0788510799008DD029A
:1008F0000FD6C008858108E50824FBF579E50824B2
:10090000FBF886760886770886789008DD120FD681
:10091000D0082220F71030F6118883A88220F5072E
:10092000F6A88375830022F280F7F022AA82AB0931
:10093000AC0AAD0B8B828C838DF0EA12091305098A
:10094000E4B50902050A2285820985830A85F00B30
:10095000850C76850D77850E78850F7990092C1298
:100960000FD6AA82AB83AC09AD0AAE0B8C828D8305
:100970008EF0E41209138A828B8322C008858108D5
:10098000E50824F8F579E50824FBF8860908860AC5
:1009900008860BE50824F8F88676088677088678B6
:1009A00090092C120FD6AA82AB83AC09AD0AAE0B0C
:1009B0008C828D838EF0E41209138A828B83D00897
:1009C00022A8811818C6B2E7C6021598120BC930C2
:1009D000D502B2D1BF0009BC0003020B8B020B7E13
:1009E000BC0003020B68E583B4FF0BE582B4FF0390
:1009F000020B8B020B68E582B4FF03020B7EC395EA
:100A0000835007247F400B020B682480145003029C
:100A10000B7EC0E0E4CCCBCAF98D118E128F13EFA0
:100A200054F0C4F5147583068514F0EB84F582E95F
:100A3000C4F9EAC4FAEBC4FBEC540FC47803D6FC47
:100A400018EBD6FB18EAD6FA8582F0EDA4A8F0FDE3
:100A50008582F0EEA428FEE435F0F88582F0EFA45C
:100A600028FFE435F0F8E99DF9EA9EFAEB9FFBECEC
:100A700098FCAD11AE12AF1330E7101582E92DF9D5
:100A8000EA3EFAEB3FFBE43CFC80EDC082D5839864
:100A9000C3E933F9EA33FAEB33FBEC33FCC3E99DEA
:100AA000EA9EEB9FEC9400B3E413F9D002D0E0C4CB
:100AB0004AFAD003D0E0C44BFBD004D0E0F5F054A8
:100AC0000FC44CFCD082158230F40FD3EC13FCEB36
:100AD00013FBEA13FAE913F90582E930E70A740116
:100AE0002AFAE43BFBE43CFC020B5FFCABF0AA837C
:100AF000A982749EC2D1F582120B96020B4779012E
:100B0000AA82E68F82B5821318E6B5F00E18E6B514
:100B1000830918E68A82B58202790022B4800FE543
:100B2000F0700AE5837006E58270027F00EFB68000
:100B30001518B6001018B6000B18B60006080808FD
:100B400076002208080822B98003EA13B34010EAAD
:100B50002401FAE43BFBE43CFC50047C800582BCAD
:100B6000000EBB000BBA0008E4F5F0F583F5822215
:100B7000A2D1E582138CF092F78B838A8222E4F56E
:100B800083F58275F080F4A2D11322E4F583F58217
:100B900075F0C0747F227804EC7011E58224F8505F
:100BA0000AF582E4C9CACBFCD8EF22EC7820058292
:100BB00020E713D5820122C3E933F9EA33FAEB3394
:100BC000FBEC33FCD8EA158222AA82AB83A2F7336E
:100BD00092D16002D2F7F582ACF0E58124F9F8E613
:100BE000FD08E6FE0886F008E6A2F73392D560021B
:100BF000D2F7F583AFF022AA827408C0E0740CC06B
:100C0000E0C068C0698A8222056FE4B56F02057092
:100C100022AA8274302AFA24C6500A74072AFA30AB
:100C200001034302208A82020BF7E582FAC4540FC3
:100C3000F582C002120C11D002740F5AF582020C18
:100C400011AA6AAB6BAC6CAD6DAE6E757520EE2EF5
:100C5000FEED235401FF4206EA2AFAEB33FBEC33A4
:100C6000FCED33FDC3EE95714008EEC39571FE4374
:100C70000201D575D98A6A8B6B8C6C8D6D8E6E2254
:100C80007886E624D075F00AA4FA7887E624D02A7C
:100C9000FA78858603BB2D04C3E49AFA757101C303
:100CA000E464808AF063F08095F050297575038ABA
:100CB0000374F62575401C0571E57514247AF8E572
:100CC00075247AF98704A604772E1BEBFA600405D5
:100CD0007580DE8B02EA30E70D787B8603787CA690
:100CE00003787B762E0AE573600AE57304FB2571B1
:100CF000F5718005300C020571787A8603E4BB2D0E
:100D00000104FB700620070330080205713005035B
:100D1000020DC7300657EB600C75822DC002120B16
:100D2000F7D002801C30070C75822BC002120BF723
:100D3000D002800D30080A758220C002120BF7D055
:100D400002787B8604BC2E0C758230C002120BF731
:100D5000D0021572AC721572C3E5719C4003020E8D
:100D60000B758230C002120BF7D00280E7AC72150F
:100D700072C3E5719C500C758220C002120BF7D033
:100D80000280EA787A8604BC2D0C75822DC002128E
:100D90000BF7D002801C30070C75822BC002120B9F
:100DA000F7D002800D30080A758220C002120BF7BE
:100DB000D002787B8604BC2E52758230C002120BA2
:100DC000F7D00215728044EB600E75822DC00212BE
:100DD0000BF7D0021572802030070E75822BC002EF
:100DE000120BF7D0021572800F30080C758220C0EC
:100DF00002120BF7D0021572787B8603BB2E0C759E
:100E00008230C002120BF7D0021572757501C20E46
:100E1000E575247AF88603BB4503020EC8BB2E3461
:100E20008A03C3E464808BF063F08095F0500F7503
:100E30008230C003120BF7D0031B8B0280E48B02BD
:100E4000D20EE5737038200C03020EC875822E1284
:100E50000BF78074300E278A03EB30E71FC3E4647E
:100E6000808573F063F08095F0500C758230C0037C
:100E7000120BF7D00315730B8B0280DD8B02300E43
:100E80000EC3E464808573F063F08095F05021E533
:100E900075247AF886038B82C002120BF7D00230D9
:100EA0000E0EE575247AF88603BB2E0280021573B8
:100EB0001572C3E464808573F063F08095F040039D
:100EC000200E050575020E10C3E464808573F0637F
:100ED000F08095F0500A758230120BF7157380E898
:100EE00030050FAA721572EA6008758220120BF79E
:100EF00080F122E5737003300C0D74072573FAE559
:100F000072C39AF5728006E57224FAF5727575005F
:100F1000787A8602BA2B0F20070C787A7620200880
:100F2000057575010572200519AA72C3E464808AEB
:100F3000F063F08095F0500A758220120BF715725D
:100F400080E7C20EE575247AF88602BA000280694D
:100F5000BA451F3001027665C3E464808573F0638F
:100F6000F08095F0500A758230120BF7157380E807
:100F7000D20EC3E5759402E433FA7014EA700EC31E
:100F8000E464808573F063F08095F04003300E16C2
:100F9000E575247AF886028A82120BF7E57524FD3E
:100FA00050121573800E7402B57509300C067582E7
:100FB0002E120BF70575020F44300519AA72C3E40F
:100FC00064808AF063F08095F0500A758220120BDD
:100FD000F7157280E722858268858369E4F56FF5ED
:100FE00070AA76AB77AC788A828B838CF01207B2CA
:100FF000FD74012AF576E43BF5778C78EDFA700301
:1010000002157CBA25028003021574C205C206C20D
:1010100007C208C209C20AC20BC20CC202C203C282
:10102000047571007572007573FFAB76AC77AD789F
:101030008B828C838DF01207B2FAA3AB82AC838BC8
:10104000768C778D78BA25078A82120BF780928A80
:1010500006BE3000402E8A06EE24C6402774FFB537
:101060007313E57275F00AA4FEEA24D02EF57270AF
:10107000BFD20680BBE57375F00AA4FEEA24D02E29
:10108000F57380ACBA2E0A74FFB573A47573008033
:101090009F8A06BE6100400E8A06EE2485400753F3
:1010A00002DFD2018002C201BA20028075BA230396
:1010B000021131BA2A03021136BA2B02805FBA2D0F
:1010C000028055BA4202805FBA430302117BBA44E0
:1010D000030212B6BA45030212D0BA46030212CC7A
:1010E000BA47030212D4BA49030212B6BA4C0280BC
:1010F0003BBA4E030212D8BA4F030212BDBA5003D4
:1011000002124FBA530302119FBA55030212C2BA18
:1011100058030212C7021302D205021030D207028E
:101120001030D208021030D20A021030D20B021056
:1011300030D20C02103074FFB57320300A0BE57901
:1011400014F888798672021030E57924FEF88879DF
:101150008606088607188E72021030300A0BE57971
:1011600014F888798673021030E57924FEF88879BE
:101170008606088607188E73021030300A0AE57951
:1011800014F888798602800FE57924FEF88879863C
:1011900003088604188B028A82120BF7021307E5F4
:1011A0007924FDF8887986030886040886051818CE
:1011B0008B6A8C6B8D6C8B828C838DF0121710ABCD
:1011C00082AC838B7474FFB5730385747320051D23
:1011D000C3E57495725016E572C39574F572AB72DF
:1011E0001572EB6008758220120BF780F1856A8218
:1011F000856B83856CF01207B2FBFA6029AB73151F
:1012000073C3E464808BF063F08095F050188A8299
:10121000120BF7AB6AAC6BAD6C0BBB00010C8B6AAD
:101220008C6B8D6C80C7200503021307C3E5749592
:10123000724003021307E572C39574F572AB721521
:1012400072EB7003021307758220120BF780EEE534
:101250007924FDF88879860308860408860518181D
:101260008B6A8C6B8D6CE56CFB30E7047A438013E2
:10127000EB546060047A50800AEB30E6047A4980CF
:10128000027A588A82C002120BF775823A120BF763
:10129000758230120BF7758278120BF7D002BA49BB
:1012A00002800BBA50028006856B82120C2A856A76
:1012B00082120C2A8051D20975710A804A75710810
:1012C000804575710A8040757110803BD20280376D
:1012D000D2038033D204802FE57924FDF888798603
:1012E0000308860408860518188B6A8C6B8D6C8B36
:1012F000828C838DF0E56F120913A3E57012091338
:1013000080058A82120BF720020620030330047046
:10131000E57924FCF88879860308860408860508A0
:1013200086061818188B6A8C6B8D6C8E6DE56AE5D5
:101330006BE56CE56D8B828C838DF0EE1215F1748C
:10134000FFB57303757306300427747F556DFB8BEF
:101350006EE56EEB2BFB8B6EE56C30E7067401459A
:101360006EF56EE56E246840067499256E4002D2D3
:1013700003300306120EF3020FE1120C80020FE19C
:10138000E5717003020FE17B7F300A2BE57914F8D9
:101390008879E6FC3395E0FDFEFF8C6A8D6B8E6CE0
:1013A0008F6D20095EAC6A7D007E007F008C6A8DA7
:1013B0006B8E6C8F6D804C300B1FE57924FCF888A8
:1013C0007986040886050886060886071818188C8A
:1013D0006A8D6B8E6C8F6D802AE57924FEF8887992
:1013E000860408860518ED3395E0FEFF8C6A8D6B48
:1013F0008E6C8F6D20090CAC6AAD6B7E007F008E09
:101400006C8F6D300C43E56A456B456C456D6039FA
:101410007408B5710C758230C003120BF7D00380CD
:10142000287410B57123758230C003120BF7D003F6
:1014300030010C758278C003120BF7D003800A7557
:101440008258C003120BF7D003300925AC6AAD6B8C
:10145000AE6CE56DFF30E717C3E49CFCE49DFDE452
:101460009EFEE49FFF8C6A8D6B8E6C8F6D8002C236
:1014700009757400D20D8B00756E00C000120C410E
:10148000D000200D0DE56EC4FCE6FD4CF618880377
:101490008002A66E0574B20DE56A456B456C456D1C
:1014A00070D68803E572700375720120061A200554
:1014B00017E57404FCC39572500E758220C00312A8
:1014C0000BF7D003157280E930090E75822DC00329
:1014D000120BF7D00315728024E574602030070EDC
:1014E00075822BC003120BF7D0031572800F3008E2
:1014F0000C758220C003120BF7D003157220051E55
:10150000AC721572C3E5749C50273006047C3080A1
:10151000027C208C82C003120BF7D00380E2C3E56B
:101520007495725009E572C39574F57280037572F3
:10153000008B00AB741574EB6022B20D200D0A080D
:10154000E6C4540FFB8B6E80078603740F5BF56E49
:10155000856E82C000120C11D00080D720050302D6
:101560000FE1AB721572EB7003020FE1758220126E
:101570000BF780EE8A82120BF7020FE1856F8285EE
:10158000708322AA82BA0A0810990280FB75990D0D
:1015900010990280FB8A9922120BC97900E583B564
:1015A0008202800D5003121738E583C3958212170B
:1015B00052E5D0C465D020E117EA2DFAEB3EFBECF2
:1015C0003FFC50097401121752EC4480FC020B4797
:1015D000C3EA9DFAEB9EFBEC9FFC500FC3E499F924
:1015E000E49AFAE49BFBE49CFCB2D1120B96020B4A
:1015F00047C0E0F84582458345F07009F5F0FBFCF3
:10160000FDFE0216BFE823A2F792E0F8A982AA83A2
:10161000D2F7ABF07C007E07C3749798404074FF0C
:101620002EFE740A89F0A4F985F082740A8AF0A467
:10163000FA85F083740A8BF0A4FB740529F9EA3566
:1016400082FAEB3583FB740035F0FCC3EC13FCEB42
:1016500013FBEA13FAE913F908EC70EF80BAE8C358
:10166000947FF88B838EF0E4FBFCFDFEFF08C3E95A
:1016700033F9EA33FAE58333F583EB3BD4FBEC3CF7
:10168000D4FCED3DD4FDEE3ED4FEEF3FD4FF602D03
:1016900005F074052BD4FBE43CD4FCE43DD4FDE41C
:1016A0003ED4FEE43FD4FF758204C3EF13FFEE1374
:1016B000FEED13FDEC13FCEB13FBD582EDD8AF78F8
:1016C0007AD0E020E704762B8002762D087906E7B1
:1016D000C4540F4430F608B90603762E08E7540FB9
:1016E0004430F60819B902E7764508E5F020E7042A
:1016F000762B8004762DF4040875F00A844430F6C5
:1017000008E5F04430F608E4F690007A75F04022DF
:10171000AA82AB83ACF07D007E008A828B838CF042
:101720001207B2FFA3AA82AB83EF60070DBD00EAE8
:101730000E80E78D828E8322E582C583F582A2D159
:1017400033A2D592D11392D5ECCFFCEBCEFBEACDF0
:10175000FA226040F82582500274FFF582E824F8EE
:10176000501ECCCBCAF9E4CC24F85014CBCAF9E40F
:10177000CB24F8500BCAF9E4CA24F85003790022AC
:1017800024086010F8C3EC13FCEB13FBEA13FAE92E
:1017900013F9D8F122000000000000000000000052
:00000001FF
