:1000000002000375817412016BE582600302006FC8
:10001000780079007A007B007C007D00EC4D601C4C
:1000200088828983E493A3A882A9838A828B83F040
:10003000A3AA82AB831CBCFFE31D80E07582007520
:1000400083007C227D00EC4D600AE4F0A31CBCFF21
:10005000F51D80F27582007583007C007D00EC4DFB
:10006000600AE4F0A31CBCFFF51D80F212016A12C5
:100070000A2B80FE25660D0A006E656720780D0A42
:1000800000706F7320780D0A006E656720790D0A85
:1000900000706F7320790D0A00252E346600787089
:1000A0006F733A2025732079706F733A2025730D92
:1000B0000A001B5B324A004144432074657374207C
:1000C00070726F6772616D0A46696C653A202573BC
:1000D0000A436F6D70696C65643A2025732C202586
:1000E000730A0A00433A5C55736572735C6B6579F9
:1000F000626F5C446F63756D656E74735C476974A1
:100100004875625C50726F6A65637432454C454352
:100110003239315C4A6F79737469636B2D7465731E
:100120007465725C776F726B696E672D6A6F797335
:100130007469636B2E63004D61722033312032305D
:1001400032340031363A35383A35360078766F6CCD
:1001500074733A2025372E35662079766F6C747368
:100160003A2025372E35660D0A002275A7007597AF
:10017000DE7597AD75FF8075EF0675A71075C12008
:1001800075A70075A90075A900E5A930E7FB75A959
:100190000375A903E5A930E7FB43A41075E10175D8
:1001A000E20075E340759810758DE6858D8B538957
:1001B0000F438920D28ED2997582002275A700C282
:1001C000EF75B28075BC2075B91E75E80075DF3F0C
:1001D00075B300D2EF22AA82438E407592B8759310
:1001E000FF8592948593957591047B00C3EB9A509B
:1001F0000BE59130E7FB53917F0B80F07591002266
:10020000AA82AB837C007D00C3EC9AED9B502B7ED1
:1002100000BE0400501D7582FAC002C003C004C0B5
:1002200005C0061201D6D006D005D004D003D002F6
:100230000E80DE0CBC00D10D80CE22AA828511F08A
:1002400005F07401800225E0D5F0FBFB75A720BA0C
:100250000002800ABA0102800FBA021E8014EBF479
:10026000FA52F1EB42D48012EBF4FA52F2EB42D59F
:100270008008EBF4FA52F3EB42CC75A700225389C5
:10028000F0438901C28C228582BBC2EDD2EC30EDF5
:10029000FD85BD8285BE8322C2EDD2EC30EDFD85A9
:1002A000BD8285BE8322120287120B3EAA82AB83D7
:1002B000ACF0FDC002C003C004C005906C8B75F0AB
:1002C000537440120B7AAA82AB83ACF0FDE5812413
:1002D000FCF581E4C0E074FCC0E0747FC0E07446CB
:1002E000C0E08A828B838CF0ED120D65AA82AB830D
:1002F000ACF0FDE58124FCF5818A828B838CF0EDE6
:1003000022D2967582281201D6C29622AA828AE04B
:10031000A2E79290A2E69291A2E59292A2E4929331
:10032000C0021203017582281201D6D0028AE0A20F
:10033000E39290A2E29291A2E19292A2E0929302C1
:100340000301AA82D2978A8212030C900002020251
:1003500000AA82C2978A8212030C90000502020052
:10036000C2969000141202007582331203517582F6
:1003700033120351758232120351758228120351D0
:1003800075820C1203517582011203519000140200
:100390000200AA82AB83ACF07402B523047DC08056
:1003A000027D808D82C002C003C004120351900000
:1003B00005120200D004D003D0027D007E00ED2A99
:1003C000FFEE3BF88C018F82888389F0120B22FFAD
:1003D00060208F82C002C003C004C005C0061203A3
:1003E00042D006D005D004D003D0020DBD00CF0E00
:1003F00080CC3000248D028E03C3EA9410EB64801D
:1004000094805015758220C002C003120342D003AD
:10041000D0020ABA00E30B80E022AA82AB83ACF0E0
:10042000FDC024C025C026C0278A828B838CF0EDB6
:10043000120D5AAA82AB83ACF0FDE58124FCF58154
:10044000C002C003C004C005C002C003C004C00590
:100450007474C0E07400C0E07480C0E0120C8BE5DE
:100460008124F9F581C02CC02DC02EC02F8530828B
:100470008531838532F0E533120D5AAE82AF83A801
:10048000F0F9E58124FCF581C006C007C000C00179
:10049000C006C007C000C0017474C0E07400C0E0B2
:1004A0007480C0E0120C8BE58124F9F581D001D075
:1004B00000D007D006D005D004D003D002C006C0BB
:1004C00007C000C0018A828B838CF0ED120B7AAAE0
:1004D00082AB83ACF0FDE58124FCF581C002C00352
:1004E000C004C005C002C003C004C0057474C0E0ED
:1004F0007400C0E07480C0E0120C8BE58124F9F533
:1005000081C024C025C026C02785288285298385EF
:100510002AF0E52B120D5AAE82AF83A8F0F9E581DF
:1005200024FCF581C006C007C000C001C006C0079A
:10053000C000C0017474C0E07400C0E07480C0E00A
:10054000120C8BE58124F9F581D001D000D007D0C1
:1005500006D005D004D003D002C006C007C000C03A
:10056000018A828B838CF0ED120D65AA82AB83AC7D
:10057000F0FDE58124FCF581C002C003C004C00584
:10058000C002C003C004C0057474C0E07400C0E0C1
:100590007480C0E0120C8BE58124F9F581D005D080
:1005A00004D003D002C02CC02DC02EC02F8A828B55
:1005B000838CF0ED120C1DAA82AB83ACF0FDE581BB
:1005C00024FCF581C002C003C004C005C002C00302
:1005D000C004C0057474C0E07400C0E07480C0E062
:1005E000120C8BE58124F9F581D005D004D003D01D
:1005F000028A828B838CF0ED22AA82AB83ACF0124C
:100600000B22F537A3120B22F538A3120B22F53972
:10061000A3120B22F53A74042AFAE43BFB8A828B7C
:10062000838CF0120B22F53BA3120B22F53CA31294
:100630000B22F53DA3120B22F53EAA34AB35AC36A6
:100640008A828B838CF0120B22F9A3120B22FDA35A
:10065000120B22FEA3120B22FFC002C003C00474BF
:10066000C1C0E074E2C0E07416C0E07440C0E0892C
:10067000828D838EF0EF120B4AAD82E58124FCF56A
:1006800081D004D003D002ED700302071B75240053
:100690007525007526007527007528C17529E27536
:1006A0002A16752B40752C00752D00752E48752F58
:1006B000C2753000753100753200753300853782A0
:1006C0008538838539F0E53AC002C003C0041204BE
:1006D0001AAD82AE83AFF0F8D004D003D0028A8284
:1006E0008B838CF0ED120CACA3EE120CACA3EF12CA
:1006F0000CACA3E8120CACC002C003C0047479C0F7
:10070000E07400C0E07480C0E0120C8B158115818C
:100710001581D004D003D0020207A67524C1752527
:10072000E2752616752740752833752933752A53C7
:10073000752B40752C00752D00752E00752F0075DA
:1007400030007531007532487533428537828538FF
:10075000838539F0E53AC002C003C00412041AAD23
:1007600082AE83AFF0F8D004D003D0028A828B83AC
:100770008CF0ED120CACA3EE120CACA3EF120CAC8F
:10078000A3E8120CACC002C003C0047481C0E074C2
:1007900000C0E07480C0E0120C8B158115811581BA
:1007A000D004D003D00274042AFDE43BFE8C07C0C1
:1007B00002C003C0048D828E838FF0120B22F8A337
:1007C000120B22F9A3120B22FAA3120B22FBC00375
:1007D000C004C005C006C0077450C0E07453C0E038
:1007E000741BC0E07440C0E0888289838AF0EB12F9
:1007F0000B4AAA82E58124FCF581D007D006D005FA
:10080000D004D003EAD004D003D00270030208BAA7
:10081000C002C003C004752400752500752600754C
:100820002700752850752953752A1B752B40752C88
:1008300000752D00752E48752FC27530007531007A
:10084000753200753300853B82853C83853DF0E53C
:100850003EC004C005C006C00712041AA882A983BE
:10086000AAF0FBD007D006D005D0048D828E838FEE
:10087000F0E8120CACA3E9120CACA3EA120CACA386
:10088000EB120CACC002C003C004C005C006C00718
:100890007489C0E07400C0E07480C0E0120C8B1555
:1008A0008115811581D007D006D005D004D003D0A2
:1008B00002D004D003D002020961C002C003C00408
:1008C00075245075255375261B752740752833757B
:1008D0002933752A53752B40752C00752D00752E04
:1008E00000752F0075300075310075324875334240
:1008F000853B82853C83853DF0E53EC004C005C054
:1009000006C00712041AA882A983AAF0FBD007D058
:1009100006D005D0048D828E838FF0E8120CACA334
:10092000E9120CACA3EA120CACA3EB120CACC002A3
:10093000C003C004C005C006C0077491C0E07400C5
:10094000C0E07480C0E0120C8B158115811581D038
:1009500007D006D005D004D003D002D004D003D0F5
:10096000028A828B838CF0120B22FAA3120B22FBD9
:10097000A3120B22FCA3120B22F88D828E838FF020
:10098000120B22FDA3120B22FEA3120B22FFA312B5
:100990000B22F9C005C006C007C001C002C003C0D9
:1009A00004C0007499C0E07400C0E07480C0E074BA
:1009B00000C0E07400C0E0E4C0E0120D14E5812442
:1009C000F6F581752301D20090000075F000120346
:1009D000927499C0E07400C0E07480C0E07411C0EB
:1009E000E07400C0E0E4C0E0120D14E58124F6F5E7
:1009F00081752302D20090001175F00012039274E9
:100A000011C0E07400C0E0E4C0E07400C0E0740015
:100A1000C0E0E4C0E0749EC0E07400C0E07480C038
:100A2000E0120C8BE58124F7F5812212027E12037D
:100A3000609001F412020074B2C0E07400C0E0746F
:100A400080C0E0120C8B1581158115817443C0E0C4
:100A50007401C0E07480C0E07437C0E07401C0E08D
:100A60007480C0E074E4C0E07400C0E07480C0E052
:100A700074B7C0E07400C0E07480C0E0120C8BE575
:100A80008124F4F58175110475820112023B751100
:100A90000575820112023B1201BC75820A1202A680
:100AA000AA82AB83ACF0FD8A3F8B408C418D4275AE
:100AB000820B1202A6AA82AB83ACF0FD8A438B4460
:100AC0008C458D4675344775350075364090003F2E
:100AD00075F0401205F975820B1202A685824F85CA
:100AE000835085F051F55275820A1202A6AE82AF8C
:100AF00083AAF0FBC04FC050C051C052C006C0070F
:100B0000C002C003744CC0E07401C0E07480C0E057
:100B1000120C8BE58124F5F5819001F4120200029C
:100B20000A9A20F71430F6148883A88220F507E685
:100B3000A88375830022E280F7E49322E022E4ACEC
:100B400083AB82FAF9748E020E8DFFA881181812F9
:100B50000EB5D2D133E6400730E70B758200222074
:100B6000E70675820122C2D1120E97E97003F58261
:100B70002220D101B3E433F58222120F62BC0003BC
:100B8000020F01EF60FA30D502B2D1E583B4FF0362
:100B9000020F17E582B4FF03020F172583400724D5
:100BA00082400B020F012483145003020F17F582B9
:100BB000EA8DF0A4A8F0EA8EF0A428F8E435F0F964
:100BC000EB8DF0A428E935F0F9E433CA8FF0A429BD
:100BD000F9EA35F0FAEBF88EF0A429F9EA35F0FAE3
:100BE000E433FBEC8DF0A429F9EA35F0FAE43BFBA1
:100BF000E88FF0A42AFAEB35F0FBE433CCFD8EF05D
:100C0000A42AFAEB35F0FBE43CFCED8FF0A42BFBBF
:100C1000EC35F0FC20E703120F2F020EE0120F62FA
:100C20007900E583B58202800D5003120F90E583B1
:100C3000C39582120FAAE5D0C465D020E117EA2D32
:100C4000FAEB3EFBEC3FFC50097401120FAAEC4496
:100C500080FC020EE0C3EA9DFAEB9EFBEC9FFC5089
:100C60000FC3E499F9E49AFAE49BFBE49CFCB2D14B
:100C7000120F2F020EE00219798582618583628549
:100C8000F063851064900C760213CCC0088581084F
:100C9000E50824FBF564E50824FBF8866108866214
:100CA000088663900C761213CCD0082220F71030FF
:100CB000F6118883A88220F507F6A88375830022A1
:100CC000F280F7F022AA82AB09AC0AAD0B8B828CC2
:100CD000838DF0EA120CAC0509E4B50902050A227D
:100CE00085820985830A85F00B850C61850D6285F7
:100CF0000E63850F64900CC51213CCAA82AB83AC33
:100D000009AD0AAE0B8C828D838EF0E4120CAC8A96
:100D1000828B8322C008858108E50824F8F564E504
:100D20000824FBF8860908860A08860BE50824F8DB
:100D3000F88661088662088663900CC51213CCAAF7
:100D400082AB83AC09AD0AAE0B8C828D838EF0E44E
:100D5000120CAC8A828B83D00822A8811818C6B2E4
:100D6000E7C6020C1D120F6230D502B2D1BF0009D6
:100D7000BC0003020F24020F17BC0003020F01E5A1
:100D800083B4FF0BE582B4FF03020F24020F01E5D9
:100D900082B4FF03020F17C395835007247F400BD3
:100DA000020F012480145003020F17C0E0E4CCCBE3
:100DB000CAF98D118E128F13EF54F0C4F514758398
:100DC000068514F0EB84F582E9C4F9EAC4FAEBC4B1
:100DD000FBEC540FC47803D6FC18EBD6FB18EAD60C
:100DE000FA8582F0EDA4A8F0FD8582F0EEA428FE3D
:100DF000E435F0F88582F0EFA428FFE435F0F8E957
:100E00009DF9EA9EFAEB9FFBEC98FCAD11AE12AF98
:100E10001330E7101582E92DF9EA3EFAEB3FFBE4C7
:100E20003CFC80EDC082D58398C3E933F9EA33FAFC
:100E3000EB33FBEC33FCC3E99DEA9EEB9FEC9400A3
:100E4000B3E413F9D002D0E0C44AFAD003D0E0C42E
:100E50004BFBD004D0E0F5F0540FC44CFCD082150D
:100E60008230F40FD3EC13FCEB13FBEA13FAE91313
:100E7000F90582E930E70A74012AFAE43BFBE43C15
:100E8000FC020EF8FCABF0AA83A982749EC2D1F5D5
:100E900082120F2F020EE07901AA82E68F82B582BC
:100EA0001318E6B5F00E18E6B5830918E68A82B580
:100EB0008202790022B4800FE5F0700AE5837006A3
:100EC000E58270027F00EFB6801518B6001018B6E4
:100ED000000B18B600060808087600220808082249
:100EE000B98003EA13B34010EA2401FAE43BFBE4BF
:100EF0003CFC50047C800582BC000EBB000BBA0099
:100F000008E4F5F0F583F58222A2D1E582138CF096
:100F100092F78B838A8222E4F583F58275F080F460
:100F2000A2D11322E4F583F58275F0C0747F227894
:100F300004EC7011E58224F8500AF582E4C9CACBAA
:100F4000FCD8EF22EC7820058220E713D58201221D
:100F5000C3E933F9EA33FAEB33FBEC33FCD8EA1597
:100F60008222AA82AB83A2F73392D16002D2F7F534
:100F700082ACF0E58124F9F8E6FD08E6FE0886F08B
:100F800008E6A2F73392D56002D2F7F583AFF022DC
:100F9000E582C583F582A2D133A2D592D11392D531
:100FA000ECCFFCEBCEFBEACDFA226040F825825074
:100FB0000274FFF582E824F8501ECCCBCAF9E4CCC9
:100FC00024F85014CBCAF9E4CB24F8500BCAF9E446
:100FD000CA24F8500379002224086010F8C3EC13E7
:100FE000FCEB13FBEA13FAE913F9D8F122AA827495
:100FF000FEC0E0740FC0E0C053C0548A8222055A7C
:10100000E4B55A02055B22AA8274302AFA24C6503B
:101010000A74072AFA3001034302208A82020FED84
:10102000E582FAC4540FF582C002121007D0027490
:101030000F5AF582021007AA55AB56AC57AD58AE01
:1010400059756020EE2EFEED235401FF4206EA2A78
:10105000FAEB33FBEC33FCED33FDC3EE955C40085B
:10106000EEC3955CFE430201D560D98A558B568C40
:10107000578D588E59227871E624D075F00AA4FA5B
:101080007872E624D02AFA78708603BB2D04C3E474
:101090009AFA755C01C3E464808AF063F08095F08D
:1010A00050297560038A0374F62560401C055CE5D1
:1010B00060142465F8E5602465F98704A604772E9A
:1010C0001BEBFA6004056080DE8B02EA30E70D78E6
:1010D0006686037867A6037866762E0AE55E600A60
:1010E000E55E04FB255CF55C8005300C02055C7850
:1010F000658603E4BB2D0104FB700620070330085E
:1011000002055C3005030211BD300657EB600C751B
:10111000822DC002120FEDD002801C30070C7582A8
:101120002BC002120FEDD002800D30080A7582200C
:10113000C002120FEDD00278668604BC2E0C7582B8
:1011400030C002120FEDD002155DAC5D155DC3E538
:101150005C9C4003021201758230C002120FEDD078
:101160000280E7AC5D155DC3E55C9C500C75822088
:10117000C002120FEDD00280EA78658604BC2D0C07
:1011800075822DC002120FEDD002801C30070C7545
:10119000822BC002120FEDD002800D30080A75823A
:1011A00020C002120FEDD00278668604BC2E527564
:1011B0008230C002120FEDD002155D8044EB600E4C
:1011C00075822DC002120FEDD002155D8020300710
:1011D0000E75822BC002120FEDD002155D800F300C
:1011E000080C758220C002120FEDD002155D7866E2
:1011F0008603BB2E0C758230C002120FEDD0021593
:101200005D756001C20EE5602465F88603BB450389
:101210000212BEBB2E348A03C3E464808BF063F0F9
:101220008095F0500F758230C003120FEDD0031B74
:101230008B0280E48B02D20EE55E7038200C030234
:1012400012BE75822E120FED8074300E278A03EBCA
:1012500030E71FC3E46480855EF063F08095F05052
:101260000C758230C003120FEDD003155E0B8B029C
:1012700080DD8B02300E0EC3E46480855EF063F087
:101280008095F05021E5602465F886038B82C002CA
:10129000120FEDD002300E0EE5602465F88603BB18
:1012A0002E028002155E155DC3E46480855EF063E6
:1012B000F08095F04003200E050560021206C3E49D
:1012C0006480855EF063F08095F0500A758230127C
:1012D0000FED155E80E830050FAA5D155DEA600828
:1012E000758220120FED80F122E55E7003300C0D47
:1012F0007407255EFAE55DC39AF55D8006E55D2419
:10130000FAF55D75600078658602BA2B0F20070C30
:1013100078657620200805756001055D200519AA0D
:101320005DC3E464808AF063F08095F0500A7582B2
:1013300020120FED155D80E7C20EE5602465F8868A
:1013400002BA00028069BA451F3001027665C3E423
:101350006480855EF063F08095F0500A75823012EB
:101360000FED155E80E8D20EC3E5609402E433FA17
:101370007014EA700EC3E46480855EF063F08095BB
:10138000F04003300E16E5602465F886028A82126A
:101390000FEDE56024FD5012155E800E7402B560FD
:1013A00009300C0675822E120FED056002133A30DB
:1013B0000519AA5DC3E464808AF063F08095F0505B
:1013C0000A758220120FED155D80E7228582538514
:1013D0008354E4F55AF55BAA61AB62AC638A828BF5
:1013E000838CF0120B22FD74012AF561E43BF56257
:1013F0008C63EDFA7003021972BA25028003021998
:101400006AC205C206C207C208C209C20AC20BC22A
:101410000CC202C203C204755C00755D00755EFFFC
:10142000AB61AC62AD638B828C838DF0120B22FAC0
:10143000A3AB82AC838B618C628D63BA25078A82F1
:10144000120FED80928A06BE3000402E8A06EE24EE
:10145000C6402774FFB55E13E55D75F00AA4FEEA89
:1014600024D02EF55D70BFD20680BBE55E75F00A14
:10147000A4FEEA24D02EF55E80ACBA2E0A74FFB525
:101480005EA4755E00809F8A06BE6100400E8A06DB
:10149000EE248540075302DFD2018002C201BA2048
:1014A000028075BA2303021527BA2A0302152CBA43
:1014B0002B02805FBA2D028055BA4202805FBA4388
:1014C00003021571BA44030216ACBA45030216C6EC
:1014D000BA46030216C2BA47030216CABA49030241
:1014E00016ACBA4C02803BBA4E030216CEBA4F037A
:1014F0000216B3BA5003021645BA5303021595BA41
:1015000055030216B8BA58030216BD0216F8D205E2
:10151000021426D207021426D208021426D20A0286
:101520001426D20B021426D20C02142674FFB55EC8
:1015300020300A0BE56414F88864865D021426E501
:101540006424FEF888648606088607188E5D0214F7
:1015500026300A0BE56414F88864865E021426E5DA
:101560006424FEF888648606088607188E5E0214D6
:1015700026300A0AE56414F888648602800FE56460
:1015800024FEF888648603088604188B028A821277
:101590000FED0216FDE56424FDF8886486030886D5
:1015A0000408860518188B558C568D578B828C83B2
:1015B0008DF0121AADAB82AC838B5F74FFB55E0306
:1015C000855F5E20051DC3E55F955D5016E55DC333
:1015D000955FF55DAB5D155DEB6008758220120FC0
:1015E000ED80F18555828556838557F0120B22FBDD
:1015F000FA6029AB5E155EC3E464808BF063F08013
:1016000095F050188A82120FEDAB55AC56AD570BC2
:10161000BB00010C8B558C568D5780C720050302EB
:1016200016FDC3E55F955D40030216FDE55DC395BC
:101630005FF55DAB5D155DEB70030216FD758220F5
:10164000120FED80EEE56424FDF8886486030886B9
:101650000408860518188B558C568D57E557FB30B6
:10166000E7047A438013EB546060047A50800AEBFD
:1016700030E6047A4980027A588A82C002120FED5D
:1016800075823A120FED758230120FED7582781265
:101690000FEDD002BA4902800BBA5002800685567F
:1016A000821210208555821210208051D209755C5B
:1016B0000A804A755C088045755C0A8040755C103C
:1016C000803BD2028037D2038033D204802FE5647E
:1016D00024FDF88864860308860408860518188B9C
:1016E000558C568D578B828C838DF0E55A120CAC3D
:1016F000A3E55B120CAC80058A82120FED20020676
:10170000200303300470E56424FCF8886486030831
:1017100086040886050886061818188B558C568D81
:10172000578E58E555E556E557E5588B828C838DE5
:10173000F0EE12198E74FFB55E03755E0630042755
:10174000747F5558FB8B59E559EB2BFB8B59E557AB
:1017500030E70674014559F559E559246840067487
:101760009925594002D2033003061212E90213D719
:101770001210760213D7E55C70030213D77B6A3030
:101780000A2BE56414F88864E6FC3395E0FDFEFF5F
:101790008C558D568E578F5820095EAC557D007E36
:1017A000007F008C558D568E578F58804C300B1F04
:1017B000E56424FCF8886486040886050886060823
:1017C00086071818188C558D568E578F58802AE525
:1017D0006424FEF88864860408860518ED3395E0D5
:1017E000FEFF8C558D568E578F5820090CAC55AD89
:1017F000567E007F008E578F58300C43E555455676
:101800004557455860397408B55C0C758230C00383
:10181000120FEDD00380287410B55C23758230C0A0
:1018200003120FEDD00330010C758278C003120F44
:10183000EDD003800A758258C003120FEDD003303B
:101840000925AC55AD56AE57E558FF30E717C3E450
:101850009CFCE49DFDE49EFEE49FFF8C558D568E1E
:10186000578F588002C209755F00D20D8B007559E1
:1018700000C000121037D000200D0DE559C4FCE661
:10188000FD4CF61888038002A659055FB20DE55598
:1018900045564557455870D68803E55D7003755D1C
:1018A0000120061A200517E55F04FCC3955D500E64
:1018B000758220C003120FEDD003155D80E9300959
:1018C0000E75822DC003120FEDD003155D8024E547
:1018D0005F602030070E75822BC003120FEDD0031E
:1018E000155D800F30080C758220C003120FEDD0FB
:1018F00003155D20051EAC5D155DC3E55F9C50279B
:101900003006047C3080027C208C82C003120FEDF4
:10191000D00380E2C3E55F955D5009E55DC3955F47
:10192000F55D8003755D008B00AB5F155FEB60229A
:10193000B20D200D0A08E6C4540FFB8B59800786B0
:1019400003740F5BF559855982C000121007D0004F
:1019500080D72005030213D7AB5D155DEB70030242
:1019600013D7758220120FED80EE8A82120FED02DE
:1019700013D7855A82855B8322AA82BA0A081099F6
:101980000280FB75990D10990280FB8A9922C0E0B4
:10199000F84582458345F07009F5F0FBFCFDFE0239
:1019A0001A5CE823A2F792E0F8A982AA83D2F7ABE7
:1019B000F07C007E07C3749798404074FF2EFE743D
:1019C0000A89F0A4F985F082740A8AF0A4FA85F0F5
:1019D00083740A8BF0A4FB740529F9EA3582FAEBCB
:1019E0003583FB740035F0FCC3EC13FCEB13FBEA0E
:1019F00013FAE913F908EC70EF80BAE8C3947FF8A2
:101A00008B838EF0E4FBFCFDFEFF08C3E933F9EAAB
:101A100033FAE58333F583EB3BD4FBEC3CD4FCEDAC
:101A20003DD4FDEE3ED4FEEF3FD4FF602D05F074B3
:101A3000052BD4FBE43CD4FCE43DD4FDE43ED4FED1
:101A4000E43FD4FF758204C3EF13FFEE13FEED13E2
:101A5000FDEC13FCEB13FBD582EDD8AF7865D0E03D
:101A600020E704762B8002762D087906E7C4540F10
:101A70004430F608B90603762E08E7540F4430F6D2
:101A80000819B902E7764508E5F020E704762B80CF
:101A900004762DF4040875F00A844430F608E5F065
:101AA0004430F608E4F690006575F04022AA82AB57
:101AB00083ACF07D007E008A828B838CF0120B2237
:101AC000FFA3AA82AB83EF60070DBD00EA0E80E79B
:101AD0008D828E83220000000000000000000000C4
:00000001FF
