:020000040800F2
:1000000000200020B9000008E9080008FD080008E9
:1000100000000000000000000000000000000000E0
:10002000000000000000000000000000E9080008D7
:100030000000000000000000E9080008E9080008CE
:10004000E9080008E9080008E9080008E9080008CC
:10005000E9080008E9080008E9080008E9080008BC
:1000600000000000E9080008E9080008E9080008A5
:10007000E9080008E9080008000000003B0100084A
:1000800000000000E9080008000000000000000077
:10009000E908000800000000E9080008E908000875
:1000A000E9080008E9080008E9080008750B0008DD
:1000B000E9080008E908000800F092FB00F054FB92
:1000C000E1235B02180000F0ADFC62B6C04600F010
:1000D000BEFA024B180000F015FEFEE7E0890008AA
:1000E00080B500AF0A4B0B4A5A60094B00229A6058
:1000F000074B05221A60C046054B1A6880235B0235
:100100001340F9D0024B00221A60C046BD4680BDA4
:1001100010E000E0FF7C000080B582B000AF7860A6
:1001200001E0FFF7DDFF7B685A1E7A60002BF8D1F3
:10013000C046C046BD4602B080BD80B500AF80233A
:10014000DB051A698023DB0501218A431A61274BED
:100150001B685A1C254B1A60254B1B78DBB21A0012
:10016000224B1B689A4209DDA023DB055A69A023B4
:10017000DB05802109010A435A6107E0A023DB0562
:100180005A69A023DB051B490A405A611A4B1B78A8
:10019000DBB21A00154B1B689A4209DDA023DB0570
:1001A0005A69A023DB05802149010A435A6107E00F
:1001B000A023DB055A69A023DB0510490A405A61D8
:1001C0000A4B1A68FA23DB009A420BDD074B002228
:1001D0001A60A023DB055A69A023DB05C021490171
:1001E0000A435A61C046BD4680BDC046D8010020C2
:1001F00000000020FFF7FFFF01000020FFEFFFFFDE
:1002000080B500AF314BDA6A304B01210A43DA6224
:10021000A023DB051B682E4A1A40A023DB058021A2
:10022000C9030A431A60A023DB055A68A023DB0533
:1002300028490A405A60A023DB051B68264A1A4059
:10024000A023DB05802149040A431A60A023DB05B3
:100250005A68A023DB0521490A405A601B4B9A6B60
:100260001A4B01210A439A638023DB054022FF32A7
:10027000DA621B4B1A681A4B802109020A431A6082
:100280008023DB051A688023DB0510210A431A60EE
:100290008023DB051A688023DB0580210A431A606E
:1002A0008023DB05DA688023DB0501210A43DA605D
:1002B0008023DB051A688023DB0501210A431A60CD
:1002C00062B6C046C046BD4680BDC0460010024072
:1002D000FFFF3FFFFFF7FFFFFFFFFFFCFFEFFFFF09
:1002E00000E100E0B0B584B000AF7860786803F05A
:1002F000B7F80022504B02F047FE02000B0010003E
:1003000019004E4A4E4B02F03DFA02000B0010005D
:10031000190003F0EDF8031CBB60FE239B05FB6096
:1003200001231C1C0021B86801F06AF8031E01D1EA
:1003300000231C1CE4B201231D1C4249B86801F0D3
:1003400055F8031E01D100231D1CEBB22340DBB284
:10035000002B03D0FE239B05FB6068E001231C1CDF
:100360003849B86801F04CF8031E01D100231C1C69
:10037000E4B201231D1C3449B86801F037F8031EAC
:1003800001D100231D1CEBB22340DBB2002B1AD09D
:100390007B68191C181C01F05FF8031C181C03F083
:1003A0005FF802000B001000190006F0CDFC0200FF
:1003B0000B001000190003F09BF8021C80231B06A1
:1003C0005340FB6033E001231C1C0021B86801F09E
:1003D0000DF8031E01D100231C1CE4B201231D1CD7
:1003E0001A49B86801F00CF8031E01D100231D1C46
:1003F000EBB22340DBB2002B17D07B68191C181C12
:1004000001F02AF8031C181C03F02AF802000B0064
:100410001000190006F098FC02000B0010001900F3
:1004200003F066F8031CFB6001E0094BFB60FB680E
:10043000181CBD4604B0B0BD008066405045525403
:10044000FB2109400000B442000034430000B4C264
:10045000000080BFB0B584B000AF786051497868C3
:1004600001F060FB031C181C02F0FAFF4E4A4F4BD0
:1004700002F088F902000B001000190003F038F8B0
:10048000031CBB60FE239B05FB6001231C1C002199
:10049000B86800F0B5FF031E01D100231C1CE4B2B4
:1004A00001231D1C4249B86800F0A0FF031E01D1C2
:1004B00000231D1CEBB22340DBB2002B1AD07B685B
:1004C000191C181C00F0C8FF031C181C02F0C8FF00
:1004D00002000B001000190006F036FC02000B00B1
:1004E0001000190003F004F8021C80231B0653407F
:1004F000FB6051E001231C1C2D49B86800F080FF0F
:10050000031E01D100231C1CE4B201231D1C25493C
:10051000B86800F06BFF031E01D100231D1CEBB275
:100520002340DBB2002B03D0FE239B05FB6033E0AE
:1005300001231C1C0021B86800F058FF031E01D1E4
:1005400000231C1CE4B201231D1C1A49B86800F0EA
:1005500057FF031E01D100231D1CEBB22340DBB269
:10056000002B02D0144BFB6016E07B68191C181C92
:1005700000F072FF031C181C02F072FF02000B0057
:100580001000190006F0E0FB02000B00100019003B
:1005900002F0AEFF031CFB60FB68181CBD4604B0F4
:1005A000B0BDC0460000344350455254FB210940C1
:1005B0000000B4420000B4C2000080BF80B584B027
:1005C00000AF786039603B685B005B087968181C95
:1005D00001F0A8FA031C1149181C01F0DBF8031CF8
:1005E000FB60F86802F03CFF00220D4B02F0CCFCEF
:1005F00002000B001000190000220A4B01F086FDDA
:1006000002000B001000190002F072FF031CBB6017
:10061000BB68181CBD4604B080BDC04600004842FF
:10062000008041400040504080B582B000AF78600B
:100630003960C046BD4602B080BD80B582B000AF13
:1006400078603960C0461800BD4602B080BDB0B5C4
:100650008EB002AF00237B62FFF7D2FDFA235B006E
:100660001800FFF759FD354B180003F07FFD344BA0
:10067000180003F07BFD334B180003F077FD4FE0CB
:10068000314BFB62314BBB620021F86A00F09EFEE9
:10069000031E16D12C49F86A00F0B2FE031E01D0E9
:1006A000294BFB622A49F86A00F096FE031E01D02E
:1006B000274BFB62F86A00F0B7FE0300DAB2254B65
:1006C0001A700021B86A00F081FE031E16D11E497F
:1006D000B86A00F095FE031E01D01B4BBB621C499B
:1006E000B86A00F079FE031E01D0194BBB62B86AEC
:1006F00000F09AFE0300DAB2174B1A70F86A02F0A3
:10070000AFFE04000D00B86A02F0AAFE02000B0062
:1007100012490092019322002B00080003F09AFC7A
:10072000786A02F09DFE0E4A0E4B00F01BFE031E7F
:10073000A6D100231800BD460CB0B0BD308900081A
:100740006C8900089C8900080000C84200008C42A7
:10075000000082420000002001000020C88900083B
:1007600050455254FB21194080B582B000AF164B62
:100770007B60164B3B6007E07A68131D7B603B682B
:10078000191D396012681A603A68114B9A42F3D306
:1007900004E03B681A1D3A6000221A603A680D4B6B
:1007A0009A42F6D30C4B3B6004E03B681A1D3A605A
:1007B0001B6898473A68094B9A42F6D3C046C04630
:1007C000BD4602B080BDC046C091000800000020B8
:1007D000D8010020A4020020C0910008C0910008A8
:1007E00080B500AF3B4B1A683A4B01210A431A60AF
:1007F000C046384B1B6804221340FAD0354B012207
:10080000DA60C046334BDB680C221340042BF9D16D
:10081000314B1A68304B02210A431A602E4B1A687A
:100820002D4B01210A431A602A4B9A6B294B8021D8
:1008300049050A439A63294B802212011A60C04677
:10084000264B5B6810221340FAD1224BDA68214B09
:1008500023490A40DA601F4BDA681E4B8821C9031E
:100860000A43DA601B4A1B4BD268DA60194A194BFB
:10087000D268DA60174A174BD268DA60154B1A68EB
:10088000144B18490A401A60124B1A68114B802108
:1008900049040A431A60C0460E4B1A6880239B0421
:1008A0001340F9D00B4BDA680A4B03218A43DA6014
:1008B000084BDA68074B03210A43DA60C046054B50
:1008C000DB680C2213400C2BF9D1C046C046BD4654
:1008D00080BDC04600100240002002400070004071
:1008E000FFFF02FFFFFFFFFE80B500AF024B1800C5
:1008F00000F008FAFEE7C046088A000880B500AF9D
:10090000024B180000F0FEF9FEE7C046388A0008E6
:1009100090B585B000AF78603960184B1B68002B2C
:1009200002D101235B4224E00023FB600AE0FB6864
:100930005A1CFA603A68D418114B180000F0ADF94F
:10094000030023707B68013B1A00FB68934205D2C9
:100950000B4B180000F0CCF9031EE8D1FB68002B0C
:1009600006D03A68FB68D31800221A70FB6800E0D2
:1009700000231800BD4605B090BDC046740200209B
:10098000DC01002080B584B000AF78603960224B74
:100990001B68002B02D101235B4238E07B683F2BB0
:1009A0000BDCC0461D4B180000F0A2F903004022EA
:1009B000D21A7B689A42F5D302E002235B4226E01A
:1009C0000023FB600BE03A68FB68D3181A78134BDE
:1009D0001100180000F030F9FB680133FB607B6800
:1009E000FA689A42EFD30E4B1B68082213400DD1D0
:1009F0000B4B1A680A4B08210A431A60074B180070
:100A000000F04BF903001A00054B9A62002318000E
:100A1000BD4604B080BDC0467402002028020020FC
:100A20000038014080B584B000AF786072B6C0462F
:100A3000454B00229A64444B9A6C434B5A64424B98
:100A40005A6C414B1A64414B00229A643F4B9A6C9A
:100A50003E4B5A643D4B5A6C3C4B1A643C4B012252
:100A60001A603C4B00221A603B4BDA6A3A4B012178
:100A70000A43DA62394BFB607968F86800F070FB72
:100A80000300FB60A023DB059A68A023DB0580211F
:100A9000C9020A439A60A023DB055A68A023DB053C
:100AA0002F490A405A60A023DB051B682D4A1A40D3
:100AB000A023DB05802109030A431A60A023DB057C
:100AC0005A6AA023DB0540210A435A62A023DB05B2
:100AD0001B68254A1A40A023DB05802189030A43AD
:100AE0001A60A023DB055A6AA023DB058021C90018
:100AF0000A435A62184B5A6B174B8021C9010A43AB
:100B00005A631A4B1A68194B6C210A431A60174B27
:100B100000225A60154B00229A60144BFA68DA6082
:100B2000124B1A68114B01210A431A60104B1A68C4
:100B30000F4B802109050A431A6062B6C046C046C1
:100B4000BD4604B080BDC046DC0100202802002064
:100B50007402002078020020001002400048E801E2
:100B6000FFFDFFFFFFFFF3FFFFFFCFFF0038014056
:100B700000E100E080B500AF084BDB698022134044
:100B800001D000F025F8054BDB692022134001D08D
:100B900000F006F8C046BD4680BDC04600380140A2
:100BA00080B500AF074B5B6ADAB2074B1100180043
:100BB00000F042F8031E02D0044B01221A60C04626
:100BC000BD4680BD00380140DC01002078020020D5
:100BD00080B500AF164B180000F08AF8031E08D04D
:100BE000134B180000F059F803001A00114B9A62D9
:100BF0001BE0104B1A680F4B08218A431A600D4BFB
:100C0000DB694022134005D00A4B1A6A094B402188
:100C10000A431A62074BDB698022134005D0054B5B
:100C20009A69044B10210A439A61C046BD4680BDB3
:100C3000280200200038014080B582B000AF786003
:100C40000A00FB1C1A707B681A6C7B685B6C9A420A
:100C500005D17B689B6C002B01D0012319E072B693
:100C6000C0467B681B6C591C7A6811647A68F91C51
:100C70000978D1547B689B6C5A1C7B689A647B68AA
:100C80001B6C402B02D17B6800221A6462B6C046FE
:100C900000231800BD4602B080BD80B584B000AF0F
:100CA00078607B689B6C002B01D100231CE072B63E
:100CB000C0467B685B6C591C7A6851640F22BA1875
:100CC0007968CB5C13707B685B6C402B02D17B68CE
:100CD00000225A647B689B6C5A1E7B689A6462B6D9
:100CE000C0460F23FB181B781800BD4604B080BD1A
:100CF00080B582B000AF78607B689B6C1800BD4601
:100D000002B080BD80B582B000AF78600B4B1B682D
:100D1000002B09D101235B420BE07B685A1C7A60EF
:100D200019000120FFF72EFE7B681B78002BF4D101
:100D300000231800BD4602B080BDC04674020020EA
:100D400080B582B000AF0200FB1D1A70FB1D1900B8
:100D50000120FFF717FEC046BD4602B080BD80B53A
:100D600000AF044B1800FFF798FF03001800BD46C2
:100D700080BDC046DC010020B0B584B000AF786013
:100D800039601E4B1B68002B02D101235B4231E00E
:100D90000023FB600B23FB1800221A7017E0C046EB
:100DA000174B1800FFF7A4FF031EF9D00B257C1981
:100DB000134B1800FFF771FF03002370FB685A1CE8
:100DC000FA601A007B689B187A1912781A703B68CF
:100DD000013BFA689A4204DA0B23FB181B780D2BAF
:100DE000DDD1FB68002B04DDFB687A68D318002294
:100DF0001A70FB681800BD4604B0B0BD7402002034
:100E0000DC01002090B583B000AFFC1DFFF7A7FF09
:100E100003002370FB1D1B781800FFF791FFFB1DDB
:100E20001B781800BD4603B090BDB0B584B000AFCC
:100E300078603960214B1B68002B02D101235B4293
:100E400037E00023FB600B23FB1800221A701DE023
:100E5000C0461B4B1800FFF74BFF031EF9D00B25B4
:100E60007C19174B1800FFF718FF030023702C00A4
:100E70003B191B781800FFF763FFFB685A1CFA60E8
:100E80001A007B689B183A1912781A703B68013B6C
:100E9000FA689A4204DA0B23FB181B780D2BD7D182
:100EA000FB68002B04DDFB687A68D31800221A70F7
:100EB000FB681800BD4604B0B0BDC04674020020F7
:100EC000DC01002080B582B000AF7860FEE780B51D
:100ED00082B000AF786001235B421800BD4602B0CB
:100EE00080BD80B584B000AFF860B9607A60044B13
:100EF0000C221A6001235B421800BD4604B080BD7D
:100F00008802002080B500AF034B0B221A6001233A
:100F10005B421800BD4680BD8802002080B582B0CB
:100F200000AF786039603B68802292015A600023EC
:100F30001800BD4602B080BD80B500AF0123180087
:100F4000BD4680BD80B582B000AF78603960044B8B
:100F500016221A6001235B421800BD4602B080BD14
:100F60008802002080B582B000AF78603960044B01
:100F70001F221A6001235B421800BD4602B080BDEB
:100F80008802002080B584B000AFF860B9607A6054
:100F900000231800BD4604B080BD80B582B000AF0C
:100FA000786039603B68802292015A600023180003
:100FB000BD4602B080BD80B582B000AF786001232D
:100FC0005B421800BD4602B080BD80B582B000AF64
:100FD0007860044B02221A6001235B421800BD4670
:100FE00002B080BD8802002080B582B000AF78607A
:100FF000044B0A221A6001235B421800BD4602B06E
:1010000080BDC0468802002080B582B000AF786005
:101010007B68022B01D8012303E0044B09221A60EC
:1010200000231800BD4602B080BDC04688020020E3
:1010300080B586B000AF7860124B7B61124B3B618C
:10104000124B1B68002B02D1104B7A691A600F4BB0
:101050001B68FB600D4B1A687B68D3183A699A428B
:1010600005D20B4B0C221A6001235B4206E0074BB2
:101070001A687B68D218054B1A60FB681800BD46D9
:1010800006B080BDA40200200010002084020020D1
:101090008802002080B588B000AFF860B9607A603F
:1010A0000023BB61FB68002B22D10023FB611AE007
:1010B000FFF755FE03001A0017217B181A70BB6852
:1010C0005A1CBA607A181278D2B21A70BB6901330E
:1010D000BB617B181B78DBB20A2B01D1BB690EE028
:1010E000FB690133FB61FA697B689A42E0DB05E04A
:1010F000054B09221A6001235B4200E0BB6918001E
:10110000BD4608B080BDC0468802002080B586B0CC
:1011100000AFF860B9607A60FB68013B012B11D821
:1011200000237B6109E0BB685A1CBA601B78180079
:10113000FFF706FE7B6901337B617A697B689A421F
:10114000F1DB05E0054B09221A6001235B4200E058
:101150007B681800BD4606B080BDC04688020020EE
:1011600003460B437FD4002243088B4274D3030908
:101170008B425FD3030A8B4244D3030B8B4228D3A9
:10118000030C8B420DD3FF22090212BA030C8B42CF
:1011900002D31212090265D0030B8B4219D300E06F
:1011A000090AC30B8B4201D3CB03C01A5241830BF4
:1011B0008B4201D38B03C01A5241430B8B4201D3A4
:1011C0004B03C01A5241030B8B4201D30B03C01ACD
:1011D0005241C30A8B4201D3CB02C01A5241830A47
:1011E0008B4201D38B02C01A5241430A8B4201D376
:1011F0004B02C01A5241030A8B4201D30B02C01AA0
:101200005241CDD2C3098B4201D3CB01C01A524106
:1012100083098B4201D38B01C01A524143098B428F
:1012200001D34B01C01A524103098B4201D30B0178
:10123000C01A5241C3088B4201D3CB00C01A52419D
:1012400083088B4201D38B00C01A524143088B4262
:1012500001D34B00C01A5241411A00D201465241FB
:10126000104670475DE0CA0F00D04942031000D31A
:101270004042534000229C4603098B422DD3030A6F
:101280008B4212D3FC22890112BA030A8B420CD37F
:10129000890192118B4208D3890192118B4204D3A8
:1012A00089013AD0921100E08909C3098B4201D328
:1012B000CB01C01A524183098B4201D38B01C01A62
:1012C000524143098B4201D34B01C01A52410309D9
:1012D0008B4201D30B01C01A5241C3088B4201D388
:1012E000CB00C01A524183088B4201D38B00C01A35
:1012F0005241D9D243088B4201D34B00C01A52410C
:10130000411A00D20146634652415B10104601D398
:101310004042002B00D54942704763465B1000D322
:10132000404201B5002000F005F802BD0029F8D0C8
:1013300016E770477047C0468446100062468C46E8
:101340001900634600E0C0461FB501F0B9FD002852
:1013500001D40021C8421FBD10B501F009FD404273
:10136000013010BD10B501F0ABFD002801DB0020FD
:1013700010BD012010BDC04610B501F0A1FD002830
:1013800001DD002010BD012010BDC04610B501F0E8
:1013900031FD002801DC002010BD012010BDC04639
:1013A00010B501F027FD002801DA002010BD012052
:1013B00010BDC046844608006146FFE71FB500F037
:1013C0006DFB002801D40021C8421FBD10B500F0FC
:1013D000F9FA4042013010BD10B500F05FFB002863
:1013E00001DB002010BD012010BDC04610B500F08B
:1013F00055FB002801DD002010BD012010BDC046B6
:1014000010B500F005FB002801DC002010BD012014
:1014100010BDC04610B500F0FBFA002801DA00202C
:1014200010BD012010BDC0469E2110B5C905041C89
:10143000FFF7F0FF002803D1201C00F047FE10BD8D
:101440009E21201CC90500F093FC00F03FFE802384
:101450001B069C466044F2E7F0B5C64643025B0AB1
:101460004E0245004F00DA00C40F9C46700A9046B9
:1014700000B52D0E3F0EC90FB6098C424BD0EA1BAA
:10148000002A36DD002F61D0FF2D00D1ADE0802392
:10149000DB041E431B2A00DCD3E001204346181A5C
:1014A000430100D48CE080018709380002F032F952
:1014B00005388740854200DCB6E02D1AB348384035
:1014C000430704D00F230340042B00D00430430112
:1014D00000D478E06A1CFE2D65D08001430A9C464A
:1014E000D2B26346D0051843E407204380BCB84617
:1014F000F0BD002A35D07A1B002D00D0AFE0434666
:10150000002B00D1A7E0531E012A00D12FE1FF2AB2
:1015100069D01A00AAE0E91B002970DD002F37D03E
:10152000FF2D62D08023DB041E431B2900DCB0E0CA
:1015300001204044430143D50135FF2D33D0012321
:10154000934A0340400810401843B9E7002E00D1E9
:1015500083E0511E012A00D1D8E0FF2A45D00A00BD
:1015600098E7FE276A1C174200D086E0002D00D0C5
:10157000B7E04346002B00D1F3E00022002EB0D0AC
:10158000981B430100D4FAE043460C00F01A97E799
:10159000002E00D1C8E04A1E012900D1AEE0FF298B
:1015A00023D01100C1E70023FF229C4699E7FE21CA
:1015B0006A1C114277D0FF2AF5D015004644700806
:1015C000430700D07EE7C308FF2D0ED05B025B0A05
:1015D0009C46EAB285E7002E07D08022D203134250
:1015E00003D0104201D10C000300002BDBD080207F
:1015F000C00318434002430A9C46FF2271E70029BA
:10160000D5D07A1B002D60D14346002B24D0531E29
:10161000012A73D0FF2AE7D01A001B2A00DC85E0DC
:1016200001203D00801985E720233A00451B380042
:101630000135EA405D1BA840431E98410025104338
:101640003EE7202330009B1A31009840D140431ED2
:101650009841084322E70C0003001500B4E7FF2F70
:10166000C1D080234046DB04184380461B2A51DD4D
:1016700001200C003D00301A12E743469F1B7B01FE
:101680002BD4002F00D010E70023002400229C461A
:1016900027E7202332003000CA40591A8840431EF1
:1016A0009841104345E7002D4AD14346002B63D0B3
:1016B0000022002E00D114E730004044430100D442
:1016C0007EE7324B013518407AE7FF2F8CD080231C
:1016D0004146DB04194388469FE743460C00F71A4E
:1016E000E3E64246002A00D075E7002E00D07AE7F4
:1016F0008023DB0300249C46FF22F2E630004044B6
:101700000125430100D45BE7022518E74346012584
:10171000981BC5E6202344464046D4409A1A904080
:10172000431E98412043A4E70D004DE72023414686
:101730004046D1409A1A9040431E9841084370E7B2
:101740004246002A00D14FE7002E00D14DE780220B
:10175000D203134200D148E7104200D045E703000E
:1017600043E7002E90D00C0084460022B9E64346A1
:101770000C00F01A013593E684460022B1E60028F9
:1017800000D01DE7002300249C46AAE6FFFFFFFBD4
:10179000FFFFFF7DF0B54F464646D6464502C0B531
:1017A00047000C1C6D0A3F0EC60F002F00D170E0E1
:1017B000FF2F00D175E0EB008025ED041D430023D1
:1017C00099469A467F3F6002430A984663001B0E83
:1017D000E40F002B4ED0FF2B46D04246D000802293
:1017E000D2040243904600227F3B3100FF1A4B4651
:1017F0006140C9B213430F2B00D9B5E06E489B007E
:10180000C3589F46002398462600454692465346B5
:10181000022B00D189E0032B00D19EE0012B18D0D0
:101820003B007F33002B69DD6A0704D00F222A407A
:10183000042A00D004352A0103D5604B1D403B002B
:101840008033FE2B00DD70E0AD016D0AD8B202E0FE
:101850000E0000200025C0052843F6073043E0BCF9
:10186000BA46B146A846F0BD4346002B3FD10222FE
:10187000FF3F03E04346002B2DD1012231004B46B0
:101880006140C9B213430F2B34D84D489B00C35855
:101890009F46002D13D104239946033B00279A4607
:1018A00091E7002D05D108239946063BFF279A466C
:1018B00089E70C239946093BFF279A4683E72800CE
:1018C00001F028FF7627431F9D4000237F42994661
:1018D0009A463F1A77E7404601F01CFF4246431FF5
:1018E0009A4076235B4290461B1A00227DE7FF2335
:1018F00003227AE70E00FF200025ACE70120C01A82
:101900001B28A6DC9E372A00BD40C2406B1E9D41AD
:1019100015436B0704D00F232B40042B00D0043554
:101920006B0144D50120002595E7FF20002592E7B3
:1019300080250026FF20ED038DE7002398468020B8
:10194000C003054209D04346034206D1454605433C
:101950006D022600FF206D0A7DE78020C00305434D
:101960006D02FF206D0A76E742466B01500183420B
:1019700019D21B220025013F01261C006D005B00CF
:10198000002C01DB984201D81B1A3543013A002A8A
:10199000F3D15A1E93411D433B007F330E00002BB1
:1019A00000DD41E7AAE71A2201251B1AE4E7AD0191
:1019B00000206D0A4FE7C0465C8A0008FFFFFFF772
:1019C0009C8A000870B5420045024E024C00C30FCD
:1019D0006D0A0120120E760A240EC90FFF2A06D0C6
:1019E000FF2C03D0A24201D1B54206D070BD002D1C
:1019F000FCD1FF2CFAD1002EF8D18B4206D0012069
:101A0000002AF3D12800431E9841EFE70020EDE7BC
:101A100070B5420045024E024C00C30F6D0A120E13
:101A2000760A240EC80FFF2A1BD0FF2C0ED0002AE6
:101A30001BD1002C01D1002E1CD0002D0CD08342D4
:101A40001CD00221581E0840013870BD002E22D142
:101A5000002AF4D1002DF2D10028F6D10120404215
:101A6000F3E7002D17D1FF2CF0D0002CE7D1002E8A
:101A7000E5D1E6E70020002DE7D0E2E7A24205DC51
:101A8000EADBB54202D8E7D30020DEE74342584103
:101A900040000138D9E702204042D6E770B5420045
:101AA00045024E024C00C30F6D0A120E760A240E38
:101AB000C80FFF2A0BD0FF2C0DD0002A1FD1002CFD
:101AC00016D1002E14D10020002D10D009E0002DD9
:101AD0000CD1FF2C13D1002E08D1002A08D083424C
:101AE00012D00221581E0840013800E0022070BDCB
:101AF000002DF4D10028FAD101204042F7E7002C54
:101B0000EDD1002EEBD1ECE7A24205DCF2DBB542D1
:101B100002D8EFD30020EAE74342584140000138A1
:101B2000E5E7C046F0B54F464646D6464402450076
:101B3000C0B5640A0F1C2D0EC60F002D00D18DE01C
:101B4000FF2D00D192E00023802099469A46E400C0
:101B5000C00404437F3D7802430A98467B001B0E75
:101B6000FF0F002B00D170E0FF2B00D186E0424632
:101B7000D00080227F3BED180023D2040243904620
:101B80009C4631004B467940681C0F2B1CD8764A86
:101B90009B00D3589F4639004446E2465346022BE9
:101BA0000FD0032B00D1D7E0012B37D10020002428
:101BB000C0052043C9070843E0BCBA46B146A84661
:101BC000F0BDFF200024F3E7260C2404220C444639
:101BD0002404240C434627001B0C574374435A43E8
:101BE0005E4312193B0C9B189C4203D9802252027F
:101BF000944666443F041A043F0CD2199401671EB0
:101C0000BC411B0C920E9B1914439B011C431B01EE
:101C100000D49BE0012362081C40144302007F3281
:101C2000002A64DD630704D00F232340042B00D077
:101C30000434230103D502004C4B80321C40FE2AA1
:101C4000BFDCA401640AD0B2B2E74346002B3DD109
:101C50004A4601331A4391469C4692E7002C29D10B
:101C600004239946033B00259A4674E7002C1BD1B8
:101C700008239946063BFF259A466CE74346FF3505
:101C8000002B0BD102234A461A4391469C4678E723
:101C900053463100022B00D083E792E703234A46E4
:101CA0001A4391469C466CE70C239946093BFF2555
:101CB0009A4650E7200001F02DFD7625431F9C40F9
:101CC00000236D4299469A462D1A44E7404601F09A
:101CD00021FD4246431F9A4000232D1A90469C4600
:101CE000763D4EE780240021FF20E40360E70123D6
:101CF0009B1A1B2B00DD59E722009E30DA408440FE
:101D00001300621E94411C43630704D00F23234039
:101D1000042B00D0043463011AD50120002447E7C6
:101D20008020C003044209D04346034206D1444602
:101D3000044364023900FF20640A39E78020C003AD
:101D4000044364023100FF20640A31E7280065E79C
:101D5000A4010020640A2BE78020C003044364022E
:101D6000FF20640A24E7C046DC8A0008FFFFFFF773
:101D7000F8B5CE46474643025B0A4E02DA00944667
:101D8000720A914645004A0080B52D0E1F00C40F0F
:101D9000120EC90FB609FF2A5BD0012041408C42C8
:101DA00039D0A81A00285ADD002A6AD0FF2D00D1A8
:101DB000D9E08022D20416431B2800DCE9E0012090
:101DC0006346181A430100D4B4E080018709380043
:101DD00001F0A0FC05388740854200DCCCE02D1ADC
:101DE000B5483840430704D00F230340042B00D0EC
:101DF0000430430100D4A0E06A1CFE2D00D18DE028
:101E00008001470AD2B2D0053843E4072043C0BC62
:101E1000B946B046F8BDA81A8046002845DD002A1C
:101E200070D0FF2D00D19EE08023DB041E4343468B
:101E30001B2B00DCD2E00120604443017AD5013540
:101E4000FF2D6BD001239D4A0340400810401843EA
:101E5000C8E7002E20D08C4223D02800FF3800286D
:101E600039D0571B002D00D09DE06346002B00D1D8
:101E7000DBE07B1E012F00D10DE1FF2F71D01F0091
:101E800098E0002E00D1A7E0421E012800D1E6E034
:101E9000FF2868D010008FE701204140A14200D008
:101EA0007FE7FF2040428046A8444046002838D0C3
:101EB000511B002D00D1AEE0FF2A00D1DFE08023CE
:101EC0006046DB04184384461B2900DCD9E001206E
:101ED00015008019B1E7FE206A1C104271D1002D57
:101EE00000D0A6E06346002B00D1D9E00022002EEE
:101EF00000D188E7981B430100D4E1E063460C0061
:101F0000F01A6FE7002E00D1B7E00200013A012875
:101F100000D19CE0FF2826D0904688E7FF220027CA
:101F200071E7FE206A1C104264D0FF2AF6D015002B
:101F300066447008430700D056E7C308FF2D12D04F
:101F40005B025F0AEAB25EE76246002A00D196E0D1
:101F5000002E08D08022D203134204D048461042FB
:101F600001D10C004B46002BD8D08027FF031F4324
:101F70007F02FF227F0A46E720233A00451B3800F4
:101F80000135EA405D1BA840431E984100251043DF
:101F900028E720231B1A32009E40C2403000431E17
:101FA000984110430CE7FF2ADBD080236046DB0416
:101FB000184384461B2F56DD01200C001500301AF3
:101FC00000E763469F1B7B013DD4002F00D0FEE657
:101FD00000240022002716E70500AFE73200434641
:101FE0004146DA4020235B1A9E403000431E984150
:101FF000104321E7002DA7D16346002B59D00022C2
:10200000002E00D1FFE630006044430192D52A4BF8
:10201000013518408EE76346002B47D04B1E01293F
:1020200015D0FF292BD019004EE70C004B463D0080
:1020300084E76246002A8BD1002E92D180270024AB
:10204000FF22FF03DFE663460C00F71ABFE630000D
:1020500060440125430100D46CE70225F2E66346A3
:102060000125981BAEE6202364466046FC40DF1B3A
:10207000B840431E984120439FE705005EE74B466A
:1020800071E7202365466046CD40591A8840431EBB
:10209000984128431CE763460C000125F01A91E69D
:1020A000002E95D00C004F460022ACE64B460D00AA
:1020B00044E74F460022A6E6FFFFFFFBFFFFFF7D40
:1020C000002800D036E7002400279CE641024200A9
:1020D000C30F490A0020120E7E2A03DD9D2A02DD6D
:1020E000094A98187047802000040143952A07DCAC
:1020F0009620821AD1404842002BF3D10800F1E724
:10210000963A9140F7E7C046FFFFFF7FF0B54F4694
:102110004646D6460D000400C0B51F001100280336
:10212000620F400A10437A00520DE3003C039146CF
:10213000640AFA0F4F0F6E0027439246B846760D99
:10214000ED0FC900954200D199E04C46341BA446DE
:10215000002C00DC7CE04A46002A00D1B8E0C54AE9
:10216000964200D11CE180223C0012041443A04698
:102170006246382A00DD61E11F2A00DDCCE16446B9
:102180002022121B444694400F00A1466446914011
:10219000E7404C464A1E91413C4342462143644637
:1021A000E240801A5C1AA3429B415F42C71B3B027C
:1021B00000D4D0E07F027F0A002F00D1FFE038007A
:1021C00001F0A8FA01000839202322005B1A8F4091
:1021D000DA408C401743B14200DAFFE0891B4B1C08
:1021E0001F2B00DDA8E020223900D21A20009440E5
:1021F0009140D840621E9441DF40002601430C43C9
:10220000630709D00F232340042B05D0231DA342CD
:10221000A44164423F191C003B0200D49EE0954B50
:1022200001369E4200D1B7E0934AE40817407B078D
:1022300071057F0223433F0B4A0D12053A43ED0718
:102240002A4318001100E0BCBA46B146A846F0BDCA
:10225000002C4BD04C46A41BA446002E00D023E1FA
:1022600004001C4300D1AFE16246541E012A00D194
:1022700015E2804DAC4500D1C8E1A4461BE14A46B9
:10228000B21A9446002A00DCACE04A46002A43D049
:10229000784A964200D1AFE180223C0012041443F8
:1022A000A0466246382A67DC1F2A00DC5FE1474609
:1022B000203AD7406246202A05D064464022121BAD
:1022C0004446944021434A1E91410C003C4357E050
:1022D0003A000A4300D105E12200013A012C00D165
:1022E00082E1644CA4455BD0944641E7634C771C83
:1022F000274200D0C4E004001C43002E00D069E156
:10230000002C00D1BFE144460C4300D0D0E142078D
:10231000DB081343C00829E03A000A4300D170E10A
:1023200062466446013A012C00D1E0E0514CA445DC
:1023300000D161E19446B4E73A001F39CA40110068
:10234000202B03D04022D31A9F403C43631E9C4164
:10235000002700260C43630700D053E7B446E40887
:102360007B072343F808434A94451DD06246070380
:1023700052053F0B520D60E744460C43621E9441E8
:10238000E4189C429B415F423F183B02E3D5394B26
:1023900001369E4200D0B5E03200002700234CE712
:1023A0004207DB081343C0081A00024300D1E1E1F1
:1023B00080273F0307433F032E4A3F0B3DE72000A2
:1023C00001F0A8F9010018311F2900DCFCE60838EB
:1023D000844027000024B14200DBFFE6264A761A3B
:1023E00017400DE7002A2FD04A46921B9446002E34
:1023F00000D1ADE01F4A914500D10FE180221204C7
:1024000010436246382A00DD0FE11F2A00DD80E11B
:10241000644620221E00121B67460400934094402D
:10242000FE405A1E9341F84034431C4380446418D4
:102430008C42BF417F424E464744A6E742460A438C
:1024400011004A1E9141ADE60C4C721C224200D094
:10245000A1E002001A43002E00D0FAE0002A00D1C9
:1024600045E13A000A4300D046E14207DB08134346
:10247000C0087BE7FF070000FFFF7FFFFE070000AB
:1024800047465C1AC21BA342BF417F42B9461700B0
:102490004A46BF1A3A0200D58DE023003B4300D0E4
:1024A0008AE60020002561E7B44CA14500D1ADE0EB
:1024B0008024240420436446382C3DDC62461F2CD3
:1024C00000DDB7E020251E002D1B0400AB40AC4012
:1024D000D640D04042465D1EAB413443121A90466E
:1024E00023432CE04207DB081343C0083BE75C189A
:1024F0009C429B4140445B42C71801263B0200D4EA
:1025000029E702269E4A63081740012214401C4313
:10251000FB071C437F0873E64446203AD4406246DA
:10252000202A05D067464022D21B474697403943B0
:102530004A1E9141214335E60343581E8341CC1A7C
:10254000A142BF4143467F4255464E46DF1B2EE621
:1025500002001A4300D1BDE062466446013A012CF4
:1025600000D1E5E0854CA44558D0944649E764463F
:102570002022121B444694400F00A146644691401D
:10258000E7404C464A1E91413C4342460C4361465B
:10259000CA408018F4E6794CA24200D1FDE65918F1
:1025A00099429B4140445F42C719FC074908160005
:1025B0000C437F08CFE6CC1AA142BF4143467F427D
:1025C000181A5546C71BF7E5C9087B0755460B4344
:1025D000F808C8E6002C00D081E043460B4315D133
:1025E000802000250003E3E65C1AA3429B41C71B41
:1025F0005B420126FF1ADAE54207DB081343C008F5
:10260000D2E64207DB081343C008ACE64346424625
:10261000C9085B0755460B43D008C5E6434642460A
:102620005B07C9080B43D008BEE603431C00631ECA
:102630009C41FCE60200203CE24014006246202A55
:1026400003D04025AD1AA8400343581E83412343BD
:1026500075E7002AE2D03A000A43CDD04207DB08F2
:1026600013438022C0081203104206D0FC08144213
:1026700003D12000CB087A0713435A0FDB0052071F
:10268000DB08134390E643460B4300D109E743467A
:102690004246C9085B0755460B43D00866E6CC1A8C
:1026A000A14289413F1A4942554601267F1A7EE5DB
:1026B00042465C1A871AA34292415242BF1A3A021A
:1026C0003DD5CC1AA1428941434649421F1A55467D
:1026D0007F1A95E57B07C9080B43F80843E6444693
:1026E000DB080C4330D142071343C0085CE67B078C
:1026F000C9080B43F80839E65C189C429B414044EA
:102700005B42C7183B0200D425E61D4B01261F4043
:1027100021E60400203AD4406246202A04D0402218
:102720006646921B904003435A1E93411C437EE62B
:102730005C188C428941404449424718DDE6230039
:102740003B4300D1ADE606E6440723438024C0089E
:102750002403204208D04246D608264204D15546DA
:102760003000CB0851070B435A0FDB00DB08520740
:10277000134319E60023014A1F005EE5FF0700002E
:10278000FFFF7FFFF0B557464E464546DE46E0B5B3
:10279000814605000C03480092461F0085B0240BBB
:1027A000400DCE0F002800D156E1D44B984200D105
:1027B00072E16B0FE4001C4380231B042343984603
:1027C000CF4BED009B4600239946834400933C0386
:1027D0007B005046240B5B0DFF0F002B00D11FE147
:1027E000C64A934200D162E1C549420F8C46E400DB
:1027F00059461443802263441204CB1A14439B4667
:10280000C200002033007B409A464B460F2B27D84E
:10281000BC499B00CB589F46B246009B022B16D06A
:10282000032B00D18EE2012B00D0D9E0002300243D
:10283000002552461B052343D207134328001900E5
:1028400005B0F0BCBB46B246A946A046F0BD002488
:102850000025AA4BEDE7BA46A04615000090DCE73C
:10286000444500D2C7E100D1C2E101235B429C464E
:102870002E0040460025E3442302140E1C431B0C8B
:10288000994623041F0C120249460092019700F05A
:102890003DFF02007A430B04310C804619438A4203
:1028A00007D901235B429C460919E0448C4200D8B9
:1028B00007E2881A494600F029FF09048C463104D2
:1028C0006646019A090C4243030031438A4204D907
:1028D0000919013B8C4200D8EDE1881A42461204E6
:1028E0001A4390464146009B0E041B0C1F000293A6
:1028F000009B360C1B04190C0B007343120C7E4317
:10290000039151437A431F0CBC4676186644B1428A
:1029100003D9802149028C466244310C8A18310463
:102920001E04360C8E19904202D312D1B54210D239
:102930004346591E009B9C4665441F009D429B4197
:102940005B421B19C018844200D2A0E100D19BE178
:102950008846AE1BB542AD41801A6D42401B844291
:1029600000D1D5E1494600F0D1FE019A0B04424363
:10297000310C050019438A4200D96CE1881A494696
:1029800000F0C4FE019A360442430904360C0300E9
:102990000E43B24200D953E10398B61A02002D0447
:1029A0001D43029F2B041B0C5A437B439C46290C5E
:1029B0004843130C844463447943984203D98020EC
:1029C000400284466144180C12041B04120C411886
:1029D0009B188E4200D2FFE000D1FAE001231D4394
:1029E000494A5A44002A00DCAAE06B0700D03DE1C6
:1029F000ED084346DB0106D54246444B1A4090465B
:102A00008022D2005A44424B9A4200DD1FE74346DF
:102A10005B071D43434652055C02240B530D08E738
:102A20005246224300D17BE0002C00D1FAE0200086
:102A300000F070FE02000B3A1D2301009B1A524663
:102A40000839DA408C40144352468A40314B58448E
:102A50009B4683440020D5E64B462343984644D00A
:102A6000002C00D1CEE0200000F054FE0100020056
:102A70000B391D235B1A49461000D94008388440A1
:102A80000B004D462343984685402348831A9B46B6
:102A90000023994600939AE64B46234398461DD15E
:102AA00008239946063B0025834600938FE652464D
:102AB000224309D1022349461943184B89469C46B3
:102AC00000240220E3449DE603234A461A43134BA5
:102AD00091469C4652460320E34493E60C239946D4
:102AE000093BA0468346009371E6042399460023E0
:102AF0009B4601330025009369E6C046FF070000AE
:102B000001FCFFFF1C8B0008FF030000FFFFFFFE1E
:102B1000FE070000F30300000DFCFFFF01F8FFFFBC
:102B20004946012319438946002401206AE600230F
:102B300080249A4600258A4B24037AE601256D42BB
:102B400001239B1A382B00DD70E61F2B00DCBFE051
:102B50001F2149428A1A4146D1400A00202B04D045
:102B60004146804B5B4499400D436B1E9D410723BA
:102B70002A431D0000241540134200D1D4E00F2148
:102B800000231140042900D1CBE0111D9142924154
:102B900052429B180A00190200D4C2E0012300240B
:102BA000002546E6802341461B03194208D01C42FB
:102BB00006D11C432403BA461500694B240B38E6A2
:102BC0008024434624031C432403B246644B240B55
:102BD0002FE6002B00D103E7A619681EA64200D2FB
:102BE0008DE08E4200D2A3E000D1B3E00500F5E60F
:102BF000AA4200D939E64346DE0758086B081E434F
:102C0000ED0739E6484600F085FD01000200153168
:102C100020321C2900DC2CE74B4608388340002575
:102C2000984632E700F076FD03001A001532203096
:102C30001C2A00DC00E75446083B00229C4005E7C4
:102C40003619013BB44200D9A6E6B24200D8A3E649
:102C5000831E3619A0E60919013D8C4200D98DE684
:102C60008A4200D88AE6851E091987E60F232B4081
:102C7000042B00D1BCE605235B42AB429B410435EB
:102C80005B42ED089844B4E6AF4200D960E6824268
:102C900004D800D05CE6AE4200D859E602235B427D
:102CA0009C46009BE0449C4665449D429B415B42A0
:102CB0001B19C0184DE68A4200D80EE6831E09197A
:102CC0000BE68A4200D8F4E5831E98460919F0E520
:102CD0002549280059448D4042468A40691E8D414D
:102CE0004146D840D94002432A430B00510700D146
:102CF00051E70F211140042900D046E74BE70500BA
:102D00008E4200D06AE6009A934200D066E667E6FB
:102D1000164A5A44002A00DC10E701230025984493
:102D200067E65D075B021C0BD2080023154380E5B4
:102D30000098023D42008242BF417F423C19361951
:102D40000092DDE78024434624031C432403044B04
:102D5000240B6EE5009A9A42EAD30500D3E7C046F9
:102D6000FF0700003E0400001E040000FF030000F7
:102D7000F0B54E464546DE4657469046E0B517004C
:102D80001A03120B0500844619480E034C009146A5
:102D90005A00DB0F9B46360B640DC90F520D84425F
:102DA00019D0824210D0012094420ED14E450CD150
:102DB0000120C44509D1594517D0002C05D1300058
:102DC0002843431E984100E00120F0BCBB46B246B8
:102DD000A946A046F0BD330001202B43F5D1A24205
:102DE000F3D14B463B43F0D1E2E70020EDE7C0468C
:102DF000FF070000F0B54746CE4604001800160055
:102E00001B031B0B2D4D4A00994680B543000F0351
:102E1000A446B0463F0B520DC90F5B0DC00FAA422E
:102E200021D0AB4213D0002A22D13C43002B02D147
:102E30004D462E4322D0002C10D0814222D00220B9
:102E4000013908400138C0BCB946B046F0BD4D4616
:102E50002E4329D1002AF0D13C43EED10028F2D1F3
:102E600001204042EFE73D0025431DD19342EED0C3
:102E7000002BE2D14C462643DFD1E0E70020002CB6
:102E8000E1D0DCE79A420ADCE8DB4F45D7D80ED028
:102E900000204F45D7D20029E2D00800D3E74342B3
:102EA000584140000138CEE702204042CBE7C445FC
:102EB000C5D80020C445C6D2EDE7C046FF070000D4
:102EC000F0B54746CE460400180016001B031B0B46
:102ED0002C4D4A00994680B543000F03A446B046E6
:102EE0003F0B520DC90F5B0DC00FAA420DD0AB4274
:102EF00010D0002A27D13C43002B11D14D462E4340
:102F00000ED10020002C15D00EE03D00254310D13D
:102F1000934218D14D462E430BD1002A02D13C4397
:102F2000002C0BD0814214D0022001390840013816
:102F300000E00220C0BCB946B046F0BD0028F9D17F
:102F400001204042F6E7002BECD14C462643E9D164
:102F5000EAE79A4204DD4342584140000138E9E77C
:102F60009A42EBDB4F45DFD806D000204F45E1D237
:102F70000029E5D00800DDE7C445D5D80020C445C8
:102F8000D8D2F5E7FF070000F0B557464E46454654
:102F9000DE46E0B598460C034B000600924687B02B
:102FA000240B5B0DCF0F002B00D15CE1D94A93427B
:102FB00000D175E1420FE40014438022120414434F
:102FC000D54AC500944663440093002399469B4626
:102FD000434642461E03D20F5B0050469046360BD6
:102FE0005B0D00D120E1CB4A934200D162E1CA4996
:102FF000420F8C4600996344F6008C4616438022AB
:103000009C44120463461643C200002000930099BA
:10301000434601318C4649467B4001930F2926D80F
:10302000BE4B890059588F46434601933400150022
:1030300083465B46022B16D0032B00D103E2012B03
:1030400000D0CDE0002200240025019B1205224380
:10305000DB071A432800110007B0F0BCBB46B2469C
:10306000A946A046F0BD00240025AA4AEDE7280C99
:103070002D042D0C2B00110C1204120C53439846F6
:1030800013002F00434399464F434F44BB464746E6
:103090000B003F0CBA464343DA440293D14504D9AE
:1030A00080277F02B9464B44029353461B0C9B4634
:1030B00053461F0443461B041B0C98463B004344E5
:1030C0000493330C3604360C984633004343994638
:1030D000434643432F009A46434677435D43380CAB
:1030E0004D444519A94503D980235B029946CA443A
:1030F0003F04280C3F0C2D04ED19270C2404240C4C
:103100000300200050437A4391463A00534405930C
:10311000030C9A464A43614349445144AB448945B0
:1031200003D980235B0299464A4400040B0C000C2F
:103130000904091820009946434670435C437E43C6
:103140005F43030C9846A41944444A440397A6429B
:1031500004D980235B029846474403972304029EC8
:103160009A46059B5E449846AE42AD4176188E4223
:1031700089410004000C504440446D424719B84650
:10318000934649428946C344D94498428041A84560
:10319000AD4193459241894589416D424042284362
:1031A000240C524249420A43039B00198018C71855
:1031B0004B46DC0D049B75021D436A1E95414B4630
:1031C000F60D7F0235435A023C431543FB0100D400
:1031D0001CE101216A080D401543E207154364080C
:1031E0004F496144002900DCB0E06B0709D00F2291
:1031F0002A40042A05D02A1DAA42AD416D42641915
:103200001500E30104D58021464AC90014406144F9
:10321000454A914200DD26E76207ED086402490550
:103220001543240B4A0D10E75246324300D17FE08C
:10323000002E00D1DCE0300000F06CFA02000B3A06
:103240001D2301009B1A52460839DA408E4016436E
:1032500052468A40009B3549181A03008C46634445
:1032600000200093D3E6250005434AD0002C00D16E
:10327000B0E0200000F04EFA010002000B391D23DF
:1032800010005B1A3100350008388440D940854071
:103290000C432648831A0093002399469B4697E6E1
:1032A0000500254326D108220093022300249146DD
:1032B0009B468DE65246009B324310D115490026AD
:1032C0008C466344494600930223194389460220F1
:1032D0009DE65B460197022B00D0ADE6C3E60D4AA2
:1032E0000320944663444A46009303231A439146BD
:1032F00052468CE60C2200930323050091469B4620
:1033000066E60423994600230093013300249B467C
:103310005EE6C046FF07000001FCFFFF5C8B000873
:10332000FF030000FFFFFFFEFE0700000DFCFFFF94
:1033300049460123194389460026012067E60023F8
:1033400080240025434A019324037EE60120401A8D
:10335000382800DD76E61F285BDD1F22230052425D
:10336000511ACB401900202803D03B4A62449440B4
:1033700025436A1E95412A000A4307210D000024B7
:10338000154011425BD00F2100241140042953D075
:10339000111D914292415242A4180A0023024BD5BA
:1033A00001220024002550E680231B031C4209D083
:1033B0001E4207D133431C0343461500240B254A04
:1033C000019342E68022120314432403214A240B72
:1033D00001973AE600F09EF9010002001531203213
:1033E0001C2900DC4BE7340008380025844050E7F6
:1033F00000F090F903001A00153220301C2A00DC7E
:103400001EE75646083B00229E4023E7009B9C4651
:10341000E6E61249220061442E008D408A40C640F3
:10342000691E8D4132432A43C4405307B6D00F2151
:1034300011400429ACD1B1E765076402240BD2081E
:103440001543002201E68022120314432403014A9B
:10345000240BFAE5FF0700003E0400001E040000F4
:1034600070B543004602C40FFE201B0E591C750A9E
:1034700008420CD0E022920094466D07360B63445C
:103480001B053343E40723432800190070BD002BBC
:1034900014D1002D1BD0280000F03CF90A281CDCB8
:1034A0000B232E001B1ADE40030015339D400E4AED
:1034B0003603121A5205360B530DE1E7002D09D0E1
:1034C0008022360B1203094B6D071643D8E7002301
:1034D0000026D5E70026054BD2E703000B3B9D40B5
:1034E0002E000025E3E7C04689030000FF07000027
:1034F00002004B00F0B55B0D0C033D4E640A400F1B
:103500005F1CC90F0443D50037420AD039481E1842
:10351000FE2E16DDFF200024C0052043C907084306
:10352000F0BD002B06D12C4326D005229201540A6F
:10353000D8B2F1E72543EDD08020C0030443FF203B
:10354000EAE7002E1BDD9201531E9A41E4006D0F45
:1035500022432A43530748D00F231340042B00D0A3
:1035600004328023DB0413403FD0701CFE2ED1D0E8
:103570009201540AC0B2CFE700200024CCE7320009
:10358000173222DB8020000420431E24A41B1F2CA2
:103590001DDD02225242961B0200F2401600202C32
:1035A00004D0154A94466344984005432A00531EAC
:1035B0009A41324300265307CED180241300E404FD
:1035C000012023402242D3D1B0E70023ADE70B4ACC
:1035D00094462A00E24014002A0063449A4098402E
:1035E000551EAA4102432243E4E733009EE7C0464A
:1035F000FE07000080FCFFFFA2FCFFFF82FCFFFF34
:10360000002243088B4274D303098B425FD3030A21
:103610008B4244D3030B8B4228D3030C8B420DD334
:10362000FF22090212BA030C8B4202D312120902C2
:1036300065D0030B8B4219D300E0090AC30B8B4200
:1036400001D3CB03C01A5241830B8B4201D38B03AE
:10365000C01A5241430B8B4201D34B03C01A524153
:10366000030B8B4201D30B03C01A5241C30A8B4296
:1036700001D3CB02C01A5241830A8B4201D38B0281
:10368000C01A5241430A8B4201D34B02C01A524125
:10369000030A8B4201D30B02C01A5241CDD2C30997
:1036A0008B4201D3CB01C01A524183098B4201D313
:1036B0008B01C01A524143098B4201D34B01C01AFE
:1036C000524103098B4201D30B01C01A5241C30876
:1036D0008B4201D3CB00C01A524183088B4201D3E5
:1036E0008B00C01A524143088B4201D34B00C01AD1
:1036F0005241411A00D20146524110467047FFE73D
:1037000001B50020FDF716FE02BDC0460029F7D026
:1037100076E770471C2101231B04984201D3000C5B
:1037200010391B0A984201D3000A08391B09984234
:1037300001D30009043902A2105C40187047C0464A
:10374000040302020101010100000000000000006A
:10375000F0B51E00002314008BB09E4204DA8021D5
:10376000090673181E002D23129A149F137020232C
:1037700003229F43462F07D03B00453B59424B4114
:103780001099013ACB18109309AB049308AB03933B
:10379000139B00920293109B22000193330000F0D0
:1037A0005BFE0500472F02D1119BDB0728D5109B3C
:1037B000EB180793462F14D12B78302B0CD1002215
:1037C000002320003100FDF7C7FD002804D10123AC
:1037D000109A9B1A139A1360139B079A1B68D318AD
:1037E00007930022002320003100FDF7B5FD0028DB
:1037F00001D0079B09933022099B07998B4206D37E
:103800002800099B159A5B1B13600BB0F0BD591C77
:1038100009911A70F0E7F0B5831C87B00393050097
:103820000C002B230270002901DA4C4202336B702A
:10383000092C31DD0A2704ABDE1D2000390001967A
:10384000FDF774FD013E30312000317039000294E3
:10385000FDF786FC029B0400632BEEDC019B3034F9
:103860009A1E13000399147004A8073098420ED8CA
:1038700004AB073300209A4204D804AB0930C018C7
:10388000019BC01A039B1818401B07B0F0BD1878A5
:10389000013308700131E7E73023E418AB70281DCD
:1038A000EC70F1E7F0B595B00C0009921E001A9D7E
:1038B000070001F029FE036818000C9300F060FC7B
:1038C00000231293237E07220A9323680E900D9300
:1038D0000D992B68C90547D59B1893431A000832E8
:1038E0002A601A685B68A264E3640122A36CE56C39
:1038F0000B936B005B080F930B98A74B0F995242E9
:1039000004F06CFF002831D10122A34B0B980F99D2
:103910005242FDF731FD002828D100220023290062
:103920000B98FDF71FFD002803D023002D22433301
:103930001A700A9B994D472B00D9994D03230D9A74
:10394000236101339A43002322600B93099B2100DA
:103950003800009613AA00F0E7F9431C00D0A2E05B
:103960000120404215B0F0BD0733B6E70B9A2B009B
:103970001000290004F032FF00280BD0002D03DADC
:1039800023002D2243331A700A9B864D472BD5D92D
:10399000854DD3E720220A99636891430F915A1C01
:1039A00049D10733636080230D9ADB001343002263
:1039B000069212AA05920A9A08A9049211AA0392E1
:1039C0002322236001936368521802920093380007
:1039D0002B000B9AFFF7BCFE0F9B05001199472B9C
:1039E00008D1CB1C02DB6368994248DD0A9B023B8D
:1039F000DBB20A930A9B652B24D820001A000139F8
:103A000050301191FFF707FF129A0B9013182361A2
:103A1000012A02DC2268D20701D501332361232366
:103A200008AA9B181B78002B00D18FE723002D22BA
:103A300043331A708AE70F9A472AB4D1002BB2D1C8
:103A40000133AFE70A9B662B1BD1636800290DDDAC
:103A50002161002B02D12268D20702D50133591807
:103A60002161119BA36500230B93D8E7002B03D1A1
:103A700001222168114200D09A1C2261F1E76723DC
:103A80000A93119B129A934206DB22682361D207A4
:103A9000E7D501332361E4E70121002B01DC49185C
:103AA000C91A5218E9E72268530507D423692A0086
:103AB00038000999B047431C28D151E70A9B652B70
:103AC00000D8E1E0A06CE16C00220023FDF744FC8B
:103AD000002831D001233800344A0999B047431CEB
:103AE00000D13DE7119B129A934202DB2368DB076A
:103AF0000CD538000E9B0C9A0999B0470025431C41
:103B000000D12DE7129B013BAB420ADC23689B07E7
:103B100000D506E1139BE068984200DB22E718001D
:103B200020E722000123380009991A32B047431CCC
:103B300000D115E70135E5E7119B002B38DC0123A7
:103B400038001A4A0999B047431C00D108E7119B75
:103B5000129A134302D12368DB07D7D50E9B380096
:103B60000C9A0999B047431C00D1F9E600230A9347
:103B7000119B0A9A5B42934201DC129B97E7220059
:103B80000123380009991A32B047431C00D1E7E6F7
:103B90000A9B0133EBE7C046FFFFEF7F9C8B0008D9
:103BA000A08B0008A48B0008A88B0008AC8B000831
:103BB000129AA36D0A929A4200DD0A930A9B002B87
:103BC0003CDC00230D930A9BDB43DB170F93A36DB3
:103BD0000F9A0B930A9B13400B9AD31A0D9A934298
:103BE00034DC119B129A93423DDB2368DB073AD405
:103BF000129A0B9B1199D31A521A0A929A4200DD1B
:103C00000A930A9B002B36DC0A9B0025DB43DB175B
:103C10000B93119A129B0B999B1A0A9A0A409B1AB2
:103C2000AB4200DC72E722000123380009991A3206
:103C3000B047431C00D193E60135EAE70A9B2A000E
:103C400038000999B047431CBBD189E62200012303
:103C5000380009991A32B047431C00D180E60D9B09
:103C600001330D93B3E70E9B38000C9A0999B047C6
:103C7000431CBDD174E60B9B3800EA1809990A9BD6
:103C8000B047431CC0D16BE6129B012B02DC012321
:103C90001A4234D001232A0038000999B047431C46
:103CA00000D15DE60E9B38000C9A0999B047431C81
:103CB00000D155E6A06CE16C00220023FDF74CFB1F
:103CC00000281AD1129B6A1C013B38000999B047A1
:103CD000431C0ED144E622000123380009991A3210
:103CE000B047431C00D13BE60135129B013BAB4280
:103CF000F1DC22000B9B5032DAE60025F5E72A00C2
:103D0000E3E722000123380009991932B047431C28
:103D100000D125E60135E368139A9B1AAB42F0DC2B
:103D2000F8E60025F7E7C046F7B5150001938A6865
:103D30000B690C000090934200DA130022002B6004
:103D400043321278002A01D001332B6023689B068E
:103D500002D52B6802332B602268062317001F4010
:103D60001A4227D0230043331B785A1E93412268FE
:103D7000920630D4220001990098089E4332B04741
:103D8000431C25D0062320682A68E16800250340EB
:103D9000042B03D18D1AEB43DB171D40A368226966
:103DA000934201DD9B1AED180027BD4220D100206F
:103DB00010E00137E3682A689B1ABB42D2DD22007B
:103DC000012301990098089E1932B047431CF0D195
:103DD00001204042FEBD3020E1184331087021002F
:103DE0005A1C45310978A218433202331170C1E7D9
:103DF0002200012301990098089E1A32B047431C03
:103E0000E6D00137D1E70000F0B58BB006920A008A
:103E100043320793059004920A7E0C00109B782A87
:103E200007D8622A09D8002A00D1C1E0582A00D157
:103E30008CE026004236327022E0100063381528EC
:103E4000F7D804F02FF916001F00F6FFF6FFF6FF73
:103E5000F6FF1F00F6FFF6FFF6FFF6FFA80036009C
:103E60009A00F6FFF6FFB900F6FF3600F6FFF6FF00
:103E70009E0026001A684236111D196013683370BF
:103E80000123A7E0086819680A1D05060BD50D680F
:103E90001A60002D03DA2D23049A6D421370614BD2
:103EA0000A2703931BE00D681A604106F1D52DB275
:103EB000EFE70D681968081D18602E0601D50D681A
:103EC00003E06D06FBD50D68ADB2564B0827039392
:103ED0006F2A00D002372300002243331A70636830
:103EE000A360002B03DB0422216891432160002D95
:103EF00002D1049E002B0CD0049E28003900FFF74D
:103F000005FC039B013E5B5C33702B0005009F4268
:103F1000F3D9082F09D12368DB0706D56368226926
:103F2000934202DC3023013E3370049B9B1B2361D0
:103F3000079B210000930598069B09AAFFF7F4FE52
:103F4000431C4CD1012040420BB0F0BD45310A70FA
:103F5000344A03921A68216820CA1A60080616D5E6
:103F6000CB0702D52023194321601027002DB2D1A1
:103F7000202322689A432260ADE7202209680A4381
:103F800022602200782145321170274AE1E7480675
:103F9000E6D5ADB2E4E71A680D68101D49691860EE
:103FA00013682E0601D5196002E06D06FBD5198055
:103FB0000023049E2361BBE71A68111D196016686F
:103FC00000213000626801F033FB002801D0801B23
:103FD0006060636823610023049A1370A8E7236973
:103FE000320006990598079DA847431CAAD023686C
:103FF0009B0715D4099BE0689842A5DA1800A3E74F
:104000002200012306990598079E1932B047431CE8
:1040100098D00135E368099A9B1AAB42F0DCE9E7D6
:104020000025F7E7AE8B0008BF8B00080EB417B56C
:10403000041E04D08369002B01D101F08BF906AB7B
:104040002000059AA168019302F036F91EBC08BC55
:1040500003B018470FB40B4B13B51C68002C05D0E8
:10406000A369002B02D1200001F074F905AB2000F8
:10407000049AA168019302F01FF916BC08BC04B0B1
:104080001847C0460800002070B505000E00002843
:1040900004D08369002B01D101F05CF9AB69AC68F5
:1040A000002B02D1280001F055F92D4B9C4222D162
:1040B0006C68636EDB0705D4A3899B0502D4A06DF1
:1040C00001F02FFAA3891B0702D52369002B29D100
:1040D0002100280000F0BCF8002823D001256D4203
:1040E000636EDB0705D4A3899B0502D4A06D01F0A4
:1040F0001EFA280070BD1B4B9C4201D1AC68D8E76A
:10410000194B9C42D5D1EC68D3E70136A360002B54
:1041100004DAA2699A4216DC0A2914D023685A1CD0
:1041200022601970A3683178013B0029EDD1A360AA
:10413000002B0FDA280022000A3100F029F80A25A6
:10414000431CCDD1CAE72200280000F021F8431C0F
:10415000E8D1C3E70A2523685A1C22601D70BFE717
:10416000A48C0008C48C0008848C000810B5034B94
:1041700001001868FFF788FF10BDC0460800002046
:104180000023C25C0133002AFBD1581E7047000097
:10419000F8B505000E001400002804D08369002B38
:1041A00001D101F0D7F8224B9C422ED16C68A36953
:1041B000A360A3891B0732D52369002B2FD0236866
:1041C0002269F7B2981A6369F6B2834205DC2100CE
:1041D000280000F0E7FF002827D1A3680130013B49
:1041E000A36023685A1C22601F706369834204D055
:1041F000A389DB0707D50A2E05D12100280000F08E
:10420000D1FF002811D13000F8BD0A4B9C4201D1EA
:10421000AC68CCE7084B9C42C9D1EC68C7E72100E9
:10422000280000F015F80028C9D001267642EAE7F8
:10423000A48C0008C48C0008848C000810B5034BC3
:104240000A0001001868FFF7A3FF10BD0800002056
:10425000374B70B51D6806000C00002D05D0AB690A
:10426000002B02D1280001F075F8324B9C420FD18F
:104270006C680C23E25E93B211072DD4D90611D4D9
:1042800009230120336037331343A381404270BDBB
:10429000294B9C4201D1AC68EBE7284B9C42E8D10A
:1042A000EC68E6E75B0713D5616B002908D02300B3
:1042B0004433994202D0300001F0E6FE00236363EC
:1042C0002422A3899343A38100236360236923608D
:1042D0000823A2891343A3812369002B0BD1A021BA
:1042E0008022A389890092000B40934203D02100D1
:1042F000300001F045F90C22A35E01201A0099B2AA
:10430000024003420FD00022A26062695242A261C1
:10431000002022698242BAD10A06B8D5402213434E
:10432000A3810138B3E7880700D46269A260EFE790
:1043300008000020A48C0008C48C0008848C0008AD
:10434000F0B506000B69326987B0002003919A42EC
:1043500065DB013B9C0000930B00143305931B1994
:1043600004933300143302931C19049B27681B68C1
:1043700038005D1C29000193FFF742F90190AF421C
:1043800024D30025AC460298059F08CF019A99B224
:1043900051431B0C534349190A0C9B18026889B2FC
:1043A00092B26244521A01681D0C090C9BB2CB1ADE
:1043B00011145B18191492B21B041A43049B8C4607
:1043C00004C0BB42E1D22368002B30D030000399F7
:1043D00001F01AFC002821DB30000024019B039926
:1043E0000133019314301431036820C99AB21419AF
:1043F000AAB2A21A1B0C2D0C14145B1B1B191C1443
:1044000092B21B04134308C0049B8B42ECD2009B66
:10441000029A9B00D3181A68002A15D0019807B099
:10442000F0BD2368002B06D1009B013B0093029B4B
:10443000043CA342F5D3009B3361C7E71A68002A06
:1044400006D1009A013A0092029A043B9A42F5D3AF
:10445000009B3361E2E70000F0B59DB00292039348
:10446000029B039C08930994446A0700259D002C35
:104470000ED1102001F0C8F8021E786204D1EA21A2
:10448000C74BC84802F0D2F8446084600460C4603E
:104490007B6A196800290AD05A68012393404A6050
:1044A0008B60380001F024F900227B6A1A60039BBC
:1044B000002B20DA01232B60039B5B005B08099330
:1044C000099DB94BB84A2B40934217D1B74B249A58
:1044D00028031360029B000B184301D100F0BFFDBD
:1044E000B348269B0690002B02D0B24B269A13604D
:1044F00006981DB0F0BD00232B60E1E7089B099CE6
:10450000129313941298139900220023FCF724FFAE
:10451000041E09D00123249A1360A74B0693269BFF
:10452000002BE5D0A54BE1E71AAB01931BAB009341
:104530003800129A139B01F08FFC6E000590760DE7
:1045400000D17CE012981399139B9D4A1B031B0B0F
:104550001A4311009B4B1894F61800229A4B03F053
:10456000ABFD9A4A9A4BFEF70FFD9A4A9A4BFDF71C
:10457000CDFD040030000D0004F084F9974A984BFB
:10458000FEF702FD02000B0020002900FDF7BEFD32
:1045900004000D0004F040F90022029000232000E6
:1045A0002900FCF7DFFE00280BD0029804F06AF91E
:1045B0002B002200FCF7D0FE43425841029B1B1AFD
:1045C000029301231693029B162B0FD8129813996E
:1045D000DA00844B9B181A685B68FCF7C3FE00285E
:1045E00049D0029B013B0293002316931A9B9E1B0A
:1045F00000230A933300013B0D9304D501239B1B39
:104600000A9300230D93029B002B36DB029A0D9B2D
:10461000944663440D93002315920E93229B01242C
:10462000092B64D8052B02DD0024043B2293229B36
:10463000981E032864D803F02BFD293836581A9B9E
:104640001B9A9E18684BF218202A0FDD40239B1AF4
:104650009D40664B0298F318D840284304F042F975
:104660000123634C013E0919189376E72023029831
:104670009B1A9840F2E71690B8E70A9B029A9B1A99
:104680000A9353420E9300231593C7E700230F9319
:10469000239B0C930793002B13DC01231A000C932C
:1046A000079323920DE00123F1E70023239A0F9350
:1046B0009446029B63440C9301330793002B00DC68
:1046C00001230022786A42600432150014354168E3
:1046D0009D4219D9380000F0C7FF0690002817D175
:1046E000D5210200434B4900CBE60123DEE700233E
:1046F0000F942293013B0C93079300221333D0E7CE
:1047000001230F93023BF6E7013141605200DCE7E1
:104710007B6A069A1A60079B0E2B00D9EBE0002CEF
:1047200000D1E8E0029B002B68DD1A000F212D4B21
:104730000A40D2009B181D685E68029B1C11022370
:104740001093029BDB050BD52B4B0C401A6A5B6A5E
:1047500012981399FEF716F8032308900991109305
:10476000254B1493002C08D1089809992A0033008E
:10477000FEF708F8089009915CE001231C420BD079
:10478000109B280001331093149B31001A685B685A
:10479000FEF7FAFB05000E00149B64100833E0E7F7
:1047A000DD8B0008F48B00080000F07F0F2700006D
:1047B000D98B0008DC8B0008AC8B0008AD8B00089F
:1047C0000000F03F01FCFFFF0000F83F61436F6312
:1047D000A787D23FB3C8608B288AC63FFB799F501A
:1047E0001344D33F908D00083204000012040000EF
:1047F000000010FE728C0008688D000802231093E0
:10480000029B002B16D0129813995C420F23B64AD4
:104810002340DB00D3181A685B68FEF7B5FB01265E
:10482000002308900991B14D2411002C00D094E090
:10483000002B9FD1169B002B00D19BE0089C099D6B
:10484000002220002900AA4BFCF78CFD002800D193
:1048500090E0079B002B00D18CE00C9B002B46DDE9
:10486000029B0022200029005E1EA24BFEF78CFB5B
:10487000109B08900991013310930C9B1098089C91
:10488000099D149303F0FEFF22002B00FEF77CFB32
:104890000022994BFDF73AFC10901191109A119B50
:1048A00008920993954A119B944663441793099380
:1048B000149B002B61D1002220002900904B03F0B3
:1048C000FBFB089A179B04000D00FCF75FFD002816
:1048D00000D0AFE28B481199844661440B00200060
:1048E0002900089AFCF73EFD002800D09FE2129BA9
:1048F000139C089309941B9B002B00DA72E1029A27
:104900000E2A00DD6EE1784BD2009B185C681B68B4
:104910000A930B94239B002B00DBF7E0079B002BF3
:1049200000DDF3E000D082E20A980B990022744B7C
:10493000FEF72AFB089A099BFCF732FD079E35001B
:10494000002800D059E2069B069A013308933123D0
:104950001370029B0133029354E2344207D0109B40
:10496000013310932A686B68FEF70EFB3300641066
:1049700008355AE7029E079B80E7149B0F995A1E41
:10498000594BD2009B181A685B68002951D000204F
:104990005D49FDF7F7FE089A099B03F08DFB069A27
:1049A000069B94461793149B10901191634419939E
:1049B0002900200003F030FF149003F063FF020091
:1049C0000B002000290003F077FB179B179A013397
:1049D0000893149B040030331370109A119B0D0040
:1049E000FCF7C0FC002875D122002B0000204049B4
:1049F00003F062FB109A119BFCF7B4FC002800D076
:104A0000D2E0199B089A934200D170E7109811994F
:104A10000022384BFEF7B8FA364B10901191002265
:104A200020002900FEF7B0FA089B04000D00179340
:104A3000BEE708980999FEF7A7FA069A069B9446DE
:104A40000893149B1090119163441993290020003E
:104A500003F0E2FE179003F015FF02000B002000A8
:104A6000290003F029FB179B089A303313701300B9
:104A7000199A013304000D00089393422CD1109829
:104A80001199069A149B94466344002208931E4B86
:104A9000FDF73CFB02000B0020002900FCF776FC30
:104AA000002800D080E0109A119B0020164903F0E6
:104AB00003FB02000B0020002900FCF753FC002838
:104AC00000D114E7089B1A00013A08921278302AA4
:104AD000F8D00893029655E00022064BFEF754FAF0
:104AE00004000D00B2E7C046908D0008688D0008F4
:104AF0000000F03F0000244000001C400000C0FC0B
:104B0000000014400000C07C0000E03F079B069EB0
:104B1000013B9B190C93089C099D0A9A0B9B200052
:104B20002900FDF72FFE03F077FE079003F0AAFEA1
:104B30000A9A0B9BFEF728FA02000B0020002900BE
:104B400003F0BAFA3300079A013630321A700C9A21
:104B500008969A4239D102000B00FDF7D7FA0A9A5B
:104B60000B9B04000D00FCF711FC00281BD10A9AD6
:104B70000B9B20002900FCF7EFFB002802D0079BCD
:104B8000DB0710D43800059900F0B2FD0023089A25
:104B900002981370249B01301860269B002B00D1D3
:104BA000A6E41A60A4E4029E089B0893013B1A78CD
:104BB000392A06D1069A9A42F7D13022069901364F
:104BC0000A701A7801321A7084E70022AA4BFEF7A5
:104BD000DBF90022002304000D00FCF7BDFB0028D8
:104BE0009BD0CFE70F9D0E9E0A9C002D12D0229ADB
:104BF000012A66DC189A002A5DD0A04A9B180A9AFE
:104C00000121D2180A920D9A3800D3180D9300F0A2
:104C10006BFE0500002C0EDD0D9B002B0BDD0D9AAD
:104C20002300944200DD13000A9AE41AD21A0A9271
:104C30000D9AD31A0D930E9B002B1FD00F9B002BA8
:104C400054D0002E11DD29003200380000F012FF90
:104C5000059A01000500380000F05CFE05991490EB
:104C6000380000F045FD149B05930E9B9A1BB34240
:104C700004D03800059900F0FDFE059001213800B0
:104C800000F032FE159B0600002B31DD1A000100FA
:104C9000380000F0EFFE229B0600012B2DDD0023E3
:104CA0000E93336903339B00F318586800F0D4FD6A
:104CB0002023181A39E036231A9A0E9E0A9C9B1A52
:104CC0009DE7079B5E1E0E9BB34207DB9E1B079B67
:104CD0000A9C002B93DAE41A002390E70E9B159AA6
:104CE000F31AD3180E9615930026F0E70E9AC0E734
:104CF00000230E93229B012B13DC00230E93089BB1
:104D0000002B0ED1099B1B030BD15D4B099A13425B
:104D100007D00A9B01330A930D9B01330D930123A6
:104D20000E93159B0120002BBBD10D9B1F22181841
:104D300003001340104246D00132D21A042A3FDD4C
:104D40001C22D31A0A9AE418D2180A920D9AD31880
:104D50000D930A9B002B05DD1A003800059900F021
:104D6000E5FE05900D9B002B05DD31001A00380093
:104D700000F0DCFE0600169B002B26D031000598C3
:104D800000F042FF002820DA029B0A22013B029336
:104D900038000023059900F0CFFC0F9B0590002BF5
:104DA00000D166E1002329000A22380000F0C4FC8B
:104DB0000C9B0500002B47DC229B022B0DDC43E003
:104DC000042AC6D013001C33BCE7079B002B35DC3C
:104DD000229B022B32DD079B0C930C9B002B0CD1EA
:104DE00031000522380000F0A7FC060001000598FC
:104DF00000F00AFF002800DDA5E5239BDB430293BA
:104E0000069B089300243100380000F071FC002D4F
:104E100000D1B7E6002C05D0AC4203D02100380009
:104E200000F066FC2900380000F062FCAAE60026CB
:104E30003500E2E70296149E350084E50F9B002BB7
:104E400000D1CEE0079B0C93002C05DD2900220049
:104E5000380000F06BFE05000E9B2800002B22D0CE
:104E60003800696800F000FC041E0FD10200054BF9
:104E70000549FFF706FBC04600002440330400004C
:104E80000000F07F728C0008EA02000029002B6904
:104E90000C319A1C92000C3000F0D5FB012221004D
:104EA000380000F043FE069B0C9A0A93013B9B18C6
:104EB00001222C0005001493089B13400F9331002E
:104EC0000598FFF73DFA0300210030330D90059857
:104ED000079300F099FE2A000E903100380000F090
:104EE000AFFEC3680890109301230C93109B002B16
:104EF00004D10100059800F087FE0C903800089955
:104F000000F0F6FB0A9B0C9A01330893229B134393
:104F10000F9A13430CD1079B392B26D00E9B002BE5
:104F200002DD0D9B313307930A9B079A1A706AE7DB
:104F30000E9B002B04DB229A13430F9A13431FD1BD
:104F40000C9B002BF0DD05990122380000F0EEFDEE
:104F50003100059000F058FE002803DCE4D1079BE7
:104F6000DB07E1D5079B392BDBD139230A9A137074
:104F7000089B0893013B1A78392A68D00132D5E79B
:104F80000C9B002B07DD079B392BEED0079B0A9A61
:104F90000133137037E70A9B079A1A70149B0A9A19
:104FA00093423ED000230A220599380000F0C4FB4A
:104FB000002305900A2221003800AC4206D100F0FF
:104FC000BBFB04000500089B0A9378E700F0B4FBE4
:104FD0002900040000230A22380000F0ADFB050080
:104FE000F1E7079B0C93002431000598FFF7A8F91F
:104FF000069B303018550C9B01340790A34207DD07
:1050000000230A223800059900F096FB0590EBE793
:105010000C9B0120002B00DD18000024069B1B18B0
:10502000089305990122380000F080FD31000590B9
:1050300000F0EAFD00289BDC02D1079BDB0797D438
:10504000089B0893013B1A78302AFAD0DBE6069ACF
:105050009A428ED1029B01330293312399E7094B87
:10506000269A0693084B002A01D0FFF73FFAFFF774
:105070003FFA0C9B002BB6DC229B022B00DDACE63A
:10508000B1E7C046D08B0008D88B0008F7B58B89F4
:1050900005000C001A075FD44A68002A04DC0A6C79
:1050A000002A01DC0020FEBDE76A002FFAD00022B2
:1050B00080212E682A601A0049010A400B4234D030
:1050C000606DA3895B0706D56368C01A636B002B0C
:1050D00001D0236CC01A0200216A00232800E76A6D
:1050E000B847A189431C06D12B681D2B31D82C4A07
:1050F000DA40D3072DD50023636023692360CB04F6
:1051000005D5431C02D12B68002B00D16065616B73
:105110002E600029C6D023004433994202D02800D3
:1051200000F0B2FF00206063BDE701232800216A80
:10513000B847431CC5D12B68002BC2D01D2B01D012
:10514000162B01D12E60ADE74023A2891343A38122
:10515000A9E740230B43FAE70F69002FA2D00A68A2
:105160000F60D21B019200229B0700D14A69A26006
:10517000019B002B00DC95E73A002800019B216A87
:10518000A66AB047002806DC40230120A2894042DD
:105190001343A38187E7019B3F181B1A0193E7E79D
:1051A000010040200B6970B505000C00002B02D1F6
:1051B0000025280070BD002804D08369002B01D190
:1051C00000F0C8F8144B9C421BD16C680C22A35E03
:1051D000002BEDD0626ED20704D49B0502D4A06DE3
:1051E00000F09FF928002100FFF750FF636E0500D3
:1051F000DB07DED4A3899B05DBD4A06D00F097F913
:10520000D7E7064B9C4201D1AC68DFE7044B9C42D8
:10521000DCD1EC68DAE7C046A48C0008C48C000836
:10522000848C0008010010B5002805D1054B064903
:10523000186800F046F910BD044B1868FFF7B2FF7C
:10524000F9E7C046E48C0008A551000808000020DA
:10525000002310B5040003604360836081814366CE
:105260001900C28103614361836108225C3000F050
:10527000F3F9054B24626362044BA362044BE362BF
:10528000044B236310BDC04669650008956500089E
:10529000CD650008F965000810B5024900F011F964
:1052A00010BDC046A5510008436E10B5DB0705D4FC
:1052B00083899B0502D4806D00F033F9002010BD76
:1052C000436E10B5DB0705D483899B0502D4806D3E
:1052D00000F02DF9002010BD70B568254A1E554319
:1052E0000E002900743100F03BFF041E08D000219D
:1052F0002A00016046600C30A060683200F0ACF912
:10530000200070BD10B5024B1868FFF7C5FF10BD37
:10531000E48C000810B5024800F003F910BDC04647
:105320009202002010B5024800F001F910BDC046FD
:105330009202002010B5024800F0F3F810BDC046FC
:105340009302002010B5024800F0F1F810BDC046ED
:105350009302002013B50400FFF7ECFFA369002BB4
:1053600002D0FFF7EFFF13BDA364E3642365134B83
:10537000134A1B68A2620193A34201D10123A361D6
:10538000200000F01FF86060200000F01BF8A06013
:10539000200000F017F800220421E0606068FFF7A9
:1053A00057FF01220921A068FFF752FF02221221B4
:1053B000E068FFF74DFF0123A361D2E7E48C00080A
:1053C00099520008F8B50700FFF7A4FF1F4B1E68AD
:1053D000B369002B02D13000FFF7BCFF4836B46838
:1053E0007368013B04D53368002B22D03668F6E79A
:1053F0000C22A55E002D1AD12000154B5830E36019
:10540000656600F08AF8FFF78DFF2000082229006A
:105410002560A560656025616561A5615C3000F06F
:105420001BF96563A563A564E5642000F8BD6834D5
:10543000D7E704213800FFF74FFF041E3060D5D1B5
:10544000FFF770FF0C233B60EFE7C046E48C0008D9
:105450000100FFFF10B5FFF75DFF034B034918681C
:1054600000F014F810BDC04608000020A952000842
:1054700010B5044B0449186800F008F8FFF752FF14
:1054800010BDC04608000020C1520008F7B54830E2
:10549000040000260191A5686768013F04D52468CF
:1054A000002CF8D13000FEBDAB89012B07D90E22AC
:1054B000AB5E013303D02800019B98470643683553
:1054C000EBE7F7B504000600002701914834636854
:1054D000A5680093009B013B009304D52468002C31
:1054E000F5D13800FEBDAB89012B08D90E22AB5E89
:1054F000013304D029003000019B984707436835E9
:10550000E8E7F03070470000004870475C01002079
:10551000004870475C010020704770477047704733
:1055200070477047012070470120704770477047EF
:1055300070B50E001D000E23C95E140096B0002940
:1055400008DA0C22B35E00222A601B0611D48023E5
:10555000DB000FE06A4601F0BBF80028F1DBF02326
:1055600001991B021940054BC9184B42594129604A
:10557000EDE740230020236016B070BD00E0FFFF80
:10558000F7B502268B8905000C00334206D02300B4
:1055900047332360236101236361F7BD6A4601AB92
:1055A000FFF7C6FF00990700280000F0D9FD00288A
:1055B00008D10C22A35E9A05EFD4032293431E4325
:1055C000A681E4E70F4BAB628023A28920601343DE
:1055D000A381009B20616361019B002B0DD02800FB
:1055E0000E23E15E01F0EEF9002806D00322A38924
:1055F00093431A0001231343A381A0890743A78182
:10560000CBE7C0469952000810B5034B010018685B
:1056100000F0A6FD10BDC0460800002010B5034BE9
:105620000100186800F030FD10BDC04608000020E1
:10563000C9B28218904201D10020704703788B4292
:10564000FBD00130F6E7002310B59A4200D110BD1F
:10565000CC5CC4540133F8E703008218934200D1B4
:10566000704719700133F9E770B5456A06000C0000
:10567000002D0ED11020FFF7C7FF021E706204D16B
:105680006621194B194800F0D1FF4560856005601F
:10569000C560756AEB68002B13D0736AA200DB68E3
:1056A0009B181868002818D101210D00A5406A1D1B
:1056B0003000920000F0BCFC00280CD044608560F3
:1056C0000DE021220421300000F0B2FC736AE86092
:1056D000DB68002BE1D1002070BD02681A60002356
:1056E0000361C360F8E7C046DD8B0008E88C000862
:1056F00070B5466A05000C00002E0ED11020FFF791
:1057000083FF021E686204D18A21094B094800F018
:105710008DFF466086600660C660002C07D06B6A0D
:105720006268DB6892009B181A6822601C6070BD7A
:10573000DD8B0008E88C0008F7B50E0001900C0026
:105740001D0000200F6914363368013099B25143AF
:105750001B0C534349190D0C5B191D0C89B21B041A
:105760005B1808C68742EFDC002D22D0A368BB423D
:1057700019DC63680198591CFFF776FF061E05D1F6
:105780000200B5210C4B0D4800F050FF21002369A9
:105790000C319A1C92000C30FFF755FF2100019844
:1057A000FFF7A6FF34003B1D9B00E3185D607B1CE8
:1057B00023612000FEBDC046728C0008E88C000802
:1057C000F7B5060018000C000830092101931500F8
:1057D000FBF7C6FC0123002183420ADB3000FFF700
:1057E00043FF011E08D10200194B1A48CE3100F0C8
:1057F0001DFF5B000131EFE7089B4361012303615B
:10580000092D18DD230009331F00009364193B782C
:105810000A223000303BFFF78FFF01370100A7421B
:10582000F5D12C00009B083C1C192F00019B9F42C6
:1058300004DB0800FEBD09250A34F6E7631BDB5DC7
:105840000A223000303BFFF777FF01370100EDE718
:10585000728C0008E88C00080300020C00208242D1
:1058600001D11B0410301A0E01D108301B021A0F8F
:1058700001D104301B019A0F01D102309B00002B93
:1058800003DB01305B0000D4202070470368020076
:105890000721180008400B420DD0063900200B42AA
:1058A00005D10230034203D0CB400800136070479B
:1058B0009B081360FBE799B2002901D110201B0C53
:1058C000D9B2002901D108301B0A190701D10430CF
:1058D0001B09990701D102309B08D907E9D401308F
:1058E0005B08E6D12020E2E710B50C000121FFF7AC
:1058F000BBFE002806D1A0210200044B0448490049
:1059000000F094FE01234461036110BD728C000815
:10591000E88C0008F0B50B69140012690D0089B01D
:10592000934201DA25000C002F6926696968BB19CA
:105930000293AB68BA19934200DA0131FFF794FE83
:105940000190002806D15E210200484B4848FF31F3
:1059500000F06CFE019B002214339C46BB199B0097
:1059600063440393634603998B422CD32B0022009C
:105970001433BF0014320693B600DB190493931955
:105980000793042305932B00049915330092994241
:1059900005D34B1B153B9B0801339B000593079BCD
:1059A000009A9A4211D3029B002B06DD039B043B15
:1059B00003931B680093002B53D0019B029A18009D
:1059C0001A6109B0F0BD04C3CDE7009B1B6898B213
:1059D00000281BD067460024069E02CE3A688BB290
:1059E000434392B29B181B190C0C44433A68110CA8
:1059F00061181C0C09190C0C9BB209040B4308C755
:105A0000049BB342E9D86346059A9C50009B1B68EF
:105A10001E0C20D063462C00604600271B681434FF
:105A200022689BB291B271430268120C8918CF1997
:105A300039040B43036002CC4368090C71439BB2E9
:105A40003F0CCB18049ADB191F0C0430A242E7D894
:105A5000624605995350009B0433009304239C44F1
:105A60009DE7029B013B02939DE7C046728C0008B4
:105A7000E88C0008F7B50323150007000E001A4054
:105A80001D4208D02549013A9200525800233100A6
:105A9000FFF752FE0600AD103DD07C6A002C0FD1FE
:105AA0001020FFF7B1FD021E786205D1D7211C4BF3
:105AB0001C48490000F0BAFD446084600460C46082
:105AC0007B6A9C680193002C08D138001649FFF7C7
:105AD0000BFF019B040098600023036001231D421B
